{"contracts/EnhancedProposalGovernance.sol":{"EnhancedProposalGovernance":{"abi":[{"inputs":[{"internalType":"address","name":"_iccToken","type":"address"}],"stateMutability":"nonpayable","type":"constructor"},{"anonymous":false,"inputs":[{"indexed":true,"internalType":"uint256","name":"amendmentId","type":"uint256"},{"indexed":true,"internalType":"uint256","name":"proposalId","type":"uint256"},{"indexed":false,"internalType":"uint256","name":"newVersion","type":"uint256"}],"name":"AmendmentApplied","type":"event"},{"anonymous":false,"inputs":[{"indexed":true,"internalType":"uint256","name":"amendmentId","type":"uint256"},{"indexed":true,"internalType":"uint256","name":"proposalId","type":"uint256"}],"name":"AmendmentApproved","type":"event"},{"anonymous":false,"inputs":[{"indexed":true,"internalType":"uint256","name":"amendmentId","type":"uint256"},{"indexed":true,"internalType":"uint256","name":"proposalId","type":"uint256"},{"indexed":true,"internalType":"address","name":"proposer","type":"address"},{"indexed":false,"internalType":"string","name":"title","type":"string"},{"indexed":false,"internalType":"string","name":"rationale","type":"string"}],"name":"AmendmentProposed","type":"event"},{"anonymous":false,"inputs":[{"indexed":true,"internalType":"uint256","name":"amendmentId","type":"uint256"},{"indexed":true,"internalType":"address","name":"voter","type":"address"},{"indexed":false,"internalType":"enum EnhancedProposalGovernance.VoteType","name":"voteType","type":"uint8"},{"indexed":false,"internalType":"uint256","name":"votingPower","type":"uint256"}],"name":"AmendmentVoted","type":"event"},{"anonymous":false,"inputs":[{"indexed":true,"internalType":"address","name":"previousOwner","type":"address"},{"indexed":true,"internalType":"address","name":"newOwner","type":"address"}],"name":"OwnershipTransferred","type":"event"},{"anonymous":false,"inputs":[{"indexed":false,"internalType":"address","name":"account","type":"address"}],"name":"Paused","type":"event"},{"anonymous":false,"inputs":[{"indexed":true,"internalType":"uint256","name":"proposalId","type":"uint256"},{"indexed":true,"internalType":"address","name":"canceller","type":"address"}],"name":"ProposalCancelled","type":"event"},{"anonymous":false,"inputs":[{"indexed":true,"internalType":"uint256","name":"proposalId","type":"uint256"},{"indexed":true,"internalType":"address","name":"proposer","type":"address"},{"indexed":false,"internalType":"string","name":"title","type":"string"},{"indexed":false,"internalType":"string","name":"category","type":"string"},{"indexed":false,"internalType":"uint256","name":"startTime","type":"uint256"},{"indexed":false,"internalType":"uint256","name":"endTime","type":"uint256"}],"name":"ProposalCreated","type":"event"},{"anonymous":false,"inputs":[{"indexed":true,"internalType":"uint256","name":"proposalId","type":"uint256"},{"indexed":false,"internalType":"bool","name":"success","type":"bool"}],"name":"ProposalExecuted","type":"event"},{"anonymous":false,"inputs":[{"indexed":true,"internalType":"uint256","name":"proposalId","type":"uint256"},{"indexed":false,"internalType":"uint256","name":"totalVotes","type":"uint256"}],"name":"QuorumReached","type":"event"},{"anonymous":false,"inputs":[{"indexed":false,"internalType":"address","name":"account","type":"address"}],"name":"Unpaused","type":"event"},{"anonymous":false,"inputs":[{"indexed":true,"internalType":"uint256","name":"proposalId","type":"uint256"},{"indexed":true,"internalType":"address","name":"voter","type":"address"},{"indexed":false,"internalType":"enum EnhancedProposalGovernance.VoteType","name":"voteType","type":"uint8"},{"indexed":false,"internalType":"uint256","name":"votingPower","type":"uint256"},{"indexed":false,"internalType":"uint256","name":"timestamp","type":"uint256"}],"name":"VoteCast","type":"event"},{"anonymous":false,"inputs":[{"indexed":true,"internalType":"address","name":"delegator","type":"address"},{"indexed":true,"internalType":"address","name":"delegate","type":"address"},{"indexed":false,"internalType":"uint256","name":"power","type":"uint256"}],"name":"VoteDelegated","type":"event"},{"anonymous":false,"inputs":[{"indexed":true,"internalType":"address","name":"delegator","type":"address"},{"indexed":true,"internalType":"address","name":"delegate","type":"address"}],"name":"VoteUndelegated","type":"event"},{"inputs":[],"name":"AMENDMENT_PERIOD","outputs":[{"internalType":"uint256","name":"","type":"uint256"}],"stateMutability":"view","type":"function"},{"inputs":[],"name":"AMENDMENT_THRESHOLD","outputs":[{"internalType":"uint256","name":"","type":"uint256"}],"stateMutability":"view","type":"function"},{"inputs":[],"name":"MIN_PROPOSAL_THRESHOLD","outputs":[{"internalType":"uint256","name":"","type":"uint256"}],"stateMutability":"view","type":"function"},{"inputs":[],"name":"PROPOSAL_COOLDOWN","outputs":[{"internalType":"uint256","name":"","type":"uint256"}],"stateMutability":"view","type":"function"},{"inputs":[],"name":"QUORUM_PERCENTAGE","outputs":[{"internalType":"uint256","name":"","type":"uint256"}],"stateMutability":"view","type":"function"},{"inputs":[],"name":"VOTING_DURATION","outputs":[{"internalType":"uint256","name":"","type":"uint256"}],"stateMutability":"view","type":"function"},{"inputs":[{"internalType":"uint256","name":"","type":"uint256"}],"name":"amendments","outputs":[{"internalType":"uint256","name":"id","type":"uint256"},{"internalType":"uint256","name":"proposalId","type":"uint256"},{"internalType":"address","name":"proposer","type":"address"},{"internalType":"string","name":"title","type":"string"},{"internalType":"string","name":"description","type":"string"},{"internalType":"string","name":"rationale","type":"string"},{"internalType":"uint256","name":"createdAt","type":"uint256"},{"internalType":"uint256","name":"supportVotes","type":"uint256"},{"internalType":"uint256","name":"againstVotes","type":"uint256"},{"internalType":"bool","name":"approved","type":"bool"},{"internalType":"bool","name":"applied","type":"bool"}],"stateMutability":"view","type":"function"},{"inputs":[{"internalType":"uint256","name":"amendmentId","type":"uint256"}],"name":"applyAmendment","outputs":[],"stateMutability":"nonpayable","type":"function"},{"inputs":[{"internalType":"address","name":"delegate","type":"address"},{"internalType":"uint256","name":"amount","type":"uint256"}],"name":"delegateVote","outputs":[],"stateMutability":"nonpayable","type":"function"},{"inputs":[{"internalType":"address","name":"","type":"address"}],"name":"delegatedPower","outputs":[{"internalType":"uint256","name":"","type":"uint256"}],"stateMutability":"view","type":"function"},{"inputs":[{"internalType":"address","name":"","type":"address"},{"internalType":"address","name":"","type":"address"}],"name":"delegations","outputs":[{"internalType":"address","name":"delegate","type":"address"},{"internalType":"uint256","name":"power","type":"uint256"},{"internalType":"uint256","name":"timestamp","type":"uint256"},{"internalType":"bool","name":"active","type":"bool"}],"stateMutability":"view","type":"function"},{"inputs":[{"internalType":"address","name":"delegator","type":"address"},{"internalType":"address","name":"delegate","type":"address"}],"name":"getDelegation","outputs":[{"components":[{"internalType":"address","name":"delegate","type":"address"},{"internalType":"uint256","name":"power","type":"uint256"},{"internalType":"uint256","name":"timestamp","type":"uint256"},{"internalType":"bool","name":"active","type":"bool"}],"internalType":"struct EnhancedProposalGovernance.Delegation","name":"","type":"tuple"}],"stateMutability":"view","type":"function"},{"inputs":[{"internalType":"uint256","name":"proposalId","type":"uint256"}],"name":"getProposalAmendments","outputs":[{"internalType":"uint256[]","name":"","type":"uint256[]"}],"stateMutability":"view","type":"function"},{"inputs":[{"internalType":"uint256","name":"proposalId","type":"uint256"}],"name":"getProposalState","outputs":[{"internalType":"enum EnhancedProposalGovernance.ProposalState","name":"","type":"uint8"}],"stateMutability":"view","type":"function"},{"inputs":[{"internalType":"address","name":"account","type":"address"}],"name":"getVotingPower","outputs":[{"internalType":"uint256","name":"","type":"uint256"}],"stateMutability":"view","type":"function"},{"inputs":[],"name":"iccToken","outputs":[{"internalType":"contract ICCToken","name":"","type":"address"}],"stateMutability":"view","type":"function"},{"inputs":[{"internalType":"address","name":"","type":"address"}],"name":"lastProposalTime","outputs":[{"internalType":"uint256","name":"","type":"uint256"}],"stateMutability":"view","type":"function"},{"inputs":[],"name":"owner","outputs":[{"internalType":"address","name":"","type":"address"}],"stateMutability":"view","type":"function"},{"inputs":[],"name":"pause","outputs":[],"stateMutability":"nonpayable","type":"function"},{"inputs":[],"name":"paused","outputs":[{"internalType":"bool","name":"","type":"bool"}],"stateMutability":"view","type":"function"},{"inputs":[{"internalType":"uint256","name":"","type":"uint256"}],"name":"proposals","outputs":[{"internalType":"uint256","name":"id","type":"uint256"},{"internalType":"string","name":"title","type":"string"},{"internalType":"string","name":"description","type":"string"},{"internalType":"string","name":"category","type":"string"},{"internalType":"address","name":"proposer","type":"address"},{"internalType":"uint256","name":"startTime","type":"uint256"},{"internalType":"uint256","name":"endTime","type":"uint256"},{"internalType":"uint256","name":"forVotes","type":"uint256"},{"internalType":"uint256","name":"againstVotes","type":"uint256"},{"internalType":"uint256","name":"abstainVotes","type":"uint256"},{"internalType":"bool","name":"executed","type":"bool"},{"internalType":"bool","name":"cancelled","type":"bool"},{"internalType":"uint256","name":"version","type":"uint256"}],"stateMutability":"view","type":"function"},{"inputs":[{"internalType":"uint256","name":"proposalId","type":"uint256"},{"internalType":"string","name":"title","type":"string"},{"internalType":"string","name":"description","type":"string"},{"internalType":"string","name":"rationale","type":"string"}],"name":"proposeAmendment","outputs":[],"stateMutability":"nonpayable","type":"function"},{"inputs":[],"name":"renounceOwnership","outputs":[],"stateMutability":"nonpayable","type":"function"},{"inputs":[{"internalType":"address","name":"newOwner","type":"address"}],"name":"transferOwnership","outputs":[],"stateMutability":"nonpayable","type":"function"},{"inputs":[{"internalType":"address","name":"delegate","type":"address"}],"name":"undelegateVote","outputs":[],"stateMutability":"nonpayable","type":"function"},{"inputs":[],"name":"unpause","outputs":[],"stateMutability":"nonpayable","type":"function"},{"inputs":[{"internalType":"address","name":"","type":"address"}],"name":"userAmendmentCount","outputs":[{"internalType":"uint256","name":"","type":"uint256"}],"stateMutability":"view","type":"function"},{"inputs":[{"internalType":"address","name":"","type":"address"}],"name":"userProposalCount","outputs":[{"internalType":"uint256","name":"","type":"uint256"}],"stateMutability":"view","type":"function"},{"inputs":[{"internalType":"address","name":"","type":"address"}],"name":"userVoteCount","outputs":[{"internalType":"uint256","name":"","type":"uint256"}],"stateMutability":"view","type":"function"},{"inputs":[{"internalType":"uint256","name":"amendmentId","type":"uint256"},{"internalType":"enum EnhancedProposalGovernance.VoteType","name":"voteType","type":"uint8"}],"name":"voteOnAmendment","outputs":[],"stateMutability":"nonpayable","type":"function"}],"evm":{"bytecode":{"linkReferences":{},"object":"60a0346100e657601f61223538819003918201601f19168301916001600160401b038311848410176100eb578084926020946040528339810103126100e657516001600160a01b0390818116908190036100e6576001600081815581546001600160a81b0319811633600881811b610100600160a81b0316929092179094556040519591901c16907f8be0079c531659141344cd1fd0a4f28419497f9722a3daafe3b4186f6b6457e09080a36080526121339081610102823960805181818161052b01528181610a0a01528181610b0c01528181611115015281816111f40152611fff0152f35b600080fd5b634e487b7160e01b600052604160045260246000fdfe6040608081526004908136101561001557600080fd5b600091823560e01c908163013cf08b146119e757816313e8cc39146118fc57816315049a5a14611844578163169df0641461180c578163211603c6146117d45781632d5e60b01461114457816331de880714611100578163333c69a7146110e25781633f4ba83a1461104c578163467f67f91461102e5781634e60e4f014610f565781635b7ad57814610f1e5781635c975abb14610efa578163713cdaa814610ec2578163715018a614610e60578163791f5d2314610e3c5781638456cb5914610da85781638da5cb5b14610d7b5781639080936f14610d37578163926f732714610ab5578163a438d20814610a97578163bb4d4436146109c5578163c13c312414610903578163c64814dd1461088c578163d1cbf969146104a4578163d7c0270d14610480578163df88543b146102a1578163ee8a7c1514610285578163f2fde38b146101a7575063f496c6861461016d57600080fd5b346101a35760203660031901126101a35760209181906001600160a01b03610193611c71565b168152600b845220549051908152f35b5080fd5b905034610281576020366003190112610281576101c2611c71565b6101ca611cf4565b6001600160a01b0381811693909290841561022f57505060018054610100600160a81b03198116600893841b610100600160a81b031617909155901c167f8be0079c531659141344cd1fd0a4f28419497f9722a3daafe3b4186f6b6457e0600080a380f35b906020608492519162461bcd60e51b8352820152602660248201527f4f776e61626c653a206e6577206f776e657220697320746865207a65726f206160448201526564647265737360d01b6064820152fd5b8280fd5b5050346101a357816003193601126101a3576020905160058152f35b919050346102815760208060031936011261047c5782359182151580610470575b6102cb90611e21565b82855260058252808520936009850194855460ff81169081610461575b5015610401576001810191825488528085528388209160018060a01b0380838501541633149081156103f1575b50156103885791610361600b928461035760037ff309aa0f24a1a2d5c0e59c021fb20c806730c281dd69887c3a1fefc0763a09c89a9998970160018601611e6c565b0160028301611e6c565b019561036d8754611e12565b8755805461ff0019166101001790555494549051908152a380f35b845162461bcd60e51b8152808301879052603960248201527f476f7665726e616e63653a204f6e6c792070726f706f73616c206f7220616d6560448201527f6e646d656e742070726f706f7365722063616e206170706c79000000000000006064820152608490fd5b9050600282015416331438610315565b5082608492519162461bcd60e51b8352820152603560248201527f476f7665726e616e63653a20416d656e646d656e74206e6f7420617070726f766044820152741959081bdc88185b1c9958591e48185c1c1b1a5959605a1b6064820152fd5b60ff915060081c1615386102e8565b506003548311156102c2565b8380fd5b5050346101a357816003193601126101a357602090516802b5e3af16b18800008152f35b839150346101a357826003193601126101a35780356024938435926003841015610888578215158061087c575b6104da90611e21565b828552602060058152828620946009860192835460ff811615908161086d575b501561081b57600a8701933360005284845260ff8660002054166107ca5785516370a0823160e01b815233838201527f00000000000000000000000000000000000000000000000000000000000000006001600160a01b0316919085818d81865afa80156107c0578b9061078c575b61057f9150338c5260078752888c205490611d9b565b95861561074a57908a913360005286528760002060ff1990600182825416179055600b8b018752886000208181541660ff881617905560009a6001871460001461072f57600781016105d28a8254611d9b565b90555b6106048a600183015495868152888b522060096105fb6007830154600884015490611d9b565b91015490611d9b565b906008600782015491015481119182610722575b50506106ed575b505050803b156106e95788606060a48c838a5195869485936317e2f08f60e21b8552338a860152840152600e60648401526d616d656e646d656e745f766f746560901b60848401528160448401525af180156106df579089916106c7575b50508451966106b55750855284015233927f0e8510b1cc6d9ef37e0de410257c227d71fa4df7008b0b423c711ead6867f7dd9190a380f35b634e487b7160e01b8852602190528787fd5b6106d090611b55565b6106db57878a61067d565b8780fd5b86513d8b823e3d90fd5b8880fd5b8154166001179055877f32ec2e17a86e8c80f3d334fc8feba6b522c0e9a8b6dd7849e1c2230bfb85094c8b80a38a808061061f565b60011c1090508e80610618565b866105d557600881016107438a8254611d9b565b90556105d5565b875162461bcd60e51b8152808501879052601b818e01527f476f7665726e616e63653a204e6f20766f74696e6720706f77657200000000006044820152606490fd5b508581813d83116107b9575b6107a28183611b69565b810103126107b45761057f9051610569565b600080fd5b503d610798565b88513d8d823e3d90fd5b855162461bcd60e51b81528083018590526026818c01527f476f7665726e616e63653a20416c726561647920766f746564206f6e20616d656044820152651b991b595b9d60d21b6064820152608490fd5b845162461bcd60e51b81529081018390526027818a01527f476f7665726e616e63653a20416d656e646d656e7420616c72656164792070726044820152661bd8d95cdcd95960ca1b6064820152608490fd5b60ff915060081c16158a6104fa565b506003548311156104d1565b8480fd5b5050346101a357806003193601126101a357906080916108aa611c71565b6108b2611c87565b908260018060a01b0394858093168152600660205220911660005260205280600020918254169160018101549160ff6003600284015493015416928151948552602085015283015215156060820152f35b905082346109c257602091826003193601126101a3578035801515806109b6575b61093090959495611d4f565b82528352600c82822001908251808584549182815201908194845286842090845b8181106109a25750505081610967910382611b69565b83519485948186019282875251809352850193925b82811061098b57505050500390f35b83518552869550938101939281019260010161097c565b825484529288019260019283019201610951565b50600254811115610924565b80fd5b8284346109c257602092836003193601126101a357602490846109e6611c71565b85516370a0823160e01b81526001600160a01b0391821693810184905293849182907f0000000000000000000000000000000000000000000000000000000000000000165afa918215610a8d579084918493610a58575b5092610a5193815260078652205490611d9b565b9051908152f35b86809294508193503d8311610a86575b610a728183611b69565b810103126107b45751908390610a51610a3d565b503d610a68565b84513d85823e3d90fd5b5050346101a357816003193601126101a3576020905162093a808152f35b91905034610281578060031936011261028157610ad0611c71565b6001600160a01b0390811692602435929084151580610d2d575b15610ceb57815180936370a0823160e01b8252338383015281602460209687937f0000000000000000000000000000000000000000000000000000000000000000165afa908115610ce1579085918891610cb0575b5010610c70578315610c1d5750907ff5c2b450c3b6c4c3cc8c45e612ffa5ce51cda974e8b2ecaf58abda86d89658479133865260068252808620856000528252838160002060038101805460ff8116600014610bd257505086885260078452610bbb82610bb66001868c2054940193845490611f45565b611d9b565b8789526007855283892055555b519283523392a380f35b909250600191886bffffffffffffffffffffffff60a01b825416178155878382015560024291015560ff191617905584865260078252808620610c16858254611d9b565b9055610bc8565b82608492519162461bcd60e51b8352820152602960248201527f476f7665726e616e63653a204d7573742064656c656761746520706f736974696044820152681d9948185b5bdd5b9d60ba1b6064820152fd5b8280606493519262461bcd60e51b845283015260248201527f476f7665726e616e63653a20496e73756666696369656e742062616c616e63656044820152fd5b809250858092503d8311610cda575b610cc98183611b69565b810103126107b45784905138610b3f565b503d610cbf565b83513d89823e3d90fd5b6020606492519162461bcd60e51b8352820152601c60248201527f476f7665726e616e63653a20496e76616c69642064656c6567617465000000006044820152fd5b5033851415610aea565b8383346101a35760203660031901126101a357610d548335611f52565b9051916008821015610d6857602083838152f35b634e487b7160e01b815260218452602490fd5b5050346101a357816003193601126101a357600154905160089190911c6001600160a01b03168152602090f35b905034610281578260031936011261028157610dc2611cf4565b6001549060ff8216610e0657507f62e78cea01bee320cd4e420270b5ea74000d11b0c9f74754ebdbfc544b05a25891600160209260ff19161760015551338152a180f35b606490602084519162461bcd60e51b8352820152601060248201526f14185d5cd8589b194e881c185d5cd95960821b6044820152fd5b5050346101a357816003193601126101a3576020905168056bc75e2d631000008152f35b83346109c257806003193601126109c257610e79611cf4565b60018054610100600160a81b0319811690915560009060081c6001600160a01b03167f8be0079c531659141344cd1fd0a4f28419497f9722a3daafe3b4186f6b6457e08280a380f35b5050346101a35760203660031901126101a35760209181906001600160a01b03610eea611c71565b168152600a845220549051908152f35b5050346101a357816003193601126101a35760209060ff6001541690519015158152f35b5050346101a35760203660031901126101a35760209181906001600160a01b03610f46611c71565b1681526008845220549051908152f35b9050346102815760208060031936011261047c57610f72611c71565b92338552600682528085209360018060a01b03169384600052825280600020600381019360ff85541615610fed57509060076001610fbb93015493868852528520918254611f45565b9055805460ff19169055337f38091ab52ba6c5114b27db1f6e7b2f9eaca7c42c38b0e96581aeaa5c2a1be00d8380a380f35b606490848085519262461bcd60e51b845283015260248201527f476f7665726e616e63653a204e6f206163746976652064656c65676174696f6e6044820152fd5b5050346101a357816003193601126101a35760209051620151808152f35b905034610281578260031936011261028157611066611cf4565b6001549060ff8216156110a8575060ff1916600155513381527f5db9ee0a495bf2e6ff9c91a7834c1ba4fdd244a5e8aa4e537bd38aeae4b073aa90602090a180f35b606490602084519162461bcd60e51b8352820152601460248201527314185d5cd8589b194e881b9bdd081c185d5cd95960621b6044820152fd5b5050346101a357816003193601126101a357602090516203f4808152f35b5050346101a357816003193601126101a357517f00000000000000000000000000000000000000000000000000000000000000006001600160a01b03168152602090f35b919050346102815760803660031901126102815760249067ffffffffffffffff9082358281116117d05761117b9036908601611c9d565b906044358381116117cc576111939036908701611c9d565b6064358481116106db576111aa9036908801611c9d565b95803595861515806117c0575b6111c090611d4f565b8689526020928284526005858b200154804210159081611796575b50156117495784516370a0823160e01b815233848201527f00000000000000000000000000000000000000000000000000000000000000006001600160a01b0316919085818581865afa801561173f578c90611705575b6802b5e3af16b18800009150106116a85761124c89611f52565b9060088210156116965760018092036116435781600354019889600355898d5260058752878d20918a83558b8484015560028301336bffffffffffffffffffffffff60a01b82541617905589518281116115bb57808f9160038601926112bc826112b68654611ae9565b86611dbe565b8b90601f83116001146115d857916115cd575b50600019600383901b1c191690861b1790555b80518281116115bb57808f89860193611305836112ff8754611ae9565b87611dbe565b8b91601f841160011461155a579261154f575b5050600019600383901b1c191690851b1790555b8b519081116114c957808d91600584019261134b826112b68654611ae9565b8990601f83116001146114e657916114db575b50600019600383901b1c191690841b1790555b600642910155888b52838552600c868c2001805491680100000000000000008310156114c95782018082558210156114b7578b939291899185528685200155338352600b85528583206113c48154611e12565b9055803b15610281576060938360a492885196879586946317e2f08f60e21b865233908601528401526012606484015271185b595b991b595b9d17dc1c9bdc1bdcd85b60721b60848401528160448401525af180156114ad57611472575b509061146c7f9ec2c04083b4c130d4fb66e14030ad89fe6be45a187a6db4faca9d0270bb6648939261145d8351948486958652850190611c31565b90838203908401523397611c31565b0390a480f35b7f9ec2c04083b4c130d4fb66e14030ad89fe6be45a187a6db4faca9d0270bb6648939291976114a361146c92611b55565b9791929350611422565b83513d8a823e3d90fd5b634e487b7160e01b8c5260328552838cfd5b634e487b7160e01b8d5260418652848dfd5b90508d01513861135e565b908f8794508583528b8320925b8c601f198616821061153357505083601f1981161061151a575b505050811b019055611371565b015160001960f88460031b161c1916905538808f61150d565b9294959093858493015181550193019101908f879493926114f3565b015190503880611318565b8581528c8120899550929190601f198516908e5b8282106115a4575050841161158b575b505050811b01905561132c565b015160001960f88460031b161c1916905538808061157e565b8385015186558b979095019493840193018e61156e565b634e487b7160e01b8f5260418852868ffd5b90508c0151386112cf565b908893508e8583528d80842093601f198616915b8282106116225750508411611609575b505050811b0190556112e2565b015160001960f88460031b161c1916905538808e6115fc565b929484849395979892960151815501940192018f90918a959493928f6115ec565b865162461bcd60e51b81528086018790526028818601527f476f7665726e616e63653a2050726f706f73616c206e6f7420696e2061637469604482015267766520737461746560c01b6064820152608490fd5b634e487b7160e01b8c5260218552838cfd5b855162461bcd60e51b81528085018690526032818501527f476f7665726e616e63653a20496e73756666696369656e74204943432062616c604482015271185b98d948199bdc88185b595b991b595b9d60721b6064820152608490fd5b508581813d8311611738575b61171b8183611b69565b81010312611734576802b5e3af16b18800009051611232565b8b80fd5b503d611711565b87513d8e823e3d90fd5b5060239192608494519362461bcd60e51b85528401528201527f476f7665726e616e63653a204e6f7420696e20616d656e646d656e74207065726044820152621a5bd960ea1b6064820152fd5b90506203f48081018091116117ae57421115386111db565b634e487b7160e01b8b5260118452828bfd5b506002548711156111b7565b8680fd5b8580fd5b5050346101a35760203660031901126101a35760209181906001600160a01b036117fc611c71565b1681526009845220549051908152f35b5050346101a35760203660031901126101a35760209181906001600160a01b03611834611c71565b1681526007845220549051908152f35b5050346101a357806003193601126101a35760809181611862611c71565b9161186b611c87565b816060845161187981611b23565b8281528260208201528286820152015260018060a01b0380941682526006602052838383209116825260205220918051916118b383611b23565b83541692838352600181015460208401908152606060ff600360028501549486880195865201541694019315158452825194855251602085015251908301525115156060820152f35b8284346109c25760203660031901126109c257823581526005602052819020805460018201546002830154909491939192906001600160a01b031661194360038301611b8b565b93820161194f90611b8b565b61195b60058401611b8b565b90600684015495600785015493600886015495600901549680519a8b9a8b5260208b01528901526101608060608a0152880161199691611c31565b87810360808901526119a791611c31565b86810360a08801526119b891611c31565b9360c086015260e085015261010084015260ff8116151561012084015260081c60ff1615156101408301520390f35b8284346109c25760203660031901126109c25781908335815283602052209182549160018401611a1690611b8b565b93611a2360028201611b8b565b611a2f60038301611b8b565b93600160a01b6001900390830154169360058301546006840154600785015491600886015493600987015495600a88015497600b01549880519c8d9c8d528c6101a06020819201528d01611a8291611c31565b908c8203908d0152611a9391611c31565b8a810360608c0152611aa491611c31565b9760808a015260a089015260c088015260e087015261010086015261012085015260ff8116151561014085015260081c60ff1615156101608401526101808301520390f35b90600182811c92168015611b19575b6020831014611b0357565b634e487b7160e01b600052602260045260246000fd5b91607f1691611af8565b6080810190811067ffffffffffffffff821117611b3f57604052565b634e487b7160e01b600052604160045260246000fd5b67ffffffffffffffff8111611b3f57604052565b90601f8019910116810190811067ffffffffffffffff821117611b3f57604052565b9060405191826000825492611b9f84611ae9565b908184526001948581169081600014611c0e5750600114611bcb575b5050611bc992500383611b69565b565b9093915060005260209081600020936000915b818310611bf6575050611bc993508201013880611bbb565b85548884018501529485019487945091830191611bde565b915050611bc994506020925060ff191682840152151560051b8201013880611bbb565b919082519283825260005b848110611c5d575050826000602080949584010152601f8019910116010190565b602081830181015184830182015201611c3c565b600435906001600160a01b03821682036107b457565b602435906001600160a01b03821682036107b457565b81601f820112156107b45780359067ffffffffffffffff8211611b3f5760405192611cd2601f8401601f191660200185611b69565b828452602083830101116107b457816000926020809301838601378301015290565b60015460081c6001600160a01b03163303611d0b57565b606460405162461bcd60e51b815260206004820152602060248201527f4f776e61626c653a2063616c6c6572206973206e6f7420746865206f776e65726044820152fd5b15611d5657565b60405162461bcd60e51b815260206004820152601f60248201527f476f7665726e616e63653a20496e76616c69642070726f706f73616c204944006044820152606490fd5b91908201809211611da857565b634e487b7160e01b600052601160045260246000fd5b90601f8111611dcc57505050565b600091825260208220906020601f850160051c83019410611e08575b601f0160051c01915b828110611dfd57505050565b818155600101611df1565b9092508290611de8565b6000198114611da85760010190565b15611e2857565b606460405162461bcd60e51b815260206004820152602060248201527f476f7665726e616e63653a20496e76616c696420616d656e646d656e742049446044820152fd5b90808214611f4157611e7e8154611ae9565b9067ffffffffffffffff8211611b3f578190611e9e826112b68654611ae9565b600090601f8311600114611ed557600092611eca575b50508160011b916000199060031b1c1916179055565b015490503880611eb4565b81526020808220858352818320935090601f1985169083905b828210611f28575050908460019594939210611f0f575b505050811b019055565b015460001960f88460031b161c19169055388080611f05565b8495819295850154815560018091019601940190611eee565b5050565b91908203918211611da857565b611f6d9080151580611f70575b611f6890611d4f565b611f7c565b90565b50600254811115611f5f565b6000908152600460205260408120600a81015460ff8160081c166120f55760ff166120ee5760058101548042106120e9576203f48081018091116120d5574211156120ce5760068101544211156120c757600781015491611fe860088301549260096105fb8587611d9b565b6040516318160ddd60e01b815290916020826004817f00000000000000000000000000000000000000000000000000000000000000006001600160a01b03165afa9182156120ba578192612087575b5060058202918083046005149015171561207357506064900411159182612069575b505061206457600490565b600390565b1190503880612059565b634e487b7160e01b81526011600452602490fd5b9091506020813d82116120b2575b816120a260209383611b69565b810103126101a357519038612037565b3d9150612095565b50604051903d90823e3d90fd5b5050600190565b5050600290565b634e487b7160e01b83526011600452602483fd5b505090565b5050600590565b50505060069056fea264697066735822122064bb0ce23d1859dbd44c8e4ef5a1f85a83544437c3d29041e908c925f0383c3764736f6c63430008130033","opcodes":"PUSH1 0xA0 CALLVALUE PUSH2 0xE6 JUMPI PUSH1 0x1F PUSH2 0x2235 CODESIZE DUP2 SWAP1 SUB SWAP2 DUP3 ADD PUSH1 0x1F NOT AND DUP4 ADD SWAP2 PUSH1 0x1 PUSH1 0x1 PUSH1 0x40 SHL SUB DUP4 GT DUP5 DUP5 LT OR PUSH2 0xEB JUMPI DUP1 DUP5 SWAP3 PUSH1 0x20 SWAP5 PUSH1 0x40 MSTORE DUP4 CODECOPY DUP2 ADD SUB SLT PUSH2 0xE6 JUMPI MLOAD PUSH1 0x1 PUSH1 0x1 PUSH1 0xA0 SHL SUB SWAP1 DUP2 DUP2 AND SWAP1 DUP2 SWAP1 SUB PUSH2 0xE6 JUMPI PUSH1 0x1 PUSH1 0x0 DUP2 DUP2 SSTORE DUP2 SLOAD PUSH1 0x1 PUSH1 0x1 PUSH1 0xA8 SHL SUB NOT DUP2 AND CALLER PUSH1 0x8 DUP2 DUP2 SHL PUSH2 0x100 PUSH1 0x1 PUSH1 0xA8 SHL SUB AND SWAP3 SWAP1 SWAP3 OR SWAP1 SWAP5 SSTORE PUSH1 0x40 MLOAD SWAP6 SWAP2 SWAP1 SHR AND SWAP1 PUSH32 0x8BE0079C531659141344CD1FD0A4F28419497F9722A3DAAFE3B4186F6B6457E0 SWAP1 DUP1 LOG3 PUSH1 0x80 MSTORE PUSH2 0x2133 SWAP1 DUP2 PUSH2 0x102 DUP3 CODECOPY PUSH1 0x80 MLOAD DUP2 DUP2 DUP2 PUSH2 0x52B ADD MSTORE DUP2 DUP2 PUSH2 0xA0A ADD MSTORE DUP2 DUP2 PUSH2 0xB0C ADD MSTORE DUP2 DUP2 PUSH2 0x1115 ADD MSTORE DUP2 DUP2 PUSH2 0x11F4 ADD MSTORE PUSH2 0x1FFF ADD MSTORE RETURN JUMPDEST PUSH1 0x0 DUP1 REVERT JUMPDEST PUSH4 0x4E487B71 PUSH1 0xE0 SHL PUSH1 0x0 MSTORE PUSH1 0x41 PUSH1 0x4 MSTORE PUSH1 0x24 PUSH1 0x0 REVERT INVALID PUSH1 0x40 PUSH1 0x80 DUP2 MSTORE PUSH1 0x4 SWAP1 DUP2 CALLDATASIZE LT ISZERO PUSH2 0x15 JUMPI PUSH1 0x0 DUP1 REVERT JUMPDEST PUSH1 0x0 SWAP2 DUP3 CALLDATALOAD PUSH1 0xE0 SHR SWAP1 DUP2 PUSH4 0x13CF08B EQ PUSH2 0x19E7 JUMPI DUP2 PUSH4 0x13E8CC39 EQ PUSH2 0x18FC JUMPI DUP2 PUSH4 0x15049A5A EQ PUSH2 0x1844 JUMPI DUP2 PUSH4 0x169DF064 EQ PUSH2 0x180C JUMPI DUP2 PUSH4 0x211603C6 EQ PUSH2 0x17D4 JUMPI DUP2 PUSH4 0x2D5E60B0 EQ PUSH2 0x1144 JUMPI DUP2 PUSH4 0x31DE8807 EQ PUSH2 0x1100 JUMPI DUP2 PUSH4 0x333C69A7 EQ PUSH2 0x10E2 JUMPI DUP2 PUSH4 0x3F4BA83A EQ PUSH2 0x104C JUMPI DUP2 PUSH4 0x467F67F9 EQ PUSH2 0x102E JUMPI DUP2 PUSH4 0x4E60E4F0 EQ PUSH2 0xF56 JUMPI DUP2 PUSH4 0x5B7AD578 EQ PUSH2 0xF1E JUMPI DUP2 PUSH4 0x5C975ABB EQ PUSH2 0xEFA JUMPI DUP2 PUSH4 0x713CDAA8 EQ PUSH2 0xEC2 JUMPI DUP2 PUSH4 0x715018A6 EQ PUSH2 0xE60 JUMPI DUP2 PUSH4 0x791F5D23 EQ PUSH2 0xE3C JUMPI DUP2 PUSH4 0x8456CB59 EQ PUSH2 0xDA8 JUMPI DUP2 PUSH4 0x8DA5CB5B EQ PUSH2 0xD7B JUMPI DUP2 PUSH4 0x9080936F EQ PUSH2 0xD37 JUMPI DUP2 PUSH4 0x926F7327 EQ PUSH2 0xAB5 JUMPI DUP2 PUSH4 0xA438D208 EQ PUSH2 0xA97 JUMPI DUP2 PUSH4 0xBB4D4436 EQ PUSH2 0x9C5 JUMPI DUP2 PUSH4 0xC13C3124 EQ PUSH2 0x903 JUMPI DUP2 PUSH4 0xC64814DD EQ PUSH2 0x88C JUMPI DUP2 PUSH4 0xD1CBF969 EQ PUSH2 0x4A4 JUMPI DUP2 PUSH4 0xD7C0270D EQ PUSH2 0x480 JUMPI DUP2 PUSH4 0xDF88543B EQ PUSH2 0x2A1 JUMPI DUP2 PUSH4 0xEE8A7C15 EQ PUSH2 0x285 JUMPI DUP2 PUSH4 0xF2FDE38B EQ PUSH2 0x1A7 JUMPI POP PUSH4 0xF496C686 EQ PUSH2 0x16D JUMPI PUSH1 0x0 DUP1 REVERT JUMPDEST CALLVALUE PUSH2 0x1A3 JUMPI PUSH1 0x20 CALLDATASIZE PUSH1 0x3 NOT ADD SLT PUSH2 0x1A3 JUMPI PUSH1 0x20 SWAP2 DUP2 SWAP1 PUSH1 0x1 PUSH1 0x1 PUSH1 0xA0 SHL SUB PUSH2 0x193 PUSH2 0x1C71 JUMP JUMPDEST AND DUP2 MSTORE PUSH1 0xB DUP5 MSTORE KECCAK256 SLOAD SWAP1 MLOAD SWAP1 DUP2 MSTORE RETURN JUMPDEST POP DUP1 REVERT JUMPDEST SWAP1 POP CALLVALUE PUSH2 0x281 JUMPI PUSH1 0x20 CALLDATASIZE PUSH1 0x3 NOT ADD SLT PUSH2 0x281 JUMPI PUSH2 0x1C2 PUSH2 0x1C71 JUMP JUMPDEST PUSH2 0x1CA PUSH2 0x1CF4 JUMP JUMPDEST PUSH1 0x1 PUSH1 0x1 PUSH1 0xA0 SHL SUB DUP2 DUP2 AND SWAP4 SWAP1 SWAP3 SWAP1 DUP5 ISZERO PUSH2 0x22F JUMPI POP POP PUSH1 0x1 DUP1 SLOAD PUSH2 0x100 PUSH1 0x1 PUSH1 0xA8 SHL SUB NOT DUP2 AND PUSH1 0x8 SWAP4 DUP5 SHL PUSH2 0x100 PUSH1 0x1 PUSH1 0xA8 SHL SUB AND OR SWAP1 SWAP2 SSTORE SWAP1 SHR AND PUSH32 0x8BE0079C531659141344CD1FD0A4F28419497F9722A3DAAFE3B4186F6B6457E0 PUSH1 0x0 DUP1 LOG3 DUP1 RETURN JUMPDEST SWAP1 PUSH1 0x20 PUSH1 0x84 SWAP3 MLOAD SWAP2 PUSH3 0x461BCD PUSH1 0xE5 SHL DUP4 MSTORE DUP3 ADD MSTORE PUSH1 0x26 PUSH1 0x24 DUP3 ADD MSTORE PUSH32 0x4F776E61626C653A206E6577206F776E657220697320746865207A65726F2061 PUSH1 0x44 DUP3 ADD MSTORE PUSH6 0x646472657373 PUSH1 0xD0 SHL PUSH1 0x64 DUP3 ADD MSTORE REVERT JUMPDEST DUP3 DUP1 REVERT JUMPDEST POP POP CALLVALUE PUSH2 0x1A3 JUMPI DUP2 PUSH1 0x3 NOT CALLDATASIZE ADD SLT PUSH2 0x1A3 JUMPI PUSH1 0x20 SWAP1 MLOAD PUSH1 0x5 DUP2 MSTORE RETURN JUMPDEST SWAP2 SWAP1 POP CALLVALUE PUSH2 0x281 JUMPI PUSH1 0x20 DUP1 PUSH1 0x3 NOT CALLDATASIZE ADD SLT PUSH2 0x47C JUMPI DUP3 CALLDATALOAD SWAP2 DUP3 ISZERO ISZERO DUP1 PUSH2 0x470 JUMPI JUMPDEST PUSH2 0x2CB SWAP1 PUSH2 0x1E21 JUMP JUMPDEST DUP3 DUP6 MSTORE PUSH1 0x5 DUP3 MSTORE DUP1 DUP6 KECCAK256 SWAP4 PUSH1 0x9 DUP6 ADD SWAP5 DUP6 SLOAD PUSH1 0xFF DUP2 AND SWAP1 DUP2 PUSH2 0x461 JUMPI JUMPDEST POP ISZERO PUSH2 0x401 JUMPI PUSH1 0x1 DUP2 ADD SWAP2 DUP3 SLOAD DUP9 MSTORE DUP1 DUP6 MSTORE DUP4 DUP9 KECCAK256 SWAP2 PUSH1 0x1 DUP1 PUSH1 0xA0 SHL SUB DUP1 DUP4 DUP6 ADD SLOAD AND CALLER EQ SWAP1 DUP2 ISZERO PUSH2 0x3F1 JUMPI JUMPDEST POP ISZERO PUSH2 0x388 JUMPI SWAP2 PUSH2 0x361 PUSH1 0xB SWAP3 DUP5 PUSH2 0x357 PUSH1 0x3 PUSH32 0xF309AA0F24A1A2D5C0E59C021FB20C806730C281DD69887C3A1FEFC0763A09C8 SWAP11 SWAP10 SWAP9 SWAP8 ADD PUSH1 0x1 DUP7 ADD PUSH2 0x1E6C JUMP JUMPDEST ADD PUSH1 0x2 DUP4 ADD PUSH2 0x1E6C JUMP JUMPDEST ADD SWAP6 PUSH2 0x36D DUP8 SLOAD PUSH2 0x1E12 JUMP JUMPDEST DUP8 SSTORE DUP1 SLOAD PUSH2 0xFF00 NOT AND PUSH2 0x100 OR SWAP1 SSTORE SLOAD SWAP5 SLOAD SWAP1 MLOAD SWAP1 DUP2 MSTORE LOG3 DUP1 RETURN JUMPDEST DUP5 MLOAD PUSH3 0x461BCD PUSH1 0xE5 SHL DUP2 MSTORE DUP1 DUP4 ADD DUP8 SWAP1 MSTORE PUSH1 0x39 PUSH1 0x24 DUP3 ADD MSTORE PUSH32 0x476F7665726E616E63653A204F6E6C792070726F706F73616C206F7220616D65 PUSH1 0x44 DUP3 ADD MSTORE PUSH32 0x6E646D656E742070726F706F7365722063616E206170706C7900000000000000 PUSH1 0x64 DUP3 ADD MSTORE PUSH1 0x84 SWAP1 REVERT JUMPDEST SWAP1 POP PUSH1 0x2 DUP3 ADD SLOAD AND CALLER EQ CODESIZE PUSH2 0x315 JUMP JUMPDEST POP DUP3 PUSH1 0x84 SWAP3 MLOAD SWAP2 PUSH3 0x461BCD PUSH1 0xE5 SHL DUP4 MSTORE DUP3 ADD MSTORE PUSH1 0x35 PUSH1 0x24 DUP3 ADD MSTORE PUSH32 0x476F7665726E616E63653A20416D656E646D656E74206E6F7420617070726F76 PUSH1 0x44 DUP3 ADD MSTORE PUSH21 0x1959081BDC88185B1C9958591E48185C1C1B1A5959 PUSH1 0x5A SHL PUSH1 0x64 DUP3 ADD MSTORE REVERT JUMPDEST PUSH1 0xFF SWAP2 POP PUSH1 0x8 SHR AND ISZERO CODESIZE PUSH2 0x2E8 JUMP JUMPDEST POP PUSH1 0x3 SLOAD DUP4 GT ISZERO PUSH2 0x2C2 JUMP JUMPDEST DUP4 DUP1 REVERT JUMPDEST POP POP CALLVALUE PUSH2 0x1A3 JUMPI DUP2 PUSH1 0x3 NOT CALLDATASIZE ADD SLT PUSH2 0x1A3 JUMPI PUSH1 0x20 SWAP1 MLOAD PUSH9 0x2B5E3AF16B1880000 DUP2 MSTORE RETURN JUMPDEST DUP4 SWAP2 POP CALLVALUE PUSH2 0x1A3 JUMPI DUP3 PUSH1 0x3 NOT CALLDATASIZE ADD SLT PUSH2 0x1A3 JUMPI DUP1 CALLDATALOAD PUSH1 0x24 SWAP4 DUP5 CALLDATALOAD SWAP3 PUSH1 0x3 DUP5 LT ISZERO PUSH2 0x888 JUMPI DUP3 ISZERO ISZERO DUP1 PUSH2 0x87C JUMPI JUMPDEST PUSH2 0x4DA SWAP1 PUSH2 0x1E21 JUMP JUMPDEST DUP3 DUP6 MSTORE PUSH1 0x20 PUSH1 0x5 DUP2 MSTORE DUP3 DUP7 KECCAK256 SWAP5 PUSH1 0x9 DUP7 ADD SWAP3 DUP4 SLOAD PUSH1 0xFF DUP2 AND ISZERO SWAP1 DUP2 PUSH2 0x86D JUMPI JUMPDEST POP ISZERO PUSH2 0x81B JUMPI PUSH1 0xA DUP8 ADD SWAP4 CALLER PUSH1 0x0 MSTORE DUP5 DUP5 MSTORE PUSH1 0xFF DUP7 PUSH1 0x0 KECCAK256 SLOAD AND PUSH2 0x7CA JUMPI DUP6 MLOAD PUSH4 0x70A08231 PUSH1 0xE0 SHL DUP2 MSTORE CALLER DUP4 DUP3 ADD MSTORE PUSH32 0x0 PUSH1 0x1 PUSH1 0x1 PUSH1 0xA0 SHL SUB AND SWAP2 SWAP1 DUP6 DUP2 DUP14 DUP2 DUP7 GAS STATICCALL DUP1 ISZERO PUSH2 0x7C0 JUMPI DUP12 SWAP1 PUSH2 0x78C JUMPI JUMPDEST PUSH2 0x57F SWAP2 POP CALLER DUP13 MSTORE PUSH1 0x7 DUP8 MSTORE DUP9 DUP13 KECCAK256 SLOAD SWAP1 PUSH2 0x1D9B JUMP JUMPDEST SWAP6 DUP7 ISZERO PUSH2 0x74A JUMPI SWAP1 DUP11 SWAP2 CALLER PUSH1 0x0 MSTORE DUP7 MSTORE DUP8 PUSH1 0x0 KECCAK256 PUSH1 0xFF NOT SWAP1 PUSH1 0x1 DUP3 DUP3 SLOAD AND OR SWAP1 SSTORE PUSH1 0xB DUP12 ADD DUP8 MSTORE DUP9 PUSH1 0x0 KECCAK256 DUP2 DUP2 SLOAD AND PUSH1 0xFF DUP9 AND OR SWAP1 SSTORE PUSH1 0x0 SWAP11 PUSH1 0x1 DUP8 EQ PUSH1 0x0 EQ PUSH2 0x72F JUMPI PUSH1 0x7 DUP2 ADD PUSH2 0x5D2 DUP11 DUP3 SLOAD PUSH2 0x1D9B JUMP JUMPDEST SWAP1 SSTORE JUMPDEST PUSH2 0x604 DUP11 PUSH1 0x1 DUP4 ADD SLOAD SWAP6 DUP7 DUP2 MSTORE DUP9 DUP12 MSTORE KECCAK256 PUSH1 0x9 PUSH2 0x5FB PUSH1 0x7 DUP4 ADD SLOAD PUSH1 0x8 DUP5 ADD SLOAD SWAP1 PUSH2 0x1D9B JUMP JUMPDEST SWAP2 ADD SLOAD SWAP1 PUSH2 0x1D9B JUMP JUMPDEST SWAP1 PUSH1 0x8 PUSH1 0x7 DUP3 ADD SLOAD SWAP2 ADD SLOAD DUP2 GT SWAP2 DUP3 PUSH2 0x722 JUMPI JUMPDEST POP POP PUSH2 0x6ED JUMPI JUMPDEST POP POP POP DUP1 EXTCODESIZE ISZERO PUSH2 0x6E9 JUMPI DUP9 PUSH1 0x60 PUSH1 0xA4 DUP13 DUP4 DUP11 MLOAD SWAP6 DUP7 SWAP5 DUP6 SWAP4 PUSH4 0x17E2F08F PUSH1 0xE2 SHL DUP6 MSTORE CALLER DUP11 DUP7 ADD MSTORE DUP5 ADD MSTORE PUSH1 0xE PUSH1 0x64 DUP5 ADD MSTORE PUSH14 0x616D656E646D656E745F766F7465 PUSH1 0x90 SHL PUSH1 0x84 DUP5 ADD MSTORE DUP2 PUSH1 0x44 DUP5 ADD MSTORE GAS CALL DUP1 ISZERO PUSH2 0x6DF JUMPI SWAP1 DUP10 SWAP2 PUSH2 0x6C7 JUMPI JUMPDEST POP POP DUP5 MLOAD SWAP7 PUSH2 0x6B5 JUMPI POP DUP6 MSTORE DUP5 ADD MSTORE CALLER SWAP3 PUSH32 0xE8510B1CC6D9EF37E0DE410257C227D71FA4DF7008B0B423C711EAD6867F7DD SWAP2 SWAP1 LOG3 DUP1 RETURN JUMPDEST PUSH4 0x4E487B71 PUSH1 0xE0 SHL DUP9 MSTORE PUSH1 0x21 SWAP1 MSTORE DUP8 DUP8 REVERT JUMPDEST PUSH2 0x6D0 SWAP1 PUSH2 0x1B55 JUMP JUMPDEST PUSH2 0x6DB JUMPI DUP8 DUP11 PUSH2 0x67D JUMP JUMPDEST DUP8 DUP1 REVERT JUMPDEST DUP7 MLOAD RETURNDATASIZE DUP12 DUP3 RETURNDATACOPY RETURNDATASIZE SWAP1 REVERT JUMPDEST DUP9 DUP1 REVERT JUMPDEST DUP2 SLOAD AND PUSH1 0x1 OR SWAP1 SSTORE DUP8 PUSH32 0x32EC2E17A86E8C80F3D334FC8FEBA6B522C0E9A8B6DD7849E1C2230BFB85094C DUP12 DUP1 LOG3 DUP11 DUP1 DUP1 PUSH2 0x61F JUMP JUMPDEST PUSH1 0x1 SHR LT SWAP1 POP DUP15 DUP1 PUSH2 0x618 JUMP JUMPDEST DUP7 PUSH2 0x5D5 JUMPI PUSH1 0x8 DUP2 ADD PUSH2 0x743 DUP11 DUP3 SLOAD PUSH2 0x1D9B JUMP JUMPDEST SWAP1 SSTORE PUSH2 0x5D5 JUMP JUMPDEST DUP8 MLOAD PUSH3 0x461BCD PUSH1 0xE5 SHL DUP2 MSTORE DUP1 DUP6 ADD DUP8 SWAP1 MSTORE PUSH1 0x1B DUP2 DUP15 ADD MSTORE PUSH32 0x476F7665726E616E63653A204E6F20766F74696E6720706F7765720000000000 PUSH1 0x44 DUP3 ADD MSTORE PUSH1 0x64 SWAP1 REVERT JUMPDEST POP DUP6 DUP2 DUP2 RETURNDATASIZE DUP4 GT PUSH2 0x7B9 JUMPI JUMPDEST PUSH2 0x7A2 DUP2 DUP4 PUSH2 0x1B69 JUMP JUMPDEST DUP2 ADD SUB SLT PUSH2 0x7B4 JUMPI PUSH2 0x57F SWAP1 MLOAD PUSH2 0x569 JUMP JUMPDEST PUSH1 0x0 DUP1 REVERT JUMPDEST POP RETURNDATASIZE PUSH2 0x798 JUMP JUMPDEST DUP9 MLOAD RETURNDATASIZE DUP14 DUP3 RETURNDATACOPY RETURNDATASIZE SWAP1 REVERT JUMPDEST DUP6 MLOAD PUSH3 0x461BCD PUSH1 0xE5 SHL DUP2 MSTORE DUP1 DUP4 ADD DUP6 SWAP1 MSTORE PUSH1 0x26 DUP2 DUP13 ADD MSTORE PUSH32 0x476F7665726E616E63653A20416C726561647920766F746564206F6E20616D65 PUSH1 0x44 DUP3 ADD MSTORE PUSH6 0x1B991B595B9D PUSH1 0xD2 SHL PUSH1 0x64 DUP3 ADD MSTORE PUSH1 0x84 SWAP1 REVERT JUMPDEST DUP5 MLOAD PUSH3 0x461BCD PUSH1 0xE5 SHL DUP2 MSTORE SWAP1 DUP2 ADD DUP4 SWAP1 MSTORE PUSH1 0x27 DUP2 DUP11 ADD MSTORE PUSH32 0x476F7665726E616E63653A20416D656E646D656E7420616C7265616479207072 PUSH1 0x44 DUP3 ADD MSTORE PUSH7 0x1BD8D95CDCD959 PUSH1 0xCA SHL PUSH1 0x64 DUP3 ADD MSTORE PUSH1 0x84 SWAP1 REVERT JUMPDEST PUSH1 0xFF SWAP2 POP PUSH1 0x8 SHR AND ISZERO DUP11 PUSH2 0x4FA JUMP JUMPDEST POP PUSH1 0x3 SLOAD DUP4 GT ISZERO PUSH2 0x4D1 JUMP JUMPDEST DUP5 DUP1 REVERT JUMPDEST POP POP CALLVALUE PUSH2 0x1A3 JUMPI DUP1 PUSH1 0x3 NOT CALLDATASIZE ADD SLT PUSH2 0x1A3 JUMPI SWAP1 PUSH1 0x80 SWAP2 PUSH2 0x8AA PUSH2 0x1C71 JUMP JUMPDEST PUSH2 0x8B2 PUSH2 0x1C87 JUMP JUMPDEST SWAP1 DUP3 PUSH1 0x1 DUP1 PUSH1 0xA0 SHL SUB SWAP5 DUP6 DUP1 SWAP4 AND DUP2 MSTORE PUSH1 0x6 PUSH1 0x20 MSTORE KECCAK256 SWAP2 AND PUSH1 0x0 MSTORE PUSH1 0x20 MSTORE DUP1 PUSH1 0x0 KECCAK256 SWAP2 DUP3 SLOAD AND SWAP2 PUSH1 0x1 DUP2 ADD SLOAD SWAP2 PUSH1 0xFF PUSH1 0x3 PUSH1 0x2 DUP5 ADD SLOAD SWAP4 ADD SLOAD AND SWAP3 DUP2 MLOAD SWAP5 DUP6 MSTORE PUSH1 0x20 DUP6 ADD MSTORE DUP4 ADD MSTORE ISZERO ISZERO PUSH1 0x60 DUP3 ADD MSTORE RETURN JUMPDEST SWAP1 POP DUP3 CALLVALUE PUSH2 0x9C2 JUMPI PUSH1 0x20 SWAP2 DUP3 PUSH1 0x3 NOT CALLDATASIZE ADD SLT PUSH2 0x1A3 JUMPI DUP1 CALLDATALOAD DUP1 ISZERO ISZERO DUP1 PUSH2 0x9B6 JUMPI JUMPDEST PUSH2 0x930 SWAP1 SWAP6 SWAP5 SWAP6 PUSH2 0x1D4F JUMP JUMPDEST DUP3 MSTORE DUP4 MSTORE PUSH1 0xC DUP3 DUP3 KECCAK256 ADD SWAP1 DUP3 MLOAD DUP1 DUP6 DUP5 SLOAD SWAP2 DUP3 DUP2 MSTORE ADD SWAP1 DUP2 SWAP5 DUP5 MSTORE DUP7 DUP5 KECCAK256 SWAP1 DUP5 JUMPDEST DUP2 DUP2 LT PUSH2 0x9A2 JUMPI POP POP POP DUP2 PUSH2 0x967 SWAP2 SUB DUP3 PUSH2 0x1B69 JUMP JUMPDEST DUP4 MLOAD SWAP5 DUP6 SWAP5 DUP2 DUP7 ADD SWAP3 DUP3 DUP8 MSTORE MLOAD DUP1 SWAP4 MSTORE DUP6 ADD SWAP4 SWAP3 JUMPDEST DUP3 DUP2 LT PUSH2 0x98B JUMPI POP POP POP POP SUB SWAP1 RETURN JUMPDEST DUP4 MLOAD DUP6 MSTORE DUP7 SWAP6 POP SWAP4 DUP2 ADD SWAP4 SWAP3 DUP2 ADD SWAP3 PUSH1 0x1 ADD PUSH2 0x97C JUMP JUMPDEST DUP3 SLOAD DUP5 MSTORE SWAP3 DUP9 ADD SWAP3 PUSH1 0x1 SWAP3 DUP4 ADD SWAP3 ADD PUSH2 0x951 JUMP JUMPDEST POP PUSH1 0x2 SLOAD DUP2 GT ISZERO PUSH2 0x924 JUMP JUMPDEST DUP1 REVERT JUMPDEST DUP3 DUP5 CALLVALUE PUSH2 0x9C2 JUMPI PUSH1 0x20 SWAP3 DUP4 PUSH1 0x3 NOT CALLDATASIZE ADD SLT PUSH2 0x1A3 JUMPI PUSH1 0x24 SWAP1 DUP5 PUSH2 0x9E6 PUSH2 0x1C71 JUMP JUMPDEST DUP6 MLOAD PUSH4 0x70A08231 PUSH1 0xE0 SHL DUP2 MSTORE PUSH1 0x1 PUSH1 0x1 PUSH1 0xA0 SHL SUB SWAP2 DUP3 AND SWAP4 DUP2 ADD DUP5 SWAP1 MSTORE SWAP4 DUP5 SWAP2 DUP3 SWAP1 PUSH32 0x0 AND GAS STATICCALL SWAP2 DUP3 ISZERO PUSH2 0xA8D JUMPI SWAP1 DUP5 SWAP2 DUP5 SWAP4 PUSH2 0xA58 JUMPI JUMPDEST POP SWAP3 PUSH2 0xA51 SWAP4 DUP2 MSTORE PUSH1 0x7 DUP7 MSTORE KECCAK256 SLOAD SWAP1 PUSH2 0x1D9B JUMP JUMPDEST SWAP1 MLOAD SWAP1 DUP2 MSTORE RETURN JUMPDEST DUP7 DUP1 SWAP3 SWAP5 POP DUP2 SWAP4 POP RETURNDATASIZE DUP4 GT PUSH2 0xA86 JUMPI JUMPDEST PUSH2 0xA72 DUP2 DUP4 PUSH2 0x1B69 JUMP JUMPDEST DUP2 ADD SUB SLT PUSH2 0x7B4 JUMPI MLOAD SWAP1 DUP4 SWAP1 PUSH2 0xA51 PUSH2 0xA3D JUMP JUMPDEST POP RETURNDATASIZE PUSH2 0xA68 JUMP JUMPDEST DUP5 MLOAD RETURNDATASIZE DUP6 DUP3 RETURNDATACOPY RETURNDATASIZE SWAP1 REVERT JUMPDEST POP POP CALLVALUE PUSH2 0x1A3 JUMPI DUP2 PUSH1 0x3 NOT CALLDATASIZE ADD SLT PUSH2 0x1A3 JUMPI PUSH1 0x20 SWAP1 MLOAD PUSH3 0x93A80 DUP2 MSTORE RETURN JUMPDEST SWAP2 SWAP1 POP CALLVALUE PUSH2 0x281 JUMPI DUP1 PUSH1 0x3 NOT CALLDATASIZE ADD SLT PUSH2 0x281 JUMPI PUSH2 0xAD0 PUSH2 0x1C71 JUMP JUMPDEST PUSH1 0x1 PUSH1 0x1 PUSH1 0xA0 SHL SUB SWAP1 DUP2 AND SWAP3 PUSH1 0x24 CALLDATALOAD SWAP3 SWAP1 DUP5 ISZERO ISZERO DUP1 PUSH2 0xD2D JUMPI JUMPDEST ISZERO PUSH2 0xCEB JUMPI DUP2 MLOAD DUP1 SWAP4 PUSH4 0x70A08231 PUSH1 0xE0 SHL DUP3 MSTORE CALLER DUP4 DUP4 ADD MSTORE DUP2 PUSH1 0x24 PUSH1 0x20 SWAP7 DUP8 SWAP4 PUSH32 0x0 AND GAS STATICCALL SWAP1 DUP2 ISZERO PUSH2 0xCE1 JUMPI SWAP1 DUP6 SWAP2 DUP9 SWAP2 PUSH2 0xCB0 JUMPI JUMPDEST POP LT PUSH2 0xC70 JUMPI DUP4 ISZERO PUSH2 0xC1D JUMPI POP SWAP1 PUSH32 0xF5C2B450C3B6C4C3CC8C45E612FFA5CE51CDA974E8B2ECAF58ABDA86D8965847 SWAP2 CALLER DUP7 MSTORE PUSH1 0x6 DUP3 MSTORE DUP1 DUP7 KECCAK256 DUP6 PUSH1 0x0 MSTORE DUP3 MSTORE DUP4 DUP2 PUSH1 0x0 KECCAK256 PUSH1 0x3 DUP2 ADD DUP1 SLOAD PUSH1 0xFF DUP2 AND PUSH1 0x0 EQ PUSH2 0xBD2 JUMPI POP POP DUP7 DUP9 MSTORE PUSH1 0x7 DUP5 MSTORE PUSH2 0xBBB DUP3 PUSH2 0xBB6 PUSH1 0x1 DUP7 DUP13 KECCAK256 SLOAD SWAP5 ADD SWAP4 DUP5 SLOAD SWAP1 PUSH2 0x1F45 JUMP JUMPDEST PUSH2 0x1D9B JUMP JUMPDEST DUP8 DUP10 MSTORE PUSH1 0x7 DUP6 MSTORE DUP4 DUP10 KECCAK256 SSTORE SSTORE JUMPDEST MLOAD SWAP3 DUP4 MSTORE CALLER SWAP3 LOG3 DUP1 RETURN JUMPDEST SWAP1 SWAP3 POP PUSH1 0x1 SWAP2 DUP9 PUSH12 0xFFFFFFFFFFFFFFFFFFFFFFFF PUSH1 0xA0 SHL DUP3 SLOAD AND OR DUP2 SSTORE DUP8 DUP4 DUP3 ADD SSTORE PUSH1 0x2 TIMESTAMP SWAP2 ADD SSTORE PUSH1 0xFF NOT AND OR SWAP1 SSTORE DUP5 DUP7 MSTORE PUSH1 0x7 DUP3 MSTORE DUP1 DUP7 KECCAK256 PUSH2 0xC16 DUP6 DUP3 SLOAD PUSH2 0x1D9B JUMP JUMPDEST SWAP1 SSTORE PUSH2 0xBC8 JUMP JUMPDEST DUP3 PUSH1 0x84 SWAP3 MLOAD SWAP2 PUSH3 0x461BCD PUSH1 0xE5 SHL DUP4 MSTORE DUP3 ADD MSTORE PUSH1 0x29 PUSH1 0x24 DUP3 ADD MSTORE PUSH32 0x476F7665726E616E63653A204D7573742064656C656761746520706F73697469 PUSH1 0x44 DUP3 ADD MSTORE PUSH9 0x1D9948185B5BDD5B9D PUSH1 0xBA SHL PUSH1 0x64 DUP3 ADD MSTORE REVERT JUMPDEST DUP3 DUP1 PUSH1 0x64 SWAP4 MLOAD SWAP3 PUSH3 0x461BCD PUSH1 0xE5 SHL DUP5 MSTORE DUP4 ADD MSTORE PUSH1 0x24 DUP3 ADD MSTORE PUSH32 0x476F7665726E616E63653A20496E73756666696369656E742062616C616E6365 PUSH1 0x44 DUP3 ADD MSTORE REVERT JUMPDEST DUP1 SWAP3 POP DUP6 DUP1 SWAP3 POP RETURNDATASIZE DUP4 GT PUSH2 0xCDA JUMPI JUMPDEST PUSH2 0xCC9 DUP2 DUP4 PUSH2 0x1B69 JUMP JUMPDEST DUP2 ADD SUB SLT PUSH2 0x7B4 JUMPI DUP5 SWAP1 MLOAD CODESIZE PUSH2 0xB3F JUMP JUMPDEST POP RETURNDATASIZE PUSH2 0xCBF JUMP JUMPDEST DUP4 MLOAD RETURNDATASIZE DUP10 DUP3 RETURNDATACOPY RETURNDATASIZE SWAP1 REVERT JUMPDEST PUSH1 0x20 PUSH1 0x64 SWAP3 MLOAD SWAP2 PUSH3 0x461BCD PUSH1 0xE5 SHL DUP4 MSTORE DUP3 ADD MSTORE PUSH1 0x1C PUSH1 0x24 DUP3 ADD MSTORE PUSH32 0x476F7665726E616E63653A20496E76616C69642064656C656761746500000000 PUSH1 0x44 DUP3 ADD MSTORE REVERT JUMPDEST POP CALLER DUP6 EQ ISZERO PUSH2 0xAEA JUMP JUMPDEST DUP4 DUP4 CALLVALUE PUSH2 0x1A3 JUMPI PUSH1 0x20 CALLDATASIZE PUSH1 0x3 NOT ADD SLT PUSH2 0x1A3 JUMPI PUSH2 0xD54 DUP4 CALLDATALOAD PUSH2 0x1F52 JUMP JUMPDEST SWAP1 MLOAD SWAP2 PUSH1 0x8 DUP3 LT ISZERO PUSH2 0xD68 JUMPI PUSH1 0x20 DUP4 DUP4 DUP2 MSTORE RETURN JUMPDEST PUSH4 0x4E487B71 PUSH1 0xE0 SHL DUP2 MSTORE PUSH1 0x21 DUP5 MSTORE PUSH1 0x24 SWAP1 REVERT JUMPDEST POP POP CALLVALUE PUSH2 0x1A3 JUMPI DUP2 PUSH1 0x3 NOT CALLDATASIZE ADD SLT PUSH2 0x1A3 JUMPI PUSH1 0x1 SLOAD SWAP1 MLOAD PUSH1 0x8 SWAP2 SWAP1 SWAP2 SHR PUSH1 0x1 PUSH1 0x1 PUSH1 0xA0 SHL SUB AND DUP2 MSTORE PUSH1 0x20 SWAP1 RETURN JUMPDEST SWAP1 POP CALLVALUE PUSH2 0x281 JUMPI DUP3 PUSH1 0x3 NOT CALLDATASIZE ADD SLT PUSH2 0x281 JUMPI PUSH2 0xDC2 PUSH2 0x1CF4 JUMP JUMPDEST PUSH1 0x1 SLOAD SWAP1 PUSH1 0xFF DUP3 AND PUSH2 0xE06 JUMPI POP PUSH32 0x62E78CEA01BEE320CD4E420270B5EA74000D11B0C9F74754EBDBFC544B05A258 SWAP2 PUSH1 0x1 PUSH1 0x20 SWAP3 PUSH1 0xFF NOT AND OR PUSH1 0x1 SSTORE MLOAD CALLER DUP2 MSTORE LOG1 DUP1 RETURN JUMPDEST PUSH1 0x64 SWAP1 PUSH1 0x20 DUP5 MLOAD SWAP2 PUSH3 0x461BCD PUSH1 0xE5 SHL DUP4 MSTORE DUP3 ADD MSTORE PUSH1 0x10 PUSH1 0x24 DUP3 ADD MSTORE PUSH16 0x14185D5CD8589B194E881C185D5CD959 PUSH1 0x82 SHL PUSH1 0x44 DUP3 ADD MSTORE REVERT JUMPDEST POP POP CALLVALUE PUSH2 0x1A3 JUMPI DUP2 PUSH1 0x3 NOT CALLDATASIZE ADD SLT PUSH2 0x1A3 JUMPI PUSH1 0x20 SWAP1 MLOAD PUSH9 0x56BC75E2D63100000 DUP2 MSTORE RETURN JUMPDEST DUP4 CALLVALUE PUSH2 0x9C2 JUMPI DUP1 PUSH1 0x3 NOT CALLDATASIZE ADD SLT PUSH2 0x9C2 JUMPI PUSH2 0xE79 PUSH2 0x1CF4 JUMP JUMPDEST PUSH1 0x1 DUP1 SLOAD PUSH2 0x100 PUSH1 0x1 PUSH1 0xA8 SHL SUB NOT DUP2 AND SWAP1 SWAP2 SSTORE PUSH1 0x0 SWAP1 PUSH1 0x8 SHR PUSH1 0x1 PUSH1 0x1 PUSH1 0xA0 SHL SUB AND PUSH32 0x8BE0079C531659141344CD1FD0A4F28419497F9722A3DAAFE3B4186F6B6457E0 DUP3 DUP1 LOG3 DUP1 RETURN JUMPDEST POP POP CALLVALUE PUSH2 0x1A3 JUMPI PUSH1 0x20 CALLDATASIZE PUSH1 0x3 NOT ADD SLT PUSH2 0x1A3 JUMPI PUSH1 0x20 SWAP2 DUP2 SWAP1 PUSH1 0x1 PUSH1 0x1 PUSH1 0xA0 SHL SUB PUSH2 0xEEA PUSH2 0x1C71 JUMP JUMPDEST AND DUP2 MSTORE PUSH1 0xA DUP5 MSTORE KECCAK256 SLOAD SWAP1 MLOAD SWAP1 DUP2 MSTORE RETURN JUMPDEST POP POP CALLVALUE PUSH2 0x1A3 JUMPI DUP2 PUSH1 0x3 NOT CALLDATASIZE ADD SLT PUSH2 0x1A3 JUMPI PUSH1 0x20 SWAP1 PUSH1 0xFF PUSH1 0x1 SLOAD AND SWAP1 MLOAD SWAP1 ISZERO ISZERO DUP2 MSTORE RETURN JUMPDEST POP POP CALLVALUE PUSH2 0x1A3 JUMPI PUSH1 0x20 CALLDATASIZE PUSH1 0x3 NOT ADD SLT PUSH2 0x1A3 JUMPI PUSH1 0x20 SWAP2 DUP2 SWAP1 PUSH1 0x1 PUSH1 0x1 PUSH1 0xA0 SHL SUB PUSH2 0xF46 PUSH2 0x1C71 JUMP JUMPDEST AND DUP2 MSTORE PUSH1 0x8 DUP5 MSTORE KECCAK256 SLOAD SWAP1 MLOAD SWAP1 DUP2 MSTORE RETURN JUMPDEST SWAP1 POP CALLVALUE PUSH2 0x281 JUMPI PUSH1 0x20 DUP1 PUSH1 0x3 NOT CALLDATASIZE ADD SLT PUSH2 0x47C JUMPI PUSH2 0xF72 PUSH2 0x1C71 JUMP JUMPDEST SWAP3 CALLER DUP6 MSTORE PUSH1 0x6 DUP3 MSTORE DUP1 DUP6 KECCAK256 SWAP4 PUSH1 0x1 DUP1 PUSH1 0xA0 SHL SUB AND SWAP4 DUP5 PUSH1 0x0 MSTORE DUP3 MSTORE DUP1 PUSH1 0x0 KECCAK256 PUSH1 0x3 DUP2 ADD SWAP4 PUSH1 0xFF DUP6 SLOAD AND ISZERO PUSH2 0xFED JUMPI POP SWAP1 PUSH1 0x7 PUSH1 0x1 PUSH2 0xFBB SWAP4 ADD SLOAD SWAP4 DUP7 DUP9 MSTORE MSTORE DUP6 KECCAK256 SWAP2 DUP3 SLOAD PUSH2 0x1F45 JUMP JUMPDEST SWAP1 SSTORE DUP1 SLOAD PUSH1 0xFF NOT AND SWAP1 SSTORE CALLER PUSH32 0x38091AB52BA6C5114B27DB1F6E7B2F9EACA7C42C38B0E96581AEAA5C2A1BE00D DUP4 DUP1 LOG3 DUP1 RETURN JUMPDEST PUSH1 0x64 SWAP1 DUP5 DUP1 DUP6 MLOAD SWAP3 PUSH3 0x461BCD PUSH1 0xE5 SHL DUP5 MSTORE DUP4 ADD MSTORE PUSH1 0x24 DUP3 ADD MSTORE PUSH32 0x476F7665726E616E63653A204E6F206163746976652064656C65676174696F6E PUSH1 0x44 DUP3 ADD MSTORE REVERT JUMPDEST POP POP CALLVALUE PUSH2 0x1A3 JUMPI DUP2 PUSH1 0x3 NOT CALLDATASIZE ADD SLT PUSH2 0x1A3 JUMPI PUSH1 0x20 SWAP1 MLOAD PUSH3 0x15180 DUP2 MSTORE RETURN JUMPDEST SWAP1 POP CALLVALUE PUSH2 0x281 JUMPI DUP3 PUSH1 0x3 NOT CALLDATASIZE ADD SLT PUSH2 0x281 JUMPI PUSH2 0x1066 PUSH2 0x1CF4 JUMP JUMPDEST PUSH1 0x1 SLOAD SWAP1 PUSH1 0xFF DUP3 AND ISZERO PUSH2 0x10A8 JUMPI POP PUSH1 0xFF NOT AND PUSH1 0x1 SSTORE MLOAD CALLER DUP2 MSTORE PUSH32 0x5DB9EE0A495BF2E6FF9C91A7834C1BA4FDD244A5E8AA4E537BD38AEAE4B073AA SWAP1 PUSH1 0x20 SWAP1 LOG1 DUP1 RETURN JUMPDEST PUSH1 0x64 SWAP1 PUSH1 0x20 DUP5 MLOAD SWAP2 PUSH3 0x461BCD PUSH1 0xE5 SHL DUP4 MSTORE DUP3 ADD MSTORE PUSH1 0x14 PUSH1 0x24 DUP3 ADD MSTORE PUSH20 0x14185D5CD8589B194E881B9BDD081C185D5CD959 PUSH1 0x62 SHL PUSH1 0x44 DUP3 ADD MSTORE REVERT JUMPDEST POP POP CALLVALUE PUSH2 0x1A3 JUMPI DUP2 PUSH1 0x3 NOT CALLDATASIZE ADD SLT PUSH2 0x1A3 JUMPI PUSH1 0x20 SWAP1 MLOAD PUSH3 0x3F480 DUP2 MSTORE RETURN JUMPDEST POP POP CALLVALUE PUSH2 0x1A3 JUMPI DUP2 PUSH1 0x3 NOT CALLDATASIZE ADD SLT PUSH2 0x1A3 JUMPI MLOAD PUSH32 0x0 PUSH1 0x1 PUSH1 0x1 PUSH1 0xA0 SHL SUB AND DUP2 MSTORE PUSH1 0x20 SWAP1 RETURN JUMPDEST SWAP2 SWAP1 POP CALLVALUE PUSH2 0x281 JUMPI PUSH1 0x80 CALLDATASIZE PUSH1 0x3 NOT ADD SLT PUSH2 0x281 JUMPI PUSH1 0x24 SWAP1 PUSH8 0xFFFFFFFFFFFFFFFF SWAP1 DUP3 CALLDATALOAD DUP3 DUP2 GT PUSH2 0x17D0 JUMPI PUSH2 0x117B SWAP1 CALLDATASIZE SWAP1 DUP7 ADD PUSH2 0x1C9D JUMP JUMPDEST SWAP1 PUSH1 0x44 CALLDATALOAD DUP4 DUP2 GT PUSH2 0x17CC JUMPI PUSH2 0x1193 SWAP1 CALLDATASIZE SWAP1 DUP8 ADD PUSH2 0x1C9D JUMP JUMPDEST PUSH1 0x64 CALLDATALOAD DUP5 DUP2 GT PUSH2 0x6DB JUMPI PUSH2 0x11AA SWAP1 CALLDATASIZE SWAP1 DUP9 ADD PUSH2 0x1C9D JUMP JUMPDEST SWAP6 DUP1 CALLDATALOAD SWAP6 DUP7 ISZERO ISZERO DUP1 PUSH2 0x17C0 JUMPI JUMPDEST PUSH2 0x11C0 SWAP1 PUSH2 0x1D4F JUMP JUMPDEST DUP7 DUP10 MSTORE PUSH1 0x20 SWAP3 DUP3 DUP5 MSTORE PUSH1 0x5 DUP6 DUP12 KECCAK256 ADD SLOAD DUP1 TIMESTAMP LT ISZERO SWAP1 DUP2 PUSH2 0x1796 JUMPI JUMPDEST POP ISZERO PUSH2 0x1749 JUMPI DUP5 MLOAD PUSH4 0x70A08231 PUSH1 0xE0 SHL DUP2 MSTORE CALLER DUP5 DUP3 ADD MSTORE PUSH32 0x0 PUSH1 0x1 PUSH1 0x1 PUSH1 0xA0 SHL SUB AND SWAP2 SWAP1 DUP6 DUP2 DUP6 DUP2 DUP7 GAS STATICCALL DUP1 ISZERO PUSH2 0x173F JUMPI DUP13 SWAP1 PUSH2 0x1705 JUMPI JUMPDEST PUSH9 0x2B5E3AF16B1880000 SWAP2 POP LT PUSH2 0x16A8 JUMPI PUSH2 0x124C DUP10 PUSH2 0x1F52 JUMP JUMPDEST SWAP1 PUSH1 0x8 DUP3 LT ISZERO PUSH2 0x1696 JUMPI PUSH1 0x1 DUP1 SWAP3 SUB PUSH2 0x1643 JUMPI DUP2 PUSH1 0x3 SLOAD ADD SWAP9 DUP10 PUSH1 0x3 SSTORE DUP10 DUP14 MSTORE PUSH1 0x5 DUP8 MSTORE DUP8 DUP14 KECCAK256 SWAP2 DUP11 DUP4 SSTORE DUP12 DUP5 DUP5 ADD SSTORE PUSH1 0x2 DUP4 ADD CALLER PUSH12 0xFFFFFFFFFFFFFFFFFFFFFFFF PUSH1 0xA0 SHL DUP3 SLOAD AND OR SWAP1 SSTORE DUP10 MLOAD DUP3 DUP2 GT PUSH2 0x15BB JUMPI DUP1 DUP16 SWAP2 PUSH1 0x3 DUP7 ADD SWAP3 PUSH2 0x12BC DUP3 PUSH2 0x12B6 DUP7 SLOAD PUSH2 0x1AE9 JUMP JUMPDEST DUP7 PUSH2 0x1DBE JUMP JUMPDEST DUP12 SWAP1 PUSH1 0x1F DUP4 GT PUSH1 0x1 EQ PUSH2 0x15D8 JUMPI SWAP2 PUSH2 0x15CD JUMPI JUMPDEST POP PUSH1 0x0 NOT PUSH1 0x3 DUP4 SWAP1 SHL SHR NOT AND SWAP1 DUP7 SHL OR SWAP1 SSTORE JUMPDEST DUP1 MLOAD DUP3 DUP2 GT PUSH2 0x15BB JUMPI DUP1 DUP16 DUP10 DUP7 ADD SWAP4 PUSH2 0x1305 DUP4 PUSH2 0x12FF DUP8 SLOAD PUSH2 0x1AE9 JUMP JUMPDEST DUP8 PUSH2 0x1DBE JUMP JUMPDEST DUP12 SWAP2 PUSH1 0x1F DUP5 GT PUSH1 0x1 EQ PUSH2 0x155A JUMPI SWAP3 PUSH2 0x154F JUMPI JUMPDEST POP POP PUSH1 0x0 NOT PUSH1 0x3 DUP4 SWAP1 SHL SHR NOT AND SWAP1 DUP6 SHL OR SWAP1 SSTORE JUMPDEST DUP12 MLOAD SWAP1 DUP2 GT PUSH2 0x14C9 JUMPI DUP1 DUP14 SWAP2 PUSH1 0x5 DUP5 ADD SWAP3 PUSH2 0x134B DUP3 PUSH2 0x12B6 DUP7 SLOAD PUSH2 0x1AE9 JUMP JUMPDEST DUP10 SWAP1 PUSH1 0x1F DUP4 GT PUSH1 0x1 EQ PUSH2 0x14E6 JUMPI SWAP2 PUSH2 0x14DB JUMPI JUMPDEST POP PUSH1 0x0 NOT PUSH1 0x3 DUP4 SWAP1 SHL SHR NOT AND SWAP1 DUP5 SHL OR SWAP1 SSTORE JUMPDEST PUSH1 0x6 TIMESTAMP SWAP2 ADD SSTORE DUP9 DUP12 MSTORE DUP4 DUP6 MSTORE PUSH1 0xC DUP7 DUP13 KECCAK256 ADD DUP1 SLOAD SWAP2 PUSH9 0x10000000000000000 DUP4 LT ISZERO PUSH2 0x14C9 JUMPI DUP3 ADD DUP1 DUP3 SSTORE DUP3 LT ISZERO PUSH2 0x14B7 JUMPI DUP12 SWAP4 SWAP3 SWAP2 DUP10 SWAP2 DUP6 MSTORE DUP7 DUP6 KECCAK256 ADD SSTORE CALLER DUP4 MSTORE PUSH1 0xB DUP6 MSTORE DUP6 DUP4 KECCAK256 PUSH2 0x13C4 DUP2 SLOAD PUSH2 0x1E12 JUMP JUMPDEST SWAP1 SSTORE DUP1 EXTCODESIZE ISZERO PUSH2 0x281 JUMPI PUSH1 0x60 SWAP4 DUP4 PUSH1 0xA4 SWAP3 DUP9 MLOAD SWAP7 DUP8 SWAP6 DUP7 SWAP5 PUSH4 0x17E2F08F PUSH1 0xE2 SHL DUP7 MSTORE CALLER SWAP1 DUP7 ADD MSTORE DUP5 ADD MSTORE PUSH1 0x12 PUSH1 0x64 DUP5 ADD MSTORE PUSH18 0x185B595B991B595B9D17DC1C9BDC1BDCD85B PUSH1 0x72 SHL PUSH1 0x84 DUP5 ADD MSTORE DUP2 PUSH1 0x44 DUP5 ADD MSTORE GAS CALL DUP1 ISZERO PUSH2 0x14AD JUMPI PUSH2 0x1472 JUMPI JUMPDEST POP SWAP1 PUSH2 0x146C PUSH32 0x9EC2C04083B4C130D4FB66E14030AD89FE6BE45A187A6DB4FACA9D0270BB6648 SWAP4 SWAP3 PUSH2 0x145D DUP4 MLOAD SWAP5 DUP5 DUP7 SWAP6 DUP7 MSTORE DUP6 ADD SWAP1 PUSH2 0x1C31 JUMP JUMPDEST SWAP1 DUP4 DUP3 SUB SWAP1 DUP5 ADD MSTORE CALLER SWAP8 PUSH2 0x1C31 JUMP JUMPDEST SUB SWAP1 LOG4 DUP1 RETURN JUMPDEST PUSH32 0x9EC2C04083B4C130D4FB66E14030AD89FE6BE45A187A6DB4FACA9D0270BB6648 SWAP4 SWAP3 SWAP2 SWAP8 PUSH2 0x14A3 PUSH2 0x146C SWAP3 PUSH2 0x1B55 JUMP JUMPDEST SWAP8 SWAP2 SWAP3 SWAP4 POP PUSH2 0x1422 JUMP JUMPDEST DUP4 MLOAD RETURNDATASIZE DUP11 DUP3 RETURNDATACOPY RETURNDATASIZE SWAP1 REVERT JUMPDEST PUSH4 0x4E487B71 PUSH1 0xE0 SHL DUP13 MSTORE PUSH1 0x32 DUP6 MSTORE DUP4 DUP13 REVERT JUMPDEST PUSH4 0x4E487B71 PUSH1 0xE0 SHL DUP14 MSTORE PUSH1 0x41 DUP7 MSTORE DUP5 DUP14 REVERT JUMPDEST SWAP1 POP DUP14 ADD MLOAD CODESIZE PUSH2 0x135E JUMP JUMPDEST SWAP1 DUP16 DUP8 SWAP5 POP DUP6 DUP4 MSTORE DUP12 DUP4 KECCAK256 SWAP3 JUMPDEST DUP13 PUSH1 0x1F NOT DUP7 AND DUP3 LT PUSH2 0x1533 JUMPI POP POP DUP4 PUSH1 0x1F NOT DUP2 AND LT PUSH2 0x151A JUMPI JUMPDEST POP POP POP DUP2 SHL ADD SWAP1 SSTORE PUSH2 0x1371 JUMP JUMPDEST ADD MLOAD PUSH1 0x0 NOT PUSH1 0xF8 DUP5 PUSH1 0x3 SHL AND SHR NOT AND SWAP1 SSTORE CODESIZE DUP1 DUP16 PUSH2 0x150D JUMP JUMPDEST SWAP3 SWAP5 SWAP6 SWAP1 SWAP4 DUP6 DUP5 SWAP4 ADD MLOAD DUP2 SSTORE ADD SWAP4 ADD SWAP2 ADD SWAP1 DUP16 DUP8 SWAP5 SWAP4 SWAP3 PUSH2 0x14F3 JUMP JUMPDEST ADD MLOAD SWAP1 POP CODESIZE DUP1 PUSH2 0x1318 JUMP JUMPDEST DUP6 DUP2 MSTORE DUP13 DUP2 KECCAK256 DUP10 SWAP6 POP SWAP3 SWAP2 SWAP1 PUSH1 0x1F NOT DUP6 AND SWAP1 DUP15 JUMPDEST DUP3 DUP3 LT PUSH2 0x15A4 JUMPI POP POP DUP5 GT PUSH2 0x158B JUMPI JUMPDEST POP POP POP DUP2 SHL ADD SWAP1 SSTORE PUSH2 0x132C JUMP JUMPDEST ADD MLOAD PUSH1 0x0 NOT PUSH1 0xF8 DUP5 PUSH1 0x3 SHL AND SHR NOT AND SWAP1 SSTORE CODESIZE DUP1 DUP1 PUSH2 0x157E JUMP JUMPDEST DUP4 DUP6 ADD MLOAD DUP7 SSTORE DUP12 SWAP8 SWAP1 SWAP6 ADD SWAP5 SWAP4 DUP5 ADD SWAP4 ADD DUP15 PUSH2 0x156E JUMP JUMPDEST PUSH4 0x4E487B71 PUSH1 0xE0 SHL DUP16 MSTORE PUSH1 0x41 DUP9 MSTORE DUP7 DUP16 REVERT JUMPDEST SWAP1 POP DUP13 ADD MLOAD CODESIZE PUSH2 0x12CF JUMP JUMPDEST SWAP1 DUP9 SWAP4 POP DUP15 DUP6 DUP4 MSTORE DUP14 DUP1 DUP5 KECCAK256 SWAP4 PUSH1 0x1F NOT DUP7 AND SWAP2 JUMPDEST DUP3 DUP3 LT PUSH2 0x1622 JUMPI POP POP DUP5 GT PUSH2 0x1609 JUMPI JUMPDEST POP POP POP DUP2 SHL ADD SWAP1 SSTORE PUSH2 0x12E2 JUMP JUMPDEST ADD MLOAD PUSH1 0x0 NOT PUSH1 0xF8 DUP5 PUSH1 0x3 SHL AND SHR NOT AND SWAP1 SSTORE CODESIZE DUP1 DUP15 PUSH2 0x15FC JUMP JUMPDEST SWAP3 SWAP5 DUP5 DUP5 SWAP4 SWAP6 SWAP8 SWAP9 SWAP3 SWAP7 ADD MLOAD DUP2 SSTORE ADD SWAP5 ADD SWAP3 ADD DUP16 SWAP1 SWAP2 DUP11 SWAP6 SWAP5 SWAP4 SWAP3 DUP16 PUSH2 0x15EC JUMP JUMPDEST DUP7 MLOAD PUSH3 0x461BCD PUSH1 0xE5 SHL DUP2 MSTORE DUP1 DUP7 ADD DUP8 SWAP1 MSTORE PUSH1 0x28 DUP2 DUP7 ADD MSTORE PUSH32 0x476F7665726E616E63653A2050726F706F73616C206E6F7420696E2061637469 PUSH1 0x44 DUP3 ADD MSTORE PUSH8 0x7665207374617465 PUSH1 0xC0 SHL PUSH1 0x64 DUP3 ADD MSTORE PUSH1 0x84 SWAP1 REVERT JUMPDEST PUSH4 0x4E487B71 PUSH1 0xE0 SHL DUP13 MSTORE PUSH1 0x21 DUP6 MSTORE DUP4 DUP13 REVERT JUMPDEST DUP6 MLOAD PUSH3 0x461BCD PUSH1 0xE5 SHL DUP2 MSTORE DUP1 DUP6 ADD DUP7 SWAP1 MSTORE PUSH1 0x32 DUP2 DUP6 ADD MSTORE PUSH32 0x476F7665726E616E63653A20496E73756666696369656E74204943432062616C PUSH1 0x44 DUP3 ADD MSTORE PUSH18 0x185B98D948199BDC88185B595B991B595B9D PUSH1 0x72 SHL PUSH1 0x64 DUP3 ADD MSTORE PUSH1 0x84 SWAP1 REVERT JUMPDEST POP DUP6 DUP2 DUP2 RETURNDATASIZE DUP4 GT PUSH2 0x1738 JUMPI JUMPDEST PUSH2 0x171B DUP2 DUP4 PUSH2 0x1B69 JUMP JUMPDEST DUP2 ADD SUB SLT PUSH2 0x1734 JUMPI PUSH9 0x2B5E3AF16B1880000 SWAP1 MLOAD PUSH2 0x1232 JUMP JUMPDEST DUP12 DUP1 REVERT JUMPDEST POP RETURNDATASIZE PUSH2 0x1711 JUMP JUMPDEST DUP8 MLOAD RETURNDATASIZE DUP15 DUP3 RETURNDATACOPY RETURNDATASIZE SWAP1 REVERT JUMPDEST POP PUSH1 0x23 SWAP2 SWAP3 PUSH1 0x84 SWAP5 MLOAD SWAP4 PUSH3 0x461BCD PUSH1 0xE5 SHL DUP6 MSTORE DUP5 ADD MSTORE DUP3 ADD MSTORE PUSH32 0x476F7665726E616E63653A204E6F7420696E20616D656E646D656E7420706572 PUSH1 0x44 DUP3 ADD MSTORE PUSH3 0x1A5BD9 PUSH1 0xEA SHL PUSH1 0x64 DUP3 ADD MSTORE REVERT JUMPDEST SWAP1 POP PUSH3 0x3F480 DUP2 ADD DUP1 SWAP2 GT PUSH2 0x17AE JUMPI TIMESTAMP GT ISZERO CODESIZE PUSH2 0x11DB JUMP JUMPDEST PUSH4 0x4E487B71 PUSH1 0xE0 SHL DUP12 MSTORE PUSH1 0x11 DUP5 MSTORE DUP3 DUP12 REVERT JUMPDEST POP PUSH1 0x2 SLOAD DUP8 GT ISZERO PUSH2 0x11B7 JUMP JUMPDEST DUP7 DUP1 REVERT JUMPDEST DUP6 DUP1 REVERT JUMPDEST POP POP CALLVALUE PUSH2 0x1A3 JUMPI PUSH1 0x20 CALLDATASIZE PUSH1 0x3 NOT ADD SLT PUSH2 0x1A3 JUMPI PUSH1 0x20 SWAP2 DUP2 SWAP1 PUSH1 0x1 PUSH1 0x1 PUSH1 0xA0 SHL SUB PUSH2 0x17FC PUSH2 0x1C71 JUMP JUMPDEST AND DUP2 MSTORE PUSH1 0x9 DUP5 MSTORE KECCAK256 SLOAD SWAP1 MLOAD SWAP1 DUP2 MSTORE RETURN JUMPDEST POP POP CALLVALUE PUSH2 0x1A3 JUMPI PUSH1 0x20 CALLDATASIZE PUSH1 0x3 NOT ADD SLT PUSH2 0x1A3 JUMPI PUSH1 0x20 SWAP2 DUP2 SWAP1 PUSH1 0x1 PUSH1 0x1 PUSH1 0xA0 SHL SUB PUSH2 0x1834 PUSH2 0x1C71 JUMP JUMPDEST AND DUP2 MSTORE PUSH1 0x7 DUP5 MSTORE KECCAK256 SLOAD SWAP1 MLOAD SWAP1 DUP2 MSTORE RETURN JUMPDEST POP POP CALLVALUE PUSH2 0x1A3 JUMPI DUP1 PUSH1 0x3 NOT CALLDATASIZE ADD SLT PUSH2 0x1A3 JUMPI PUSH1 0x80 SWAP2 DUP2 PUSH2 0x1862 PUSH2 0x1C71 JUMP JUMPDEST SWAP2 PUSH2 0x186B PUSH2 0x1C87 JUMP JUMPDEST DUP2 PUSH1 0x60 DUP5 MLOAD PUSH2 0x1879 DUP2 PUSH2 0x1B23 JUMP JUMPDEST DUP3 DUP2 MSTORE DUP3 PUSH1 0x20 DUP3 ADD MSTORE DUP3 DUP7 DUP3 ADD MSTORE ADD MSTORE PUSH1 0x1 DUP1 PUSH1 0xA0 SHL SUB DUP1 SWAP5 AND DUP3 MSTORE PUSH1 0x6 PUSH1 0x20 MSTORE DUP4 DUP4 DUP4 KECCAK256 SWAP2 AND DUP3 MSTORE PUSH1 0x20 MSTORE KECCAK256 SWAP2 DUP1 MLOAD SWAP2 PUSH2 0x18B3 DUP4 PUSH2 0x1B23 JUMP JUMPDEST DUP4 SLOAD AND SWAP3 DUP4 DUP4 MSTORE PUSH1 0x1 DUP2 ADD SLOAD PUSH1 0x20 DUP5 ADD SWAP1 DUP2 MSTORE PUSH1 0x60 PUSH1 0xFF PUSH1 0x3 PUSH1 0x2 DUP6 ADD SLOAD SWAP5 DUP7 DUP9 ADD SWAP6 DUP7 MSTORE ADD SLOAD AND SWAP5 ADD SWAP4 ISZERO ISZERO DUP5 MSTORE DUP3 MLOAD SWAP5 DUP6 MSTORE MLOAD PUSH1 0x20 DUP6 ADD MSTORE MLOAD SWAP1 DUP4 ADD MSTORE MLOAD ISZERO ISZERO PUSH1 0x60 DUP3 ADD MSTORE RETURN JUMPDEST DUP3 DUP5 CALLVALUE PUSH2 0x9C2 JUMPI PUSH1 0x20 CALLDATASIZE PUSH1 0x3 NOT ADD SLT PUSH2 0x9C2 JUMPI DUP3 CALLDATALOAD DUP2 MSTORE PUSH1 0x5 PUSH1 0x20 MSTORE DUP2 SWAP1 KECCAK256 DUP1 SLOAD PUSH1 0x1 DUP3 ADD SLOAD PUSH1 0x2 DUP4 ADD SLOAD SWAP1 SWAP5 SWAP2 SWAP4 SWAP2 SWAP3 SWAP1 PUSH1 0x1 PUSH1 0x1 PUSH1 0xA0 SHL SUB AND PUSH2 0x1943 PUSH1 0x3 DUP4 ADD PUSH2 0x1B8B JUMP JUMPDEST SWAP4 DUP3 ADD PUSH2 0x194F SWAP1 PUSH2 0x1B8B JUMP JUMPDEST PUSH2 0x195B PUSH1 0x5 DUP5 ADD PUSH2 0x1B8B JUMP JUMPDEST SWAP1 PUSH1 0x6 DUP5 ADD SLOAD SWAP6 PUSH1 0x7 DUP6 ADD SLOAD SWAP4 PUSH1 0x8 DUP7 ADD SLOAD SWAP6 PUSH1 0x9 ADD SLOAD SWAP7 DUP1 MLOAD SWAP11 DUP12 SWAP11 DUP12 MSTORE PUSH1 0x20 DUP12 ADD MSTORE DUP10 ADD MSTORE PUSH2 0x160 DUP1 PUSH1 0x60 DUP11 ADD MSTORE DUP9 ADD PUSH2 0x1996 SWAP2 PUSH2 0x1C31 JUMP JUMPDEST DUP8 DUP2 SUB PUSH1 0x80 DUP10 ADD MSTORE PUSH2 0x19A7 SWAP2 PUSH2 0x1C31 JUMP JUMPDEST DUP7 DUP2 SUB PUSH1 0xA0 DUP9 ADD MSTORE PUSH2 0x19B8 SWAP2 PUSH2 0x1C31 JUMP JUMPDEST SWAP4 PUSH1 0xC0 DUP7 ADD MSTORE PUSH1 0xE0 DUP6 ADD MSTORE PUSH2 0x100 DUP5 ADD MSTORE PUSH1 0xFF DUP2 AND ISZERO ISZERO PUSH2 0x120 DUP5 ADD MSTORE PUSH1 0x8 SHR PUSH1 0xFF AND ISZERO ISZERO PUSH2 0x140 DUP4 ADD MSTORE SUB SWAP1 RETURN JUMPDEST DUP3 DUP5 CALLVALUE PUSH2 0x9C2 JUMPI PUSH1 0x20 CALLDATASIZE PUSH1 0x3 NOT ADD SLT PUSH2 0x9C2 JUMPI DUP2 SWAP1 DUP4 CALLDATALOAD DUP2 MSTORE DUP4 PUSH1 0x20 MSTORE KECCAK256 SWAP2 DUP3 SLOAD SWAP2 PUSH1 0x1 DUP5 ADD PUSH2 0x1A16 SWAP1 PUSH2 0x1B8B JUMP JUMPDEST SWAP4 PUSH2 0x1A23 PUSH1 0x2 DUP3 ADD PUSH2 0x1B8B JUMP JUMPDEST PUSH2 0x1A2F PUSH1 0x3 DUP4 ADD PUSH2 0x1B8B JUMP JUMPDEST SWAP4 PUSH1 0x1 PUSH1 0xA0 SHL PUSH1 0x1 SWAP1 SUB SWAP1 DUP4 ADD SLOAD AND SWAP4 PUSH1 0x5 DUP4 ADD SLOAD PUSH1 0x6 DUP5 ADD SLOAD PUSH1 0x7 DUP6 ADD SLOAD SWAP2 PUSH1 0x8 DUP7 ADD SLOAD SWAP4 PUSH1 0x9 DUP8 ADD SLOAD SWAP6 PUSH1 0xA DUP9 ADD SLOAD SWAP8 PUSH1 0xB ADD SLOAD SWAP9 DUP1 MLOAD SWAP13 DUP14 SWAP13 DUP14 MSTORE DUP13 PUSH2 0x1A0 PUSH1 0x20 DUP2 SWAP3 ADD MSTORE DUP14 ADD PUSH2 0x1A82 SWAP2 PUSH2 0x1C31 JUMP JUMPDEST SWAP1 DUP13 DUP3 SUB SWAP1 DUP14 ADD MSTORE PUSH2 0x1A93 SWAP2 PUSH2 0x1C31 JUMP JUMPDEST DUP11 DUP2 SUB PUSH1 0x60 DUP13 ADD MSTORE PUSH2 0x1AA4 SWAP2 PUSH2 0x1C31 JUMP JUMPDEST SWAP8 PUSH1 0x80 DUP11 ADD MSTORE PUSH1 0xA0 DUP10 ADD MSTORE PUSH1 0xC0 DUP9 ADD MSTORE PUSH1 0xE0 DUP8 ADD MSTORE PUSH2 0x100 DUP7 ADD MSTORE PUSH2 0x120 DUP6 ADD MSTORE PUSH1 0xFF DUP2 AND ISZERO ISZERO PUSH2 0x140 DUP6 ADD MSTORE PUSH1 0x8 SHR PUSH1 0xFF AND ISZERO ISZERO PUSH2 0x160 DUP5 ADD MSTORE PUSH2 0x180 DUP4 ADD MSTORE SUB SWAP1 RETURN JUMPDEST SWAP1 PUSH1 0x1 DUP3 DUP2 SHR SWAP3 AND DUP1 ISZERO PUSH2 0x1B19 JUMPI JUMPDEST PUSH1 0x20 DUP4 LT EQ PUSH2 0x1B03 JUMPI JUMP JUMPDEST PUSH4 0x4E487B71 PUSH1 0xE0 SHL PUSH1 0x0 MSTORE PUSH1 0x22 PUSH1 0x4 MSTORE PUSH1 0x24 PUSH1 0x0 REVERT JUMPDEST SWAP2 PUSH1 0x7F AND SWAP2 PUSH2 0x1AF8 JUMP JUMPDEST PUSH1 0x80 DUP2 ADD SWAP1 DUP2 LT PUSH8 0xFFFFFFFFFFFFFFFF DUP3 GT OR PUSH2 0x1B3F JUMPI PUSH1 0x40 MSTORE JUMP JUMPDEST PUSH4 0x4E487B71 PUSH1 0xE0 SHL PUSH1 0x0 MSTORE PUSH1 0x41 PUSH1 0x4 MSTORE PUSH1 0x24 PUSH1 0x0 REVERT JUMPDEST PUSH8 0xFFFFFFFFFFFFFFFF DUP2 GT PUSH2 0x1B3F JUMPI PUSH1 0x40 MSTORE JUMP JUMPDEST SWAP1 PUSH1 0x1F DUP1 NOT SWAP2 ADD AND DUP2 ADD SWAP1 DUP2 LT PUSH8 0xFFFFFFFFFFFFFFFF DUP3 GT OR PUSH2 0x1B3F JUMPI PUSH1 0x40 MSTORE JUMP JUMPDEST SWAP1 PUSH1 0x40 MLOAD SWAP2 DUP3 PUSH1 0x0 DUP3 SLOAD SWAP3 PUSH2 0x1B9F DUP5 PUSH2 0x1AE9 JUMP JUMPDEST SWAP1 DUP2 DUP5 MSTORE PUSH1 0x1 SWAP5 DUP6 DUP2 AND SWAP1 DUP2 PUSH1 0x0 EQ PUSH2 0x1C0E JUMPI POP PUSH1 0x1 EQ PUSH2 0x1BCB JUMPI JUMPDEST POP POP PUSH2 0x1BC9 SWAP3 POP SUB DUP4 PUSH2 0x1B69 JUMP JUMPDEST JUMP JUMPDEST SWAP1 SWAP4 SWAP2 POP PUSH1 0x0 MSTORE PUSH1 0x20 SWAP1 DUP2 PUSH1 0x0 KECCAK256 SWAP4 PUSH1 0x0 SWAP2 JUMPDEST DUP2 DUP4 LT PUSH2 0x1BF6 JUMPI POP POP PUSH2 0x1BC9 SWAP4 POP DUP3 ADD ADD CODESIZE DUP1 PUSH2 0x1BBB JUMP JUMPDEST DUP6 SLOAD DUP9 DUP5 ADD DUP6 ADD MSTORE SWAP5 DUP6 ADD SWAP5 DUP8 SWAP5 POP SWAP2 DUP4 ADD SWAP2 PUSH2 0x1BDE JUMP JUMPDEST SWAP2 POP POP PUSH2 0x1BC9 SWAP5 POP PUSH1 0x20 SWAP3 POP PUSH1 0xFF NOT AND DUP3 DUP5 ADD MSTORE ISZERO ISZERO PUSH1 0x5 SHL DUP3 ADD ADD CODESIZE DUP1 PUSH2 0x1BBB JUMP JUMPDEST SWAP2 SWAP1 DUP3 MLOAD SWAP3 DUP4 DUP3 MSTORE PUSH1 0x0 JUMPDEST DUP5 DUP2 LT PUSH2 0x1C5D JUMPI POP POP DUP3 PUSH1 0x0 PUSH1 0x20 DUP1 SWAP5 SWAP6 DUP5 ADD ADD MSTORE PUSH1 0x1F DUP1 NOT SWAP2 ADD AND ADD ADD SWAP1 JUMP JUMPDEST PUSH1 0x20 DUP2 DUP4 ADD DUP2 ADD MLOAD DUP5 DUP4 ADD DUP3 ADD MSTORE ADD PUSH2 0x1C3C JUMP JUMPDEST PUSH1 0x4 CALLDATALOAD SWAP1 PUSH1 0x1 PUSH1 0x1 PUSH1 0xA0 SHL SUB DUP3 AND DUP3 SUB PUSH2 0x7B4 JUMPI JUMP JUMPDEST PUSH1 0x24 CALLDATALOAD SWAP1 PUSH1 0x1 PUSH1 0x1 PUSH1 0xA0 SHL SUB DUP3 AND DUP3 SUB PUSH2 0x7B4 JUMPI JUMP JUMPDEST DUP2 PUSH1 0x1F DUP3 ADD SLT ISZERO PUSH2 0x7B4 JUMPI DUP1 CALLDATALOAD SWAP1 PUSH8 0xFFFFFFFFFFFFFFFF DUP3 GT PUSH2 0x1B3F JUMPI PUSH1 0x40 MLOAD SWAP3 PUSH2 0x1CD2 PUSH1 0x1F DUP5 ADD PUSH1 0x1F NOT AND PUSH1 0x20 ADD DUP6 PUSH2 0x1B69 JUMP JUMPDEST DUP3 DUP5 MSTORE PUSH1 0x20 DUP4 DUP4 ADD ADD GT PUSH2 0x7B4 JUMPI DUP2 PUSH1 0x0 SWAP3 PUSH1 0x20 DUP1 SWAP4 ADD DUP4 DUP7 ADD CALLDATACOPY DUP4 ADD ADD MSTORE SWAP1 JUMP JUMPDEST PUSH1 0x1 SLOAD PUSH1 0x8 SHR PUSH1 0x1 PUSH1 0x1 PUSH1 0xA0 SHL SUB AND CALLER SUB PUSH2 0x1D0B JUMPI JUMP JUMPDEST PUSH1 0x64 PUSH1 0x40 MLOAD PUSH3 0x461BCD PUSH1 0xE5 SHL DUP2 MSTORE PUSH1 0x20 PUSH1 0x4 DUP3 ADD MSTORE PUSH1 0x20 PUSH1 0x24 DUP3 ADD MSTORE PUSH32 0x4F776E61626C653A2063616C6C6572206973206E6F7420746865206F776E6572 PUSH1 0x44 DUP3 ADD MSTORE REVERT JUMPDEST ISZERO PUSH2 0x1D56 JUMPI JUMP JUMPDEST PUSH1 0x40 MLOAD PUSH3 0x461BCD PUSH1 0xE5 SHL DUP2 MSTORE PUSH1 0x20 PUSH1 0x4 DUP3 ADD MSTORE PUSH1 0x1F PUSH1 0x24 DUP3 ADD MSTORE PUSH32 0x476F7665726E616E63653A20496E76616C69642070726F706F73616C20494400 PUSH1 0x44 DUP3 ADD MSTORE PUSH1 0x64 SWAP1 REVERT JUMPDEST SWAP2 SWAP1 DUP3 ADD DUP1 SWAP3 GT PUSH2 0x1DA8 JUMPI JUMP JUMPDEST PUSH4 0x4E487B71 PUSH1 0xE0 SHL PUSH1 0x0 MSTORE PUSH1 0x11 PUSH1 0x4 MSTORE PUSH1 0x24 PUSH1 0x0 REVERT JUMPDEST SWAP1 PUSH1 0x1F DUP2 GT PUSH2 0x1DCC JUMPI POP POP POP JUMP JUMPDEST PUSH1 0x0 SWAP2 DUP3 MSTORE PUSH1 0x20 DUP3 KECCAK256 SWAP1 PUSH1 0x20 PUSH1 0x1F DUP6 ADD PUSH1 0x5 SHR DUP4 ADD SWAP5 LT PUSH2 0x1E08 JUMPI JUMPDEST PUSH1 0x1F ADD PUSH1 0x5 SHR ADD SWAP2 JUMPDEST DUP3 DUP2 LT PUSH2 0x1DFD JUMPI POP POP POP JUMP JUMPDEST DUP2 DUP2 SSTORE PUSH1 0x1 ADD PUSH2 0x1DF1 JUMP JUMPDEST SWAP1 SWAP3 POP DUP3 SWAP1 PUSH2 0x1DE8 JUMP JUMPDEST PUSH1 0x0 NOT DUP2 EQ PUSH2 0x1DA8 JUMPI PUSH1 0x1 ADD SWAP1 JUMP JUMPDEST ISZERO PUSH2 0x1E28 JUMPI JUMP JUMPDEST PUSH1 0x64 PUSH1 0x40 MLOAD PUSH3 0x461BCD PUSH1 0xE5 SHL DUP2 MSTORE PUSH1 0x20 PUSH1 0x4 DUP3 ADD MSTORE PUSH1 0x20 PUSH1 0x24 DUP3 ADD MSTORE PUSH32 0x476F7665726E616E63653A20496E76616C696420616D656E646D656E74204944 PUSH1 0x44 DUP3 ADD MSTORE REVERT JUMPDEST SWAP1 DUP1 DUP3 EQ PUSH2 0x1F41 JUMPI PUSH2 0x1E7E DUP2 SLOAD PUSH2 0x1AE9 JUMP JUMPDEST SWAP1 PUSH8 0xFFFFFFFFFFFFFFFF DUP3 GT PUSH2 0x1B3F JUMPI DUP2 SWAP1 PUSH2 0x1E9E DUP3 PUSH2 0x12B6 DUP7 SLOAD PUSH2 0x1AE9 JUMP JUMPDEST PUSH1 0x0 SWAP1 PUSH1 0x1F DUP4 GT PUSH1 0x1 EQ PUSH2 0x1ED5 JUMPI PUSH1 0x0 SWAP3 PUSH2 0x1ECA JUMPI JUMPDEST POP POP DUP2 PUSH1 0x1 SHL SWAP2 PUSH1 0x0 NOT SWAP1 PUSH1 0x3 SHL SHR NOT AND OR SWAP1 SSTORE JUMP JUMPDEST ADD SLOAD SWAP1 POP CODESIZE DUP1 PUSH2 0x1EB4 JUMP JUMPDEST DUP2 MSTORE PUSH1 0x20 DUP1 DUP3 KECCAK256 DUP6 DUP4 MSTORE DUP2 DUP4 KECCAK256 SWAP4 POP SWAP1 PUSH1 0x1F NOT DUP6 AND SWAP1 DUP4 SWAP1 JUMPDEST DUP3 DUP3 LT PUSH2 0x1F28 JUMPI POP POP SWAP1 DUP5 PUSH1 0x1 SWAP6 SWAP5 SWAP4 SWAP3 LT PUSH2 0x1F0F JUMPI JUMPDEST POP POP POP DUP2 SHL ADD SWAP1 SSTORE JUMP JUMPDEST ADD SLOAD PUSH1 0x0 NOT PUSH1 0xF8 DUP5 PUSH1 0x3 SHL AND SHR NOT AND SWAP1 SSTORE CODESIZE DUP1 DUP1 PUSH2 0x1F05 JUMP JUMPDEST DUP5 SWAP6 DUP2 SWAP3 SWAP6 DUP6 ADD SLOAD DUP2 SSTORE PUSH1 0x1 DUP1 SWAP2 ADD SWAP7 ADD SWAP5 ADD SWAP1 PUSH2 0x1EEE JUMP JUMPDEST POP POP JUMP JUMPDEST SWAP2 SWAP1 DUP3 SUB SWAP2 DUP3 GT PUSH2 0x1DA8 JUMPI JUMP JUMPDEST PUSH2 0x1F6D SWAP1 DUP1 ISZERO ISZERO DUP1 PUSH2 0x1F70 JUMPI JUMPDEST PUSH2 0x1F68 SWAP1 PUSH2 0x1D4F JUMP JUMPDEST PUSH2 0x1F7C JUMP JUMPDEST SWAP1 JUMP JUMPDEST POP PUSH1 0x2 SLOAD DUP2 GT ISZERO PUSH2 0x1F5F JUMP JUMPDEST PUSH1 0x0 SWAP1 DUP2 MSTORE PUSH1 0x4 PUSH1 0x20 MSTORE PUSH1 0x40 DUP2 KECCAK256 PUSH1 0xA DUP2 ADD SLOAD PUSH1 0xFF DUP2 PUSH1 0x8 SHR AND PUSH2 0x20F5 JUMPI PUSH1 0xFF AND PUSH2 0x20EE JUMPI PUSH1 0x5 DUP2 ADD SLOAD DUP1 TIMESTAMP LT PUSH2 0x20E9 JUMPI PUSH3 0x3F480 DUP2 ADD DUP1 SWAP2 GT PUSH2 0x20D5 JUMPI TIMESTAMP GT ISZERO PUSH2 0x20CE JUMPI PUSH1 0x6 DUP2 ADD SLOAD TIMESTAMP GT ISZERO PUSH2 0x20C7 JUMPI PUSH1 0x7 DUP2 ADD SLOAD SWAP2 PUSH2 0x1FE8 PUSH1 0x8 DUP4 ADD SLOAD SWAP3 PUSH1 0x9 PUSH2 0x5FB DUP6 DUP8 PUSH2 0x1D9B JUMP JUMPDEST PUSH1 0x40 MLOAD PUSH4 0x18160DDD PUSH1 0xE0 SHL DUP2 MSTORE SWAP1 SWAP2 PUSH1 0x20 DUP3 PUSH1 0x4 DUP2 PUSH32 0x0 PUSH1 0x1 PUSH1 0x1 PUSH1 0xA0 SHL SUB AND GAS STATICCALL SWAP2 DUP3 ISZERO PUSH2 0x20BA JUMPI DUP2 SWAP3 PUSH2 0x2087 JUMPI JUMPDEST POP PUSH1 0x5 DUP3 MUL SWAP2 DUP1 DUP4 DIV PUSH1 0x5 EQ SWAP1 ISZERO OR ISZERO PUSH2 0x2073 JUMPI POP PUSH1 0x64 SWAP1 DIV GT ISZERO SWAP2 DUP3 PUSH2 0x2069 JUMPI JUMPDEST POP POP PUSH2 0x2064 JUMPI PUSH1 0x4 SWAP1 JUMP JUMPDEST PUSH1 0x3 SWAP1 JUMP JUMPDEST GT SWAP1 POP CODESIZE DUP1 PUSH2 0x2059 JUMP JUMPDEST PUSH4 0x4E487B71 PUSH1 0xE0 SHL DUP2 MSTORE PUSH1 0x11 PUSH1 0x4 MSTORE PUSH1 0x24 SWAP1 REVERT JUMPDEST SWAP1 SWAP2 POP PUSH1 0x20 DUP2 RETURNDATASIZE DUP3 GT PUSH2 0x20B2 JUMPI JUMPDEST DUP2 PUSH2 0x20A2 PUSH1 0x20 SWAP4 DUP4 PUSH2 0x1B69 JUMP JUMPDEST DUP2 ADD SUB SLT PUSH2 0x1A3 JUMPI MLOAD SWAP1 CODESIZE PUSH2 0x2037 JUMP JUMPDEST RETURNDATASIZE SWAP2 POP PUSH2 0x2095 JUMP JUMPDEST POP PUSH1 0x40 MLOAD SWAP1 RETURNDATASIZE SWAP1 DUP3 RETURNDATACOPY RETURNDATASIZE SWAP1 REVERT JUMPDEST POP POP PUSH1 0x1 SWAP1 JUMP JUMPDEST POP POP PUSH1 0x2 SWAP1 JUMP JUMPDEST PUSH4 0x4E487B71 PUSH1 0xE0 SHL DUP4 MSTORE PUSH1 0x11 PUSH1 0x4 MSTORE PUSH1 0x24 DUP4 REVERT JUMPDEST POP POP SWAP1 JUMP JUMPDEST POP POP PUSH1 0x5 SWAP1 JUMP JUMPDEST POP POP POP PUSH1 0x6 SWAP1 JUMP INVALID LOG2 PUSH5 0x6970667358 0x22 SLT KECCAK256 PUSH5 0xBB0CE23D18 MSIZE 0xDB 0xD4 0x4C DUP15 0x4E CREATE2 LOG1 0xF8 GAS DUP4 SLOAD PREVRANDAO CALLDATACOPY 0xC3 0xD2 SWAP1 COINBASE 0xE9 ADDMOD 0xC9 0x25 CREATE CODESIZE EXTCODECOPY CALLDATACOPY PUSH5 0x736F6C6343 STOP ADDMOD SGT STOP CALLER "},"methodIdentifiers":{"AMENDMENT_PERIOD()":"333c69a7","AMENDMENT_THRESHOLD()":"d7c0270d","MIN_PROPOSAL_THRESHOLD()":"791f5d23","PROPOSAL_COOLDOWN()":"467f67f9","QUORUM_PERCENTAGE()":"ee8a7c15","VOTING_DURATION()":"a438d208","amendments(uint256)":"13e8cc39","applyAmendment(uint256)":"df88543b","delegateVote(address,uint256)":"926f7327","delegatedPower(address)":"169df064","delegations(address,address)":"c64814dd","getDelegation(address,address)":"15049a5a","getProposalAmendments(uint256)":"c13c3124","getProposalState(uint256)":"9080936f","getVotingPower(address)":"bb4d4436","iccToken()":"31de8807","lastProposalTime(address)":"5b7ad578","owner()":"8da5cb5b","pause()":"8456cb59","paused()":"5c975abb","proposals(uint256)":"013cf08b","proposeAmendment(uint256,string,string,string)":"2d5e60b0","renounceOwnership()":"715018a6","transferOwnership(address)":"f2fde38b","undelegateVote(address)":"4e60e4f0","unpause()":"3f4ba83a","userAmendmentCount(address)":"f496c686","userProposalCount(address)":"211603c6","userVoteCount(address)":"713cdaa8","voteOnAmendment(uint256,uint8)":"d1cbf969"}}}}}