{"contracts/ICCToken.sol":{"ICCToken":{"abi":[{"inputs":[{"internalType":"address","name":"_initialOwner","type":"address"},{"internalType":"address","name":"_rewardDistributor","type":"address"}],"stateMutability":"nonpayable","type":"constructor"},{"anonymous":false,"inputs":[{"indexed":true,"internalType":"address","name":"owner","type":"address"},{"indexed":true,"internalType":"address","name":"spender","type":"address"},{"indexed":false,"internalType":"uint256","name":"value","type":"uint256"}],"name":"Approval","type":"event"},{"anonymous":false,"inputs":[{"indexed":true,"internalType":"address","name":"recipient","type":"address"},{"indexed":false,"internalType":"string","name":"action","type":"string"},{"indexed":false,"internalType":"uint256","name":"amount","type":"uint256"}],"name":"CivicRewardMinted","type":"event"},{"anonymous":false,"inputs":[{"indexed":true,"internalType":"address","name":"newGovernance","type":"address"}],"name":"GovernanceContractUpdated","type":"event"},{"anonymous":false,"inputs":[{"indexed":true,"internalType":"address","name":"previousOwner","type":"address"},{"indexed":true,"internalType":"address","name":"newOwner","type":"address"}],"name":"OwnershipTransferred","type":"event"},{"anonymous":false,"inputs":[{"indexed":false,"internalType":"address","name":"account","type":"address"}],"name":"Paused","type":"event"},{"anonymous":false,"inputs":[{"indexed":true,"internalType":"address","name":"newDistributor","type":"address"}],"name":"RewardDistributorUpdated","type":"event"},{"anonymous":false,"inputs":[{"indexed":false,"internalType":"string","name":"action","type":"string"},{"indexed":false,"internalType":"uint256","name":"newRate","type":"uint256"}],"name":"RewardRateUpdated","type":"event"},{"anonymous":false,"inputs":[{"indexed":true,"internalType":"address","name":"from","type":"address"},{"indexed":true,"internalType":"address","name":"to","type":"address"},{"indexed":false,"internalType":"uint256","name":"value","type":"uint256"}],"name":"Transfer","type":"event"},{"anonymous":false,"inputs":[{"indexed":false,"internalType":"address","name":"account","type":"address"}],"name":"Unpaused","type":"event"},{"inputs":[],"name":"INITIAL_SUPPLY","outputs":[{"internalType":"uint256","name":"","type":"uint256"}],"stateMutability":"view","type":"function"},{"inputs":[],"name":"MAX_SUPPLY","outputs":[{"internalType":"uint256","name":"","type":"uint256"}],"stateMutability":"view","type":"function"},{"inputs":[{"internalType":"address","name":"owner","type":"address"},{"internalType":"address","name":"spender","type":"address"}],"name":"allowance","outputs":[{"internalType":"uint256","name":"","type":"uint256"}],"stateMutability":"view","type":"function"},{"inputs":[{"internalType":"address","name":"spender","type":"address"},{"internalType":"uint256","name":"amount","type":"uint256"}],"name":"approve","outputs":[{"internalType":"bool","name":"","type":"bool"}],"stateMutability":"nonpayable","type":"function"},{"inputs":[{"internalType":"address","name":"account","type":"address"}],"name":"balanceOf","outputs":[{"internalType":"uint256","name":"","type":"uint256"}],"stateMutability":"view","type":"function"},{"inputs":[{"internalType":"address[]","name":"recipients","type":"address[]"},{"internalType":"string","name":"action","type":"string"},{"internalType":"uint256[]","name":"amounts","type":"uint256[]"}],"name":"batchMintCivicRewards","outputs":[],"stateMutability":"nonpayable","type":"function"},{"inputs":[{"internalType":"uint256","name":"amount","type":"uint256"}],"name":"burn","outputs":[],"stateMutability":"nonpayable","type":"function"},{"inputs":[{"internalType":"address","name":"account","type":"address"},{"internalType":"uint256","name":"amount","type":"uint256"}],"name":"burnFrom","outputs":[],"stateMutability":"nonpayable","type":"function"},{"inputs":[],"name":"decimals","outputs":[{"internalType":"uint8","name":"","type":"uint8"}],"stateMutability":"view","type":"function"},{"inputs":[{"internalType":"address","name":"spender","type":"address"},{"internalType":"uint256","name":"subtractedValue","type":"uint256"}],"name":"decreaseAllowance","outputs":[{"internalType":"bool","name":"","type":"bool"}],"stateMutability":"nonpayable","type":"function"},{"inputs":[{"internalType":"address","name":"token","type":"address"},{"internalType":"uint256","name":"amount","type":"uint256"}],"name":"emergencyTokenRecovery","outputs":[],"stateMutability":"nonpayable","type":"function"},{"inputs":[{"internalType":"string","name":"action","type":"string"}],"name":"getRewardRate","outputs":[{"internalType":"uint256","name":"","type":"uint256"}],"stateMutability":"view","type":"function"},{"inputs":[{"internalType":"address","name":"user","type":"address"}],"name":"getUserRewards","outputs":[{"internalType":"uint256","name":"","type":"uint256"}],"stateMutability":"view","type":"function"},{"inputs":[],"name":"governanceContract","outputs":[{"internalType":"address","name":"","type":"address"}],"stateMutability":"view","type":"function"},{"inputs":[{"internalType":"address","name":"spender","type":"address"},{"internalType":"uint256","name":"addedValue","type":"uint256"}],"name":"increaseAllowance","outputs":[{"internalType":"bool","name":"","type":"bool"}],"stateMutability":"nonpayable","type":"function"},{"inputs":[{"internalType":"address","name":"","type":"address"}],"name":"lastRewardTime","outputs":[{"internalType":"uint256","name":"","type":"uint256"}],"stateMutability":"view","type":"function"},{"inputs":[{"internalType":"address","name":"recipient","type":"address"},{"internalType":"string","name":"action","type":"string"},{"internalType":"uint256","name":"amount","type":"uint256"}],"name":"mintCivicReward","outputs":[],"stateMutability":"nonpayable","type":"function"},{"inputs":[],"name":"name","outputs":[{"internalType":"string","name":"","type":"string"}],"stateMutability":"view","type":"function"},{"inputs":[],"name":"owner","outputs":[{"internalType":"address","name":"","type":"address"}],"stateMutability":"view","type":"function"},{"inputs":[],"name":"pause","outputs":[],"stateMutability":"nonpayable","type":"function"},{"inputs":[],"name":"paused","outputs":[{"internalType":"bool","name":"","type":"bool"}],"stateMutability":"view","type":"function"},{"inputs":[],"name":"renounceOwnership","outputs":[],"stateMutability":"nonpayable","type":"function"},{"inputs":[],"name":"rewardDistributor","outputs":[{"internalType":"address","name":"","type":"address"}],"stateMutability":"view","type":"function"},{"inputs":[{"internalType":"string","name":"","type":"string"}],"name":"rewardRates","outputs":[{"internalType":"uint256","name":"","type":"uint256"}],"stateMutability":"view","type":"function"},{"inputs":[{"internalType":"address","name":"_governanceContract","type":"address"}],"name":"setGovernanceContract","outputs":[],"stateMutability":"nonpayable","type":"function"},{"inputs":[{"internalType":"address","name":"_rewardDistributor","type":"address"}],"name":"setRewardDistributor","outputs":[],"stateMutability":"nonpayable","type":"function"},{"inputs":[{"internalType":"string","name":"action","type":"string"},{"internalType":"uint256","name":"rate","type":"uint256"}],"name":"setRewardRate","outputs":[],"stateMutability":"nonpayable","type":"function"},{"inputs":[],"name":"symbol","outputs":[{"internalType":"string","name":"","type":"string"}],"stateMutability":"view","type":"function"},{"inputs":[{"internalType":"address","name":"","type":"address"}],"name":"totalRewardsEarned","outputs":[{"internalType":"uint256","name":"","type":"uint256"}],"stateMutability":"view","type":"function"},{"inputs":[],"name":"totalSupply","outputs":[{"internalType":"uint256","name":"","type":"uint256"}],"stateMutability":"view","type":"function"},{"inputs":[{"internalType":"address","name":"to","type":"address"},{"internalType":"uint256","name":"amount","type":"uint256"}],"name":"transfer","outputs":[{"internalType":"bool","name":"","type":"bool"}],"stateMutability":"nonpayable","type":"function"},{"inputs":[{"internalType":"address","name":"from","type":"address"},{"internalType":"address","name":"to","type":"address"},{"internalType":"uint256","name":"amount","type":"uint256"}],"name":"transferFrom","outputs":[{"internalType":"bool","name":"","type":"bool"}],"stateMutability":"nonpayable","type":"function"},{"inputs":[{"internalType":"address","name":"newOwner","type":"address"}],"name":"transferOwnership","outputs":[],"stateMutability":"nonpayable","type":"function"},{"inputs":[],"name":"unpause","outputs":[],"stateMutability":"nonpayable","type":"function"},{"inputs":[],"name":"version","outputs":[{"internalType":"string","name":"","type":"string"}],"stateMutability":"pure","type":"function"}],"evm":{"bytecode":{"linkReferences":{},"object":"6080346200058c57601f19906200225390601f906001600160401b03388490038381018616830190828211848310176200049057808491604097889485528339810103126200058c576200005382620005b1565b94620000636020809401620005b1565b906200006e62000591565b92601584527f496e66696e69746120436974792043726564697473000000000000000000000085850152620000a262000591565b936003908186526249434360e81b878701528051838111620004905782546001928382811c9216801562000581575b8a8310146200056b57818b84931162000515575b5089908b8311600114620004b257600092620004a6575b505060001982851b1c191690821b1782555b8551928311620004905760049586548281811c9116801562000485575b89821014620004705789811162000425575b508790898511600114620003bc5784955090849291600095620003b0575b50501b92600019911b1c19161782555b60ff19600554166005556200018033620005c6565b6200018b86620005c6565b60018060a01b03809116958660018060a01b031960075416176007556802b5e3af16b18800006031875170383937b837b9b0b62fb1b932b0ba34b7b760791b8152600860118201522055678ac7230489e8000060298751681d9bdd1957d8d85cdd60ba1b815260086009820152205568056bc75e2d63100000602f87516e1c1c9bdc1bdcd85b17dc185cdcd959608a1b81526008600f820152205567d02ab486cedc0000602b87516a32b0b9363cafbb37ba32b960a91b81526008600b820152205568015af1d78b58c40000603487517f636f6d6d756e6974795f656e676167656d656e7400000000000000000000000081526008601482015220551692831562000371575060ff600554166200033d5760025469d3c21bcecceda10000009182820180921162000328575060025560008381528083528481208054830190558451918252917fddf252ad1be2c89b69c2b068fc378daa952ba7f163c4a11628f55a4df523b3ef91a351907f15057bbec20fe352ac8931e529ade6a9ce138c954ffc87d6aa3423dd066c4acd600080a2611c309081620006238239f35b601190634e487b7160e01b6000525260246000fd5b60649184519162461bcd60e51b8352820152601060248201526f14185d5cd8589b194e881c185d5cd95960821b6044820152fd5b60649285519262461bcd60e51b845283015260248201527f45524332303a206d696e7420746f20746865207a65726f2061646472657373006044820152fd5b0151935038806200015b565b9291948416928760005284896000209460005b8b898383106200040d5750505010620003f2575b50505050811b0182556200016b565b01519060f884600019921b161c1916905538808080620003e3565b868601518955909701969485019488935001620003cf565b87600052886000208a80870160051c8201928b881062000466575b0160051c019083905b828110620004595750506200013d565b6000815501839062000449565b9250819262000440565b602288634e487b7160e01b6000525260246000fd5b90607f16906200012b565b634e487b7160e01b600052604160045260246000fd5b015190503880620000fc565b908785941691866000528b6000209260005b8d828210620004fe5750508411620004e5575b505050811b0182556200010e565b015160001983871b60f8161c19169055388080620004d7565b8385015186558897909501949384019301620004c4565b90915084600052896000208b80850160051c8201928c861062000561575b918691869594930160051c01915b82811062000551575050620000e5565b6000815585945086910162000541565b9250819262000533565b634e487b7160e01b600052602260045260246000fd5b91607f1691620000d1565b600080fd5b60408051919082016001600160401b038111838210176200049057604052565b51906001600160a01b03821682036200058c57565b60058054610100600160a81b03198116600884811b610100600160a81b0316919091179092556001600160a01b0392831692911c167f8be0079c531659141344cd1fd0a4f28419497f9722a3daafe3b4186f6b6457e0600080a356fe6080604081815260048036101561001557600080fd5b600092833560e01c90816306fdde031461138957508063078b0fb71461069e578063095ea7b31461135f5780631129753f146112a357806318160ddd1461128457806323b872dd146112475780632cae1939146111525780632ff2e9dc1461112d578063313ce5671461111157806332cb6b0c146110eb578063395093511461109b5780633b5d441e146110635780633f4ba83a14610fce57806342966c6814610fb057806354fd4d5014610f445780635c975abb14610f205780635f8bc23c14610cd15780636b6924171461071f57806370a0823114610c9a578063715018a614610c3957806379cc679014610c065780638456cb5914610bab5780638da5cb5b14610b7e57806395d89b4114610a63578063a1809b95146109a5578063a457c2d714610901578063a9059cbb146108d0578063acc2166a146108a7578063b172b2221461087e578063b49b0cb31461077f578063bd46cd181461071f578063dd62ed3e146106d6578063e4f24cb01461069e578063e8ec85471461027f5763f2fde38b146101a457600080fd5b3461027b57602036600319011261027b576101bd6114c5565b6101c561159d565b6001600160a01b0381811693909290841561022957505060058054610100600160a81b03198116600893841b610100600160a81b031617909155901c167f8be0079c531659141344cd1fd0a4f28419497f9722a3daafe3b4186f6b6457e08380a380f35b906020608492519162461bcd60e51b8352820152602660248201527f4f776e61626c653a206e6577206f776e657220697320746865207a65726f206160448201526564647265737360d01b6064820152fd5b8280fd5b5082903461069a57606036600319011261069a5780359167ffffffffffffffff9182841161069a573660238501121561069a5783810135946102c086611585565b946102cd825196876114f6565b8686526020908187016024809960051b83010191368311610696578901905b8282106106775750505086358581116106735761030c903690850161152e565b92604435958611610673573660238701121561067357858101359561033087611585565b9661033d855198896114f6565b808852898489019160051b8301019136831161066f578a859101915b83831061065f5750506006546001600160a01b0392508216331490508015610652575b801561063d575b61038c90611a3a565b610394611ad2565b87518751036105fc5760648851116105bb578590865b89518110156104d657816103be828c611bd0565b51166103ca828b611bd0565b51156104b0576103da828b611bd0565b51905b801515806104a7575b80610475575b610401575b50506103fc90611bc1565b6103aa565b7f11fab1c2b2b1e06f3d509ba355c10f99492c59c38b24af8fa8ad01846a8eb746610431836103fc9594976115f8565b95828c5260098952428a8d2055600a8952898c206104508282546115f8565b9055895180918b82526104668d8d8401906114a0565b908b8301520390a2908c6103f1565b50808a5260098752878a2054610e108101809111610495574210156103ec565b634e487b7160e01b8b52601187528d8bfd5b508115156103e6565b86518681816104c58c8381519384920161147d565b8101600881520301902054906103dd565b87898b89888a87896105006a084595161401484a0000006104f9836002546115f8565b1115611a86565b80610509578780f35b610517909795969730611b16565b845b86518110156105a8578082610531610564938a611bd0565b511661053d828b611bd0565b51156105835761054d828b611bd0565b515b8115158061057a575b610569575b5050611bc1565b610519565b610573913061161b565b898061055d565b50801515610558565b84518681816105988b8381519384920161147d565b810160088152030190205461054f565b5050505050915050818080808080808780f35b5060198860649385519362461bcd60e51b85528401528201527f494343546f6b656e3a20426174636820746f6f206c61726765000000000000006044820152fd5b50601f8860649385519362461bcd60e51b85528401528201527f494343546f6b656e3a204172726179206c656e677468206d69736d61746368006044820152fd5b5061038c8160055460081c1633149050610383565b508060075416331461037c565b8235815291810191859101610359565b8780fd5b8480fd5b81356001600160a01b038116810361066f5781529083019083016102ec565b8680fd5b5080fd5b50503461069a57602036600319011261069a5760209181906001600160a01b036106c66114c5565b168152600a845220549051908152f35b50503461069a578060031936011261069a57806020926106f46114c5565b6106fc6114e0565b6001600160a01b0391821683526001865283832091168252845220549051908152f35b50913461077c57602036600319011261077c5782359067ffffffffffffffff821161077c57506020610758819461076a9336910161152e565b8184519382858094519384920161147d565b81016008815203019020549051908152f35b80fd5b50903461027b578060031936011261027b576107996114c5565b916107a261159d565b6001600160a01b039283169230841461082f5790604460209260055460081c1691868551968794859363a9059cbb60e01b855284015260243560248401525af190811561082657506107f2575080f35b6020813d821161081e575b8161080a602093836114f6565b8101031261069a57518015150361077c5780f35b3d91506107fd565b513d84823e3d90fd5b506020608492519162461bcd60e51b8352820152602360248201527f494343546f6b656e3a2043616e6e6f74207265636f766572206f776e20746f6b604482015262656e7360e81b6064820152fd5b50503461069a578160031936011261069a5760065490516001600160a01b039091168152602090f35b50503461069a578160031936011261069a5760075490516001600160a01b039091168152602090f35b50503461069a578060031936011261069a576020906108fa6108f06114c5565b602435903361161b565b5160018152f35b50823461077c578260031936011261077c5761091b6114c5565b918360243592338152600160205281812060018060a01b0386168252602052205490828210610954576020856108fa8585038733611791565b608490602086519162461bcd60e51b8352820152602560248201527f45524332303a2064656372656173656420616c6c6f77616e63652062656c6f77604482015264207a65726f60d81b6064820152fd5b503461027b57602036600319011261027b576109bf6114c5565b6109c761159d565b6001600160a01b0316918215610a12575050600780546001600160a01b031916821790557f15057bbec20fe352ac8931e529ade6a9ce138c954ffc87d6aa3423dd066c4acd8280a280f35b906020608492519162461bcd60e51b8352820152602560248201527f494343546f6b656e3a20496e76616c6964206469737472696275746f72206164604482015264647265737360d81b6064820152fd5b50913461077c578060031936011261077c5781519181845492600184811c91818616958615610b74575b6020968785108114610b61579087899a92868b999a9b529182600014610b37575050600114610adc575b8588610ad889610ac9848a03856114f6565b519282849384528301906114a0565b0390f35b815286935091907f8a35acfbc15ff81a39ae7d344fd709f28e8600b4aa8c65c6b64bfe7fe36bd19b5b828410610b1f5750505082010181610ac9610ad838610ab7565b8054848a018601528895508794909301928101610b05565b60ff19168882015294151560051b87019094019450859350610ac99250610ad89150389050610ab7565b634e487b7160e01b835260228a52602483fd5b92607f1692610a8d565b50503461069a578160031936011261069a57600554905160089190911c6001600160a01b03168152602090f35b50503461069a578160031936011261069a5760207f62e78cea01bee320cd4e420270b5ea74000d11b0c9f74754ebdbfc544b05a25891610be961159d565b610bf1611ad2565b600160ff19600554161760055551338152a180f35b50503461069a5736600319011261077c57610c36610c226114c5565b60243590610c31823383611893565b61192b565b80f35b833461077c578060031936011261077c57610c5261159d565b60058054610100600160a81b03198116909155819060081c6001600160a01b03167f8be0079c531659141344cd1fd0a4f28419497f9722a3daafe3b4186f6b6457e08280a380f35b50503461069a57602036600319011261069a5760209181906001600160a01b03610cc26114c5565b16815280845220549051908152f35b5082903461069a57606036600319011261069a57610ced6114c5565b9260243567ffffffffffffffff8111610f1c57610d0d903690840161152e565b906044359260018060a01b03806006541633148015610f0f575b8015610efa575b610d3790611a3a565b610d3f611ad2565b610d5a6a084595161401484a0000006104f9876002546115f8565b8616938415610eb7578015610e92575b8015610e4f578486526020916009835283872054610e108101809111610e3c574210610dfb5750610dbe817f11fab1c2b2b1e06f3d509ba355c10f99492c59c38b24af8fa8ad01846a8eb746969798611b16565b858752600982524283882055600a8252828720610ddc8282546115f8565b9055610df183519484869586528501906114a0565b918301520390a280f35b606490838086519262461bcd60e51b845283015260248201527f494343546f6b656e3a2052657761726420636f6f6c646f776e206163746976656044820152fd5b634e487b7160e01b885260118252602488fd5b506020606492519162461bcd60e51b8352820152601f60248201527f494343546f6b656e3a20496e76616c69642072657761726420616d6f756e74006044820152fd5b5081516020818551610ea78183858a0161147d565b8101600881520301902054610d6a565b506020606492519162461bcd60e51b8352820152601b60248201527f494343546f6b656e3a20496e76616c696420726563697069656e7400000000006044820152fd5b50610d378160055460081c1633149050610d2e565b5080600754163314610d27565b8380fd5b50503461069a578160031936011261069a5760209060ff6005541690519015158152f35b5091903461069a578160031936011261069a578051918183019083821067ffffffffffffffff831117610f9d5750610ad89350815260058252640312e302e360dc1b6020830152519182916020835260208301906114a0565b634e487b7160e01b815260418552602490fd5b83823461069a57602036600319011261069a57610c3690353361192b565b503461027b578260031936011261027b57610fe761159d565b6005549060ff821615611029575060ff1916600555513381527f5db9ee0a495bf2e6ff9c91a7834c1ba4fdd244a5e8aa4e537bd38aeae4b073aa90602090a180f35b606490602084519162461bcd60e51b8352820152601460248201527314185d5cd8589b194e881b9bdd081c185d5cd95960621b6044820152fd5b50503461069a57602036600319011261069a5760209181906001600160a01b0361108b6114c5565b1681526009845220549051908152f35b50503461069a578060031936011261069a576108fa6020926110e46110be6114c5565b338352600186528483206001600160a01b038216845286529184902054602435906115f8565b9033611791565b50503461069a578160031936011261069a57602090516a084595161401484a0000008152f35b50503461069a578160031936011261069a576020905160128152f35b50503461069a578160031936011261069a576020905169d3c21bcecceda10000008152f35b5082903461069a578260031936011261069a57803567ffffffffffffffff811161027b57611183903690830161152e565b906024359061119061159d565b683635c9adc5dea000008211611204575092837fbb9d066fcebd3792263684403a32b849e960a1127945fb842f4e82fe891b3a9b9394825160208186516111da8183858b0161147d565b81016008815203019020556111f882519383859485528401906114a0565b9060208301520390a180f35b606490602086519162461bcd60e51b8352820152601760248201527f494343546f6b656e3a205261746520746f6f20686967680000000000000000006044820152fd5b50503461069a57606036600319011261069a576020906108fa6112686114c5565b6112706114e0565b6044359161127f833383611893565b61161b565b50503461069a578160031936011261069a576020906002549051908152f35b503461027b57602036600319011261027b576112bd6114c5565b6112c561159d565b6001600160a01b0316918215611310575050600680546001600160a01b031916821790557fe3cf2b71b55b62fc1a6c7b2f6ff944c1b70048908cff22f2e08d1144e7ca7edb8280a280f35b906020608492519162461bcd60e51b83528201526024808201527f494343546f6b656e3a20496e76616c696420676f7665726e616e6365206164646044820152637265737360e01b6064820152fd5b50503461069a578060031936011261069a576020906108fa61137f6114c5565b6024359033611791565b905083833461069a578160031936011261069a578160035492600184811c91818616958615611473575b6020968785108114610b61578899509688969785829a52918260001461144c5750506001146113f0575b505050610ad89291610ac99103856114f6565b9190869350600383527fc2575a0e9e593c00f959f8c92f12db2869c3395a3b0502d05e2516446f71f85b5b8284106114345750505082010181610ac9610ad86113dd565b8054848a01860152889550879490930192810161141b565b60ff19168782015293151560051b86019093019350849250610ac99150610ad890506113dd565b92607f16926113b3565b60005b8381106114905750506000910152565b8181015183820152602001611480565b906020916114b98151809281855285808601910161147d565b601f01601f1916010190565b600435906001600160a01b03821682036114db57565b600080fd5b602435906001600160a01b03821682036114db57565b90601f8019910116810190811067ffffffffffffffff82111761151857604052565b634e487b7160e01b600052604160045260246000fd5b81601f820112156114db5780359067ffffffffffffffff82116115185760405192611563601f8401601f1916602001856114f6565b828452602083830101116114db57816000926020809301838601378301015290565b67ffffffffffffffff81116115185760051b60200190565b60055460081c6001600160a01b031633036115b457565b606460405162461bcd60e51b815260206004820152602060248201527f4f776e61626c653a2063616c6c6572206973206e6f7420746865206f776e65726044820152fd5b9190820180921161160557565b634e487b7160e01b600052601160045260246000fd5b6001600160a01b0390811691821561173e57169182156116ed5761163d611ad2565b60008281528060205260408120549180831061169957604082827fddf252ad1be2c89b69c2b068fc378daa952ba7f163c4a11628f55a4df523b3ef958760209652828652038282205586815220818154019055604051908152a3565b60405162461bcd60e51b815260206004820152602660248201527f45524332303a207472616e7366657220616d6f756e7420657863656564732062604482015265616c616e636560d01b6064820152608490fd5b60405162461bcd60e51b815260206004820152602360248201527f45524332303a207472616e7366657220746f20746865207a65726f206164647260448201526265737360e81b6064820152608490fd5b60405162461bcd60e51b815260206004820152602560248201527f45524332303a207472616e736665722066726f6d20746865207a65726f206164604482015264647265737360d81b6064820152608490fd5b6001600160a01b0390811691821561184257169182156117f25760207f8c5be1e5ebec7d5bd14f71427d1e84f3dd0314c0f7b2291e5b200ac8c7c3b925918360005260018252604060002085600052825280604060002055604051908152a3565b60405162461bcd60e51b815260206004820152602260248201527f45524332303a20617070726f766520746f20746865207a65726f206164647265604482015261737360f01b6064820152608490fd5b60405162461bcd60e51b8152602060048201526024808201527f45524332303a20617070726f76652066726f6d20746865207a65726f206164646044820152637265737360e01b6064820152608490fd5b9060018060a01b03808316600052600160205260406000209082166000526020526040600020549260001984036118cb575b50505050565b8084106118e6576118dd930391611791565b388080806118c5565b60405162461bcd60e51b815260206004820152601d60248201527f45524332303a20696e73756666696369656e7420616c6c6f77616e63650000006044820152606490fd5b6001600160a01b031680156119eb57611942611ad2565b60009181835282602052604083205481811061199b57817fddf252ad1be2c89b69c2b068fc378daa952ba7f163c4a11628f55a4df523b3ef926020928587528684520360408620558060025403600255604051908152a3565b60405162461bcd60e51b815260206004820152602260248201527f45524332303a206275726e20616d6f756e7420657863656564732062616c616e604482015261636560f01b6064820152608490fd5b60405162461bcd60e51b815260206004820152602160248201527f45524332303a206275726e2066726f6d20746865207a65726f206164647265736044820152607360f81b6064820152608490fd5b15611a4157565b60405162461bcd60e51b815260206004820152601d60248201527f494343546f6b656e3a20556e617574686f72697a6564206d696e7465720000006044820152606490fd5b15611a8d57565b60405162461bcd60e51b815260206004820152601c60248201527f494343546f6b656e3a2045786365656473206d617820737570706c79000000006044820152606490fd5b60ff60055416611ade57565b60405162461bcd60e51b815260206004820152601060248201526f14185d5cd8589b194e881c185d5cd95960821b6044820152606490fd5b6001600160a01b0316908115611b7c577fddf252ad1be2c89b69c2b068fc378daa952ba7f163c4a11628f55a4df523b3ef6020600092611b54611ad2565b611b60816002546115f8565b60025584845283825260408420818154019055604051908152a3565b60405162461bcd60e51b815260206004820152601f60248201527f45524332303a206d696e7420746f20746865207a65726f2061646472657373006044820152606490fd5b60001981146116055760010190565b8051821015611be45760209160051b010190565b634e487b7160e01b600052603260045260246000fdfea264697066735822122048873fe847ea905e7a0a9013f5398895fe44f928af2e95e4a30cda4ebbf2748864736f6c63430008130033","opcodes":"PUSH1 0x80 CALLVALUE PUSH3 0x58C JUMPI PUSH1 0x1F NOT SWAP1 PUSH3 0x2253 SWAP1 PUSH1 0x1F SWAP1 PUSH1 0x1 PUSH1 0x1 PUSH1 0x40 SHL SUB CODESIZE DUP5 SWAP1 SUB DUP4 DUP2 ADD DUP7 AND DUP4 ADD SWAP1 DUP3 DUP3 GT DUP5 DUP4 LT OR PUSH3 0x490 JUMPI DUP1 DUP5 SWAP2 PUSH1 0x40 SWAP8 DUP9 SWAP5 DUP6 MSTORE DUP4 CODECOPY DUP2 ADD SUB SLT PUSH3 0x58C JUMPI PUSH3 0x53 DUP3 PUSH3 0x5B1 JUMP JUMPDEST SWAP5 PUSH3 0x63 PUSH1 0x20 DUP1 SWAP5 ADD PUSH3 0x5B1 JUMP JUMPDEST SWAP1 PUSH3 0x6E PUSH3 0x591 JUMP JUMPDEST SWAP3 PUSH1 0x15 DUP5 MSTORE PUSH32 0x496E66696E697461204369747920437265646974730000000000000000000000 DUP6 DUP6 ADD MSTORE PUSH3 0xA2 PUSH3 0x591 JUMP JUMPDEST SWAP4 PUSH1 0x3 SWAP1 DUP2 DUP7 MSTORE PUSH3 0x494343 PUSH1 0xE8 SHL DUP8 DUP8 ADD MSTORE DUP1 MLOAD DUP4 DUP2 GT PUSH3 0x490 JUMPI DUP3 SLOAD PUSH1 0x1 SWAP3 DUP4 DUP3 DUP2 SHR SWAP3 AND DUP1 ISZERO PUSH3 0x581 JUMPI JUMPDEST DUP11 DUP4 LT EQ PUSH3 0x56B JUMPI DUP2 DUP12 DUP5 SWAP4 GT PUSH3 0x515 JUMPI JUMPDEST POP DUP10 SWAP1 DUP12 DUP4 GT PUSH1 0x1 EQ PUSH3 0x4B2 JUMPI PUSH1 0x0 SWAP3 PUSH3 0x4A6 JUMPI JUMPDEST POP POP PUSH1 0x0 NOT DUP3 DUP6 SHL SHR NOT AND SWAP1 DUP3 SHL OR DUP3 SSTORE JUMPDEST DUP6 MLOAD SWAP3 DUP4 GT PUSH3 0x490 JUMPI PUSH1 0x4 SWAP6 DUP7 SLOAD DUP3 DUP2 DUP2 SHR SWAP2 AND DUP1 ISZERO PUSH3 0x485 JUMPI JUMPDEST DUP10 DUP3 LT EQ PUSH3 0x470 JUMPI DUP10 DUP2 GT PUSH3 0x425 JUMPI JUMPDEST POP DUP8 SWAP1 DUP10 DUP6 GT PUSH1 0x1 EQ PUSH3 0x3BC JUMPI DUP5 SWAP6 POP SWAP1 DUP5 SWAP3 SWAP2 PUSH1 0x0 SWAP6 PUSH3 0x3B0 JUMPI JUMPDEST POP POP SHL SWAP3 PUSH1 0x0 NOT SWAP2 SHL SHR NOT AND OR DUP3 SSTORE JUMPDEST PUSH1 0xFF NOT PUSH1 0x5 SLOAD AND PUSH1 0x5 SSTORE PUSH3 0x180 CALLER PUSH3 0x5C6 JUMP JUMPDEST PUSH3 0x18B DUP7 PUSH3 0x5C6 JUMP JUMPDEST PUSH1 0x1 DUP1 PUSH1 0xA0 SHL SUB DUP1 SWAP2 AND SWAP6 DUP7 PUSH1 0x1 DUP1 PUSH1 0xA0 SHL SUB NOT PUSH1 0x7 SLOAD AND OR PUSH1 0x7 SSTORE PUSH9 0x2B5E3AF16B1880000 PUSH1 0x31 DUP8 MLOAD PUSH17 0x383937B837B9B0B62FB1B932B0BA34B7B7 PUSH1 0x79 SHL DUP2 MSTORE PUSH1 0x8 PUSH1 0x11 DUP3 ADD MSTORE KECCAK256 SSTORE PUSH8 0x8AC7230489E80000 PUSH1 0x29 DUP8 MLOAD PUSH9 0x1D9BDD1957D8D85CDD PUSH1 0xBA SHL DUP2 MSTORE PUSH1 0x8 PUSH1 0x9 DUP3 ADD MSTORE KECCAK256 SSTORE PUSH9 0x56BC75E2D63100000 PUSH1 0x2F DUP8 MLOAD PUSH15 0x1C1C9BDC1BDCD85B17DC185CDCD959 PUSH1 0x8A SHL DUP2 MSTORE PUSH1 0x8 PUSH1 0xF DUP3 ADD MSTORE KECCAK256 SSTORE PUSH8 0xD02AB486CEDC0000 PUSH1 0x2B DUP8 MLOAD PUSH11 0x32B0B9363CAFBB37BA32B9 PUSH1 0xA9 SHL DUP2 MSTORE PUSH1 0x8 PUSH1 0xB DUP3 ADD MSTORE KECCAK256 SSTORE PUSH9 0x15AF1D78B58C40000 PUSH1 0x34 DUP8 MLOAD PUSH32 0x636F6D6D756E6974795F656E676167656D656E74000000000000000000000000 DUP2 MSTORE PUSH1 0x8 PUSH1 0x14 DUP3 ADD MSTORE KECCAK256 SSTORE AND SWAP3 DUP4 ISZERO PUSH3 0x371 JUMPI POP PUSH1 0xFF PUSH1 0x5 SLOAD AND PUSH3 0x33D JUMPI PUSH1 0x2 SLOAD PUSH10 0xD3C21BCECCEDA1000000 SWAP2 DUP3 DUP3 ADD DUP1 SWAP3 GT PUSH3 0x328 JUMPI POP PUSH1 0x2 SSTORE PUSH1 0x0 DUP4 DUP2 MSTORE DUP1 DUP4 MSTORE DUP5 DUP2 KECCAK256 DUP1 SLOAD DUP4 ADD SWAP1 SSTORE DUP5 MLOAD SWAP2 DUP3 MSTORE SWAP2 PUSH32 0xDDF252AD1BE2C89B69C2B068FC378DAA952BA7F163C4A11628F55A4DF523B3EF SWAP2 LOG3 MLOAD SWAP1 PUSH32 0x15057BBEC20FE352AC8931E529ADE6A9CE138C954FFC87D6AA3423DD066C4ACD PUSH1 0x0 DUP1 LOG2 PUSH2 0x1C30 SWAP1 DUP2 PUSH3 0x623 DUP3 CODECOPY RETURN JUMPDEST PUSH1 0x11 SWAP1 PUSH4 0x4E487B71 PUSH1 0xE0 SHL PUSH1 0x0 MSTORE MSTORE PUSH1 0x24 PUSH1 0x0 REVERT JUMPDEST PUSH1 0x64 SWAP2 DUP5 MLOAD SWAP2 PUSH3 0x461BCD PUSH1 0xE5 SHL DUP4 MSTORE DUP3 ADD MSTORE PUSH1 0x10 PUSH1 0x24 DUP3 ADD MSTORE PUSH16 0x14185D5CD8589B194E881C185D5CD959 PUSH1 0x82 SHL PUSH1 0x44 DUP3 ADD MSTORE REVERT JUMPDEST PUSH1 0x64 SWAP3 DUP6 MLOAD SWAP3 PUSH3 0x461BCD PUSH1 0xE5 SHL DUP5 MSTORE DUP4 ADD MSTORE PUSH1 0x24 DUP3 ADD MSTORE PUSH32 0x45524332303A206D696E7420746F20746865207A65726F206164647265737300 PUSH1 0x44 DUP3 ADD MSTORE REVERT JUMPDEST ADD MLOAD SWAP4 POP CODESIZE DUP1 PUSH3 0x15B JUMP JUMPDEST SWAP3 SWAP2 SWAP5 DUP5 AND SWAP3 DUP8 PUSH1 0x0 MSTORE DUP5 DUP10 PUSH1 0x0 KECCAK256 SWAP5 PUSH1 0x0 JUMPDEST DUP12 DUP10 DUP4 DUP4 LT PUSH3 0x40D JUMPI POP POP POP LT PUSH3 0x3F2 JUMPI JUMPDEST POP POP POP POP DUP2 SHL ADD DUP3 SSTORE PUSH3 0x16B JUMP JUMPDEST ADD MLOAD SWAP1 PUSH1 0xF8 DUP5 PUSH1 0x0 NOT SWAP3 SHL AND SHR NOT AND SWAP1 SSTORE CODESIZE DUP1 DUP1 DUP1 PUSH3 0x3E3 JUMP JUMPDEST DUP7 DUP7 ADD MLOAD DUP10 SSTORE SWAP1 SWAP8 ADD SWAP7 SWAP5 DUP6 ADD SWAP5 DUP9 SWAP4 POP ADD PUSH3 0x3CF JUMP JUMPDEST DUP8 PUSH1 0x0 MSTORE DUP9 PUSH1 0x0 KECCAK256 DUP11 DUP1 DUP8 ADD PUSH1 0x5 SHR DUP3 ADD SWAP3 DUP12 DUP9 LT PUSH3 0x466 JUMPI JUMPDEST ADD PUSH1 0x5 SHR ADD SWAP1 DUP4 SWAP1 JUMPDEST DUP3 DUP2 LT PUSH3 0x459 JUMPI POP POP PUSH3 0x13D JUMP JUMPDEST PUSH1 0x0 DUP2 SSTORE ADD DUP4 SWAP1 PUSH3 0x449 JUMP JUMPDEST SWAP3 POP DUP2 SWAP3 PUSH3 0x440 JUMP JUMPDEST PUSH1 0x22 DUP9 PUSH4 0x4E487B71 PUSH1 0xE0 SHL PUSH1 0x0 MSTORE MSTORE PUSH1 0x24 PUSH1 0x0 REVERT JUMPDEST SWAP1 PUSH1 0x7F AND SWAP1 PUSH3 0x12B JUMP JUMPDEST PUSH4 0x4E487B71 PUSH1 0xE0 SHL PUSH1 0x0 MSTORE PUSH1 0x41 PUSH1 0x4 MSTORE PUSH1 0x24 PUSH1 0x0 REVERT JUMPDEST ADD MLOAD SWAP1 POP CODESIZE DUP1 PUSH3 0xFC JUMP JUMPDEST SWAP1 DUP8 DUP6 SWAP5 AND SWAP2 DUP7 PUSH1 0x0 MSTORE DUP12 PUSH1 0x0 KECCAK256 SWAP3 PUSH1 0x0 JUMPDEST DUP14 DUP3 DUP3 LT PUSH3 0x4FE JUMPI POP POP DUP5 GT PUSH3 0x4E5 JUMPI JUMPDEST POP POP POP DUP2 SHL ADD DUP3 SSTORE PUSH3 0x10E JUMP JUMPDEST ADD MLOAD PUSH1 0x0 NOT DUP4 DUP8 SHL PUSH1 0xF8 AND SHR NOT AND SWAP1 SSTORE CODESIZE DUP1 DUP1 PUSH3 0x4D7 JUMP JUMPDEST DUP4 DUP6 ADD MLOAD DUP7 SSTORE DUP9 SWAP8 SWAP1 SWAP6 ADD SWAP5 SWAP4 DUP5 ADD SWAP4 ADD PUSH3 0x4C4 JUMP JUMPDEST SWAP1 SWAP2 POP DUP5 PUSH1 0x0 MSTORE DUP10 PUSH1 0x0 KECCAK256 DUP12 DUP1 DUP6 ADD PUSH1 0x5 SHR DUP3 ADD SWAP3 DUP13 DUP7 LT PUSH3 0x561 JUMPI JUMPDEST SWAP2 DUP7 SWAP2 DUP7 SWAP6 SWAP5 SWAP4 ADD PUSH1 0x5 SHR ADD SWAP2 JUMPDEST DUP3 DUP2 LT PUSH3 0x551 JUMPI POP POP PUSH3 0xE5 JUMP JUMPDEST PUSH1 0x0 DUP2 SSTORE DUP6 SWAP5 POP DUP7 SWAP2 ADD PUSH3 0x541 JUMP JUMPDEST SWAP3 POP DUP2 SWAP3 PUSH3 0x533 JUMP JUMPDEST PUSH4 0x4E487B71 PUSH1 0xE0 SHL PUSH1 0x0 MSTORE PUSH1 0x22 PUSH1 0x4 MSTORE PUSH1 0x24 PUSH1 0x0 REVERT JUMPDEST SWAP2 PUSH1 0x7F AND SWAP2 PUSH3 0xD1 JUMP JUMPDEST PUSH1 0x0 DUP1 REVERT JUMPDEST PUSH1 0x40 DUP1 MLOAD SWAP2 SWAP1 DUP3 ADD PUSH1 0x1 PUSH1 0x1 PUSH1 0x40 SHL SUB DUP2 GT DUP4 DUP3 LT OR PUSH3 0x490 JUMPI PUSH1 0x40 MSTORE JUMP JUMPDEST MLOAD SWAP1 PUSH1 0x1 PUSH1 0x1 PUSH1 0xA0 SHL SUB DUP3 AND DUP3 SUB PUSH3 0x58C JUMPI JUMP JUMPDEST PUSH1 0x5 DUP1 SLOAD PUSH2 0x100 PUSH1 0x1 PUSH1 0xA8 SHL SUB NOT DUP2 AND PUSH1 0x8 DUP5 DUP2 SHL PUSH2 0x100 PUSH1 0x1 PUSH1 0xA8 SHL SUB AND SWAP2 SWAP1 SWAP2 OR SWAP1 SWAP3 SSTORE PUSH1 0x1 PUSH1 0x1 PUSH1 0xA0 SHL SUB SWAP3 DUP4 AND SWAP3 SWAP2 SHR AND PUSH32 0x8BE0079C531659141344CD1FD0A4F28419497F9722A3DAAFE3B4186F6B6457E0 PUSH1 0x0 DUP1 LOG3 JUMP INVALID PUSH1 0x80 PUSH1 0x40 DUP2 DUP2 MSTORE PUSH1 0x4 DUP1 CALLDATASIZE LT ISZERO PUSH2 0x15 JUMPI PUSH1 0x0 DUP1 REVERT JUMPDEST PUSH1 0x0 SWAP3 DUP4 CALLDATALOAD PUSH1 0xE0 SHR SWAP1 DUP2 PUSH4 0x6FDDE03 EQ PUSH2 0x1389 JUMPI POP DUP1 PUSH4 0x78B0FB7 EQ PUSH2 0x69E JUMPI DUP1 PUSH4 0x95EA7B3 EQ PUSH2 0x135F JUMPI DUP1 PUSH4 0x1129753F EQ PUSH2 0x12A3 JUMPI DUP1 PUSH4 0x18160DDD EQ PUSH2 0x1284 JUMPI DUP1 PUSH4 0x23B872DD EQ PUSH2 0x1247 JUMPI DUP1 PUSH4 0x2CAE1939 EQ PUSH2 0x1152 JUMPI DUP1 PUSH4 0x2FF2E9DC EQ PUSH2 0x112D JUMPI DUP1 PUSH4 0x313CE567 EQ PUSH2 0x1111 JUMPI DUP1 PUSH4 0x32CB6B0C EQ PUSH2 0x10EB JUMPI DUP1 PUSH4 0x39509351 EQ PUSH2 0x109B JUMPI DUP1 PUSH4 0x3B5D441E EQ PUSH2 0x1063 JUMPI DUP1 PUSH4 0x3F4BA83A EQ PUSH2 0xFCE JUMPI DUP1 PUSH4 0x42966C68 EQ PUSH2 0xFB0 JUMPI DUP1 PUSH4 0x54FD4D50 EQ PUSH2 0xF44 JUMPI DUP1 PUSH4 0x5C975ABB EQ PUSH2 0xF20 JUMPI DUP1 PUSH4 0x5F8BC23C EQ PUSH2 0xCD1 JUMPI DUP1 PUSH4 0x6B692417 EQ PUSH2 0x71F JUMPI DUP1 PUSH4 0x70A08231 EQ PUSH2 0xC9A JUMPI DUP1 PUSH4 0x715018A6 EQ PUSH2 0xC39 JUMPI DUP1 PUSH4 0x79CC6790 EQ PUSH2 0xC06 JUMPI DUP1 PUSH4 0x8456CB59 EQ PUSH2 0xBAB JUMPI DUP1 PUSH4 0x8DA5CB5B EQ PUSH2 0xB7E JUMPI DUP1 PUSH4 0x95D89B41 EQ PUSH2 0xA63 JUMPI DUP1 PUSH4 0xA1809B95 EQ PUSH2 0x9A5 JUMPI DUP1 PUSH4 0xA457C2D7 EQ PUSH2 0x901 JUMPI DUP1 PUSH4 0xA9059CBB EQ PUSH2 0x8D0 JUMPI DUP1 PUSH4 0xACC2166A EQ PUSH2 0x8A7 JUMPI DUP1 PUSH4 0xB172B222 EQ PUSH2 0x87E JUMPI DUP1 PUSH4 0xB49B0CB3 EQ PUSH2 0x77F JUMPI DUP1 PUSH4 0xBD46CD18 EQ PUSH2 0x71F JUMPI DUP1 PUSH4 0xDD62ED3E EQ PUSH2 0x6D6 JUMPI DUP1 PUSH4 0xE4F24CB0 EQ PUSH2 0x69E JUMPI DUP1 PUSH4 0xE8EC8547 EQ PUSH2 0x27F JUMPI PUSH4 0xF2FDE38B EQ PUSH2 0x1A4 JUMPI PUSH1 0x0 DUP1 REVERT JUMPDEST CALLVALUE PUSH2 0x27B JUMPI PUSH1 0x20 CALLDATASIZE PUSH1 0x3 NOT ADD SLT PUSH2 0x27B JUMPI PUSH2 0x1BD PUSH2 0x14C5 JUMP JUMPDEST PUSH2 0x1C5 PUSH2 0x159D JUMP JUMPDEST PUSH1 0x1 PUSH1 0x1 PUSH1 0xA0 SHL SUB DUP2 DUP2 AND SWAP4 SWAP1 SWAP3 SWAP1 DUP5 ISZERO PUSH2 0x229 JUMPI POP POP PUSH1 0x5 DUP1 SLOAD PUSH2 0x100 PUSH1 0x1 PUSH1 0xA8 SHL SUB NOT DUP2 AND PUSH1 0x8 SWAP4 DUP5 SHL PUSH2 0x100 PUSH1 0x1 PUSH1 0xA8 SHL SUB AND OR SWAP1 SWAP2 SSTORE SWAP1 SHR AND PUSH32 0x8BE0079C531659141344CD1FD0A4F28419497F9722A3DAAFE3B4186F6B6457E0 DUP4 DUP1 LOG3 DUP1 RETURN JUMPDEST SWAP1 PUSH1 0x20 PUSH1 0x84 SWAP3 MLOAD SWAP2 PUSH3 0x461BCD PUSH1 0xE5 SHL DUP4 MSTORE DUP3 ADD MSTORE PUSH1 0x26 PUSH1 0x24 DUP3 ADD MSTORE PUSH32 0x4F776E61626C653A206E6577206F776E657220697320746865207A65726F2061 PUSH1 0x44 DUP3 ADD MSTORE PUSH6 0x646472657373 PUSH1 0xD0 SHL PUSH1 0x64 DUP3 ADD MSTORE REVERT JUMPDEST DUP3 DUP1 REVERT JUMPDEST POP DUP3 SWAP1 CALLVALUE PUSH2 0x69A JUMPI PUSH1 0x60 CALLDATASIZE PUSH1 0x3 NOT ADD SLT PUSH2 0x69A JUMPI DUP1 CALLDATALOAD SWAP2 PUSH8 0xFFFFFFFFFFFFFFFF SWAP2 DUP3 DUP5 GT PUSH2 0x69A JUMPI CALLDATASIZE PUSH1 0x23 DUP6 ADD SLT ISZERO PUSH2 0x69A JUMPI DUP4 DUP2 ADD CALLDATALOAD SWAP5 PUSH2 0x2C0 DUP7 PUSH2 0x1585 JUMP JUMPDEST SWAP5 PUSH2 0x2CD DUP3 MLOAD SWAP7 DUP8 PUSH2 0x14F6 JUMP JUMPDEST DUP7 DUP7 MSTORE PUSH1 0x20 SWAP1 DUP2 DUP8 ADD PUSH1 0x24 DUP1 SWAP10 PUSH1 0x5 SHL DUP4 ADD ADD SWAP2 CALLDATASIZE DUP4 GT PUSH2 0x696 JUMPI DUP10 ADD SWAP1 JUMPDEST DUP3 DUP3 LT PUSH2 0x677 JUMPI POP POP POP DUP7 CALLDATALOAD DUP6 DUP2 GT PUSH2 0x673 JUMPI PUSH2 0x30C SWAP1 CALLDATASIZE SWAP1 DUP6 ADD PUSH2 0x152E JUMP JUMPDEST SWAP3 PUSH1 0x44 CALLDATALOAD SWAP6 DUP7 GT PUSH2 0x673 JUMPI CALLDATASIZE PUSH1 0x23 DUP8 ADD SLT ISZERO PUSH2 0x673 JUMPI DUP6 DUP2 ADD CALLDATALOAD SWAP6 PUSH2 0x330 DUP8 PUSH2 0x1585 JUMP JUMPDEST SWAP7 PUSH2 0x33D DUP6 MLOAD SWAP9 DUP10 PUSH2 0x14F6 JUMP JUMPDEST DUP1 DUP9 MSTORE DUP10 DUP5 DUP10 ADD SWAP2 PUSH1 0x5 SHL DUP4 ADD ADD SWAP2 CALLDATASIZE DUP4 GT PUSH2 0x66F JUMPI DUP11 DUP6 SWAP2 ADD SWAP2 JUMPDEST DUP4 DUP4 LT PUSH2 0x65F JUMPI POP POP PUSH1 0x6 SLOAD PUSH1 0x1 PUSH1 0x1 PUSH1 0xA0 SHL SUB SWAP3 POP DUP3 AND CALLER EQ SWAP1 POP DUP1 ISZERO PUSH2 0x652 JUMPI JUMPDEST DUP1 ISZERO PUSH2 0x63D JUMPI JUMPDEST PUSH2 0x38C SWAP1 PUSH2 0x1A3A JUMP JUMPDEST PUSH2 0x394 PUSH2 0x1AD2 JUMP JUMPDEST DUP8 MLOAD DUP8 MLOAD SUB PUSH2 0x5FC JUMPI PUSH1 0x64 DUP9 MLOAD GT PUSH2 0x5BB JUMPI DUP6 SWAP1 DUP7 JUMPDEST DUP10 MLOAD DUP2 LT ISZERO PUSH2 0x4D6 JUMPI DUP2 PUSH2 0x3BE DUP3 DUP13 PUSH2 0x1BD0 JUMP JUMPDEST MLOAD AND PUSH2 0x3CA DUP3 DUP12 PUSH2 0x1BD0 JUMP JUMPDEST MLOAD ISZERO PUSH2 0x4B0 JUMPI PUSH2 0x3DA DUP3 DUP12 PUSH2 0x1BD0 JUMP JUMPDEST MLOAD SWAP1 JUMPDEST DUP1 ISZERO ISZERO DUP1 PUSH2 0x4A7 JUMPI JUMPDEST DUP1 PUSH2 0x475 JUMPI JUMPDEST PUSH2 0x401 JUMPI JUMPDEST POP POP PUSH2 0x3FC SWAP1 PUSH2 0x1BC1 JUMP JUMPDEST PUSH2 0x3AA JUMP JUMPDEST PUSH32 0x11FAB1C2B2B1E06F3D509BA355C10F99492C59C38B24AF8FA8AD01846A8EB746 PUSH2 0x431 DUP4 PUSH2 0x3FC SWAP6 SWAP5 SWAP8 PUSH2 0x15F8 JUMP JUMPDEST SWAP6 DUP3 DUP13 MSTORE PUSH1 0x9 DUP10 MSTORE TIMESTAMP DUP11 DUP14 KECCAK256 SSTORE PUSH1 0xA DUP10 MSTORE DUP10 DUP13 KECCAK256 PUSH2 0x450 DUP3 DUP3 SLOAD PUSH2 0x15F8 JUMP JUMPDEST SWAP1 SSTORE DUP10 MLOAD DUP1 SWAP2 DUP12 DUP3 MSTORE PUSH2 0x466 DUP14 DUP14 DUP5 ADD SWAP1 PUSH2 0x14A0 JUMP JUMPDEST SWAP1 DUP12 DUP4 ADD MSTORE SUB SWAP1 LOG2 SWAP1 DUP13 PUSH2 0x3F1 JUMP JUMPDEST POP DUP1 DUP11 MSTORE PUSH1 0x9 DUP8 MSTORE DUP8 DUP11 KECCAK256 SLOAD PUSH2 0xE10 DUP2 ADD DUP1 SWAP2 GT PUSH2 0x495 JUMPI TIMESTAMP LT ISZERO PUSH2 0x3EC JUMP JUMPDEST PUSH4 0x4E487B71 PUSH1 0xE0 SHL DUP12 MSTORE PUSH1 0x11 DUP8 MSTORE DUP14 DUP12 REVERT JUMPDEST POP DUP2 ISZERO ISZERO PUSH2 0x3E6 JUMP JUMPDEST DUP7 MLOAD DUP7 DUP2 DUP2 PUSH2 0x4C5 DUP13 DUP4 DUP2 MLOAD SWAP4 DUP5 SWAP3 ADD PUSH2 0x147D JUMP JUMPDEST DUP2 ADD PUSH1 0x8 DUP2 MSTORE SUB ADD SWAP1 KECCAK256 SLOAD SWAP1 PUSH2 0x3DD JUMP JUMPDEST DUP8 DUP10 DUP12 DUP10 DUP9 DUP11 DUP8 DUP10 PUSH2 0x500 PUSH11 0x84595161401484A000000 PUSH2 0x4F9 DUP4 PUSH1 0x2 SLOAD PUSH2 0x15F8 JUMP JUMPDEST GT ISZERO PUSH2 0x1A86 JUMP JUMPDEST DUP1 PUSH2 0x509 JUMPI DUP8 DUP1 RETURN JUMPDEST PUSH2 0x517 SWAP1 SWAP8 SWAP6 SWAP7 SWAP8 ADDRESS PUSH2 0x1B16 JUMP JUMPDEST DUP5 JUMPDEST DUP7 MLOAD DUP2 LT ISZERO PUSH2 0x5A8 JUMPI DUP1 DUP3 PUSH2 0x531 PUSH2 0x564 SWAP4 DUP11 PUSH2 0x1BD0 JUMP JUMPDEST MLOAD AND PUSH2 0x53D DUP3 DUP12 PUSH2 0x1BD0 JUMP JUMPDEST MLOAD ISZERO PUSH2 0x583 JUMPI PUSH2 0x54D DUP3 DUP12 PUSH2 0x1BD0 JUMP JUMPDEST MLOAD JUMPDEST DUP2 ISZERO ISZERO DUP1 PUSH2 0x57A JUMPI JUMPDEST PUSH2 0x569 JUMPI JUMPDEST POP POP PUSH2 0x1BC1 JUMP JUMPDEST PUSH2 0x519 JUMP JUMPDEST PUSH2 0x573 SWAP2 ADDRESS PUSH2 0x161B JUMP JUMPDEST DUP10 DUP1 PUSH2 0x55D JUMP JUMPDEST POP DUP1 ISZERO ISZERO PUSH2 0x558 JUMP JUMPDEST DUP5 MLOAD DUP7 DUP2 DUP2 PUSH2 0x598 DUP12 DUP4 DUP2 MLOAD SWAP4 DUP5 SWAP3 ADD PUSH2 0x147D JUMP JUMPDEST DUP2 ADD PUSH1 0x8 DUP2 MSTORE SUB ADD SWAP1 KECCAK256 SLOAD PUSH2 0x54F JUMP JUMPDEST POP POP POP POP POP SWAP2 POP POP DUP2 DUP1 DUP1 DUP1 DUP1 DUP1 DUP1 DUP8 DUP1 RETURN JUMPDEST POP PUSH1 0x19 DUP9 PUSH1 0x64 SWAP4 DUP6 MLOAD SWAP4 PUSH3 0x461BCD PUSH1 0xE5 SHL DUP6 MSTORE DUP5 ADD MSTORE DUP3 ADD MSTORE PUSH32 0x494343546F6B656E3A20426174636820746F6F206C6172676500000000000000 PUSH1 0x44 DUP3 ADD MSTORE REVERT JUMPDEST POP PUSH1 0x1F DUP9 PUSH1 0x64 SWAP4 DUP6 MLOAD SWAP4 PUSH3 0x461BCD PUSH1 0xE5 SHL DUP6 MSTORE DUP5 ADD MSTORE DUP3 ADD MSTORE PUSH32 0x494343546F6B656E3A204172726179206C656E677468206D69736D6174636800 PUSH1 0x44 DUP3 ADD MSTORE REVERT JUMPDEST POP PUSH2 0x38C DUP2 PUSH1 0x5 SLOAD PUSH1 0x8 SHR AND CALLER EQ SWAP1 POP PUSH2 0x383 JUMP JUMPDEST POP DUP1 PUSH1 0x7 SLOAD AND CALLER EQ PUSH2 0x37C JUMP JUMPDEST DUP3 CALLDATALOAD DUP2 MSTORE SWAP2 DUP2 ADD SWAP2 DUP6 SWAP2 ADD PUSH2 0x359 JUMP JUMPDEST DUP8 DUP1 REVERT JUMPDEST DUP5 DUP1 REVERT JUMPDEST DUP2 CALLDATALOAD PUSH1 0x1 PUSH1 0x1 PUSH1 0xA0 SHL SUB DUP2 AND DUP2 SUB PUSH2 0x66F JUMPI DUP2 MSTORE SWAP1 DUP4 ADD SWAP1 DUP4 ADD PUSH2 0x2EC JUMP JUMPDEST DUP7 DUP1 REVERT JUMPDEST POP DUP1 REVERT JUMPDEST POP POP CALLVALUE PUSH2 0x69A JUMPI PUSH1 0x20 CALLDATASIZE PUSH1 0x3 NOT ADD SLT PUSH2 0x69A JUMPI PUSH1 0x20 SWAP2 DUP2 SWAP1 PUSH1 0x1 PUSH1 0x1 PUSH1 0xA0 SHL SUB PUSH2 0x6C6 PUSH2 0x14C5 JUMP JUMPDEST AND DUP2 MSTORE PUSH1 0xA DUP5 MSTORE KECCAK256 SLOAD SWAP1 MLOAD SWAP1 DUP2 MSTORE RETURN JUMPDEST POP POP CALLVALUE PUSH2 0x69A JUMPI DUP1 PUSH1 0x3 NOT CALLDATASIZE ADD SLT PUSH2 0x69A JUMPI DUP1 PUSH1 0x20 SWAP3 PUSH2 0x6F4 PUSH2 0x14C5 JUMP JUMPDEST PUSH2 0x6FC PUSH2 0x14E0 JUMP JUMPDEST PUSH1 0x1 PUSH1 0x1 PUSH1 0xA0 SHL SUB SWAP2 DUP3 AND DUP4 MSTORE PUSH1 0x1 DUP7 MSTORE DUP4 DUP4 KECCAK256 SWAP2 AND DUP3 MSTORE DUP5 MSTORE KECCAK256 SLOAD SWAP1 MLOAD SWAP1 DUP2 MSTORE RETURN JUMPDEST POP SWAP2 CALLVALUE PUSH2 0x77C JUMPI PUSH1 0x20 CALLDATASIZE PUSH1 0x3 NOT ADD SLT PUSH2 0x77C JUMPI DUP3 CALLDATALOAD SWAP1 PUSH8 0xFFFFFFFFFFFFFFFF DUP3 GT PUSH2 0x77C JUMPI POP PUSH1 0x20 PUSH2 0x758 DUP2 SWAP5 PUSH2 0x76A SWAP4 CALLDATASIZE SWAP2 ADD PUSH2 0x152E JUMP JUMPDEST DUP2 DUP5 MLOAD SWAP4 DUP3 DUP6 DUP1 SWAP5 MLOAD SWAP4 DUP5 SWAP3 ADD PUSH2 0x147D JUMP JUMPDEST DUP2 ADD PUSH1 0x8 DUP2 MSTORE SUB ADD SWAP1 KECCAK256 SLOAD SWAP1 MLOAD SWAP1 DUP2 MSTORE RETURN JUMPDEST DUP1 REVERT JUMPDEST POP SWAP1 CALLVALUE PUSH2 0x27B JUMPI DUP1 PUSH1 0x3 NOT CALLDATASIZE ADD SLT PUSH2 0x27B JUMPI PUSH2 0x799 PUSH2 0x14C5 JUMP JUMPDEST SWAP2 PUSH2 0x7A2 PUSH2 0x159D JUMP JUMPDEST PUSH1 0x1 PUSH1 0x1 PUSH1 0xA0 SHL SUB SWAP3 DUP4 AND SWAP3 ADDRESS DUP5 EQ PUSH2 0x82F JUMPI SWAP1 PUSH1 0x44 PUSH1 0x20 SWAP3 PUSH1 0x5 SLOAD PUSH1 0x8 SHR AND SWAP2 DUP7 DUP6 MLOAD SWAP7 DUP8 SWAP5 DUP6 SWAP4 PUSH4 0xA9059CBB PUSH1 0xE0 SHL DUP6 MSTORE DUP5 ADD MSTORE PUSH1 0x24 CALLDATALOAD PUSH1 0x24 DUP5 ADD MSTORE GAS CALL SWAP1 DUP2 ISZERO PUSH2 0x826 JUMPI POP PUSH2 0x7F2 JUMPI POP DUP1 RETURN JUMPDEST PUSH1 0x20 DUP2 RETURNDATASIZE DUP3 GT PUSH2 0x81E JUMPI JUMPDEST DUP2 PUSH2 0x80A PUSH1 0x20 SWAP4 DUP4 PUSH2 0x14F6 JUMP JUMPDEST DUP2 ADD SUB SLT PUSH2 0x69A JUMPI MLOAD DUP1 ISZERO ISZERO SUB PUSH2 0x77C JUMPI DUP1 RETURN JUMPDEST RETURNDATASIZE SWAP2 POP PUSH2 0x7FD JUMP JUMPDEST MLOAD RETURNDATASIZE DUP5 DUP3 RETURNDATACOPY RETURNDATASIZE SWAP1 REVERT JUMPDEST POP PUSH1 0x20 PUSH1 0x84 SWAP3 MLOAD SWAP2 PUSH3 0x461BCD PUSH1 0xE5 SHL DUP4 MSTORE DUP3 ADD MSTORE PUSH1 0x23 PUSH1 0x24 DUP3 ADD MSTORE PUSH32 0x494343546F6B656E3A2043616E6E6F74207265636F766572206F776E20746F6B PUSH1 0x44 DUP3 ADD MSTORE PUSH3 0x656E73 PUSH1 0xE8 SHL PUSH1 0x64 DUP3 ADD MSTORE REVERT JUMPDEST POP POP CALLVALUE PUSH2 0x69A JUMPI DUP2 PUSH1 0x3 NOT CALLDATASIZE ADD SLT PUSH2 0x69A JUMPI PUSH1 0x6 SLOAD SWAP1 MLOAD PUSH1 0x1 PUSH1 0x1 PUSH1 0xA0 SHL SUB SWAP1 SWAP2 AND DUP2 MSTORE PUSH1 0x20 SWAP1 RETURN JUMPDEST POP POP CALLVALUE PUSH2 0x69A JUMPI DUP2 PUSH1 0x3 NOT CALLDATASIZE ADD SLT PUSH2 0x69A JUMPI PUSH1 0x7 SLOAD SWAP1 MLOAD PUSH1 0x1 PUSH1 0x1 PUSH1 0xA0 SHL SUB SWAP1 SWAP2 AND DUP2 MSTORE PUSH1 0x20 SWAP1 RETURN JUMPDEST POP POP CALLVALUE PUSH2 0x69A JUMPI DUP1 PUSH1 0x3 NOT CALLDATASIZE ADD SLT PUSH2 0x69A JUMPI PUSH1 0x20 SWAP1 PUSH2 0x8FA PUSH2 0x8F0 PUSH2 0x14C5 JUMP JUMPDEST PUSH1 0x24 CALLDATALOAD SWAP1 CALLER PUSH2 0x161B JUMP JUMPDEST MLOAD PUSH1 0x1 DUP2 MSTORE RETURN JUMPDEST POP DUP3 CALLVALUE PUSH2 0x77C JUMPI DUP3 PUSH1 0x3 NOT CALLDATASIZE ADD SLT PUSH2 0x77C JUMPI PUSH2 0x91B PUSH2 0x14C5 JUMP JUMPDEST SWAP2 DUP4 PUSH1 0x24 CALLDATALOAD SWAP3 CALLER DUP2 MSTORE PUSH1 0x1 PUSH1 0x20 MSTORE DUP2 DUP2 KECCAK256 PUSH1 0x1 DUP1 PUSH1 0xA0 SHL SUB DUP7 AND DUP3 MSTORE PUSH1 0x20 MSTORE KECCAK256 SLOAD SWAP1 DUP3 DUP3 LT PUSH2 0x954 JUMPI PUSH1 0x20 DUP6 PUSH2 0x8FA DUP6 DUP6 SUB DUP8 CALLER PUSH2 0x1791 JUMP JUMPDEST PUSH1 0x84 SWAP1 PUSH1 0x20 DUP7 MLOAD SWAP2 PUSH3 0x461BCD PUSH1 0xE5 SHL DUP4 MSTORE DUP3 ADD MSTORE PUSH1 0x25 PUSH1 0x24 DUP3 ADD MSTORE PUSH32 0x45524332303A2064656372656173656420616C6C6F77616E63652062656C6F77 PUSH1 0x44 DUP3 ADD MSTORE PUSH5 0x207A65726F PUSH1 0xD8 SHL PUSH1 0x64 DUP3 ADD MSTORE REVERT JUMPDEST POP CALLVALUE PUSH2 0x27B JUMPI PUSH1 0x20 CALLDATASIZE PUSH1 0x3 NOT ADD SLT PUSH2 0x27B JUMPI PUSH2 0x9BF PUSH2 0x14C5 JUMP JUMPDEST PUSH2 0x9C7 PUSH2 0x159D JUMP JUMPDEST PUSH1 0x1 PUSH1 0x1 PUSH1 0xA0 SHL SUB AND SWAP2 DUP3 ISZERO PUSH2 0xA12 JUMPI POP POP PUSH1 0x7 DUP1 SLOAD PUSH1 0x1 PUSH1 0x1 PUSH1 0xA0 SHL SUB NOT AND DUP3 OR SWAP1 SSTORE PUSH32 0x15057BBEC20FE352AC8931E529ADE6A9CE138C954FFC87D6AA3423DD066C4ACD DUP3 DUP1 LOG2 DUP1 RETURN JUMPDEST SWAP1 PUSH1 0x20 PUSH1 0x84 SWAP3 MLOAD SWAP2 PUSH3 0x461BCD PUSH1 0xE5 SHL DUP4 MSTORE DUP3 ADD MSTORE PUSH1 0x25 PUSH1 0x24 DUP3 ADD MSTORE PUSH32 0x494343546F6B656E3A20496E76616C6964206469737472696275746F72206164 PUSH1 0x44 DUP3 ADD MSTORE PUSH5 0x6472657373 PUSH1 0xD8 SHL PUSH1 0x64 DUP3 ADD MSTORE REVERT JUMPDEST POP SWAP2 CALLVALUE PUSH2 0x77C JUMPI DUP1 PUSH1 0x3 NOT CALLDATASIZE ADD SLT PUSH2 0x77C JUMPI DUP2 MLOAD SWAP2 DUP2 DUP5 SLOAD SWAP3 PUSH1 0x1 DUP5 DUP2 SHR SWAP2 DUP2 DUP7 AND SWAP6 DUP7 ISZERO PUSH2 0xB74 JUMPI JUMPDEST PUSH1 0x20 SWAP7 DUP8 DUP6 LT DUP2 EQ PUSH2 0xB61 JUMPI SWAP1 DUP8 DUP10 SWAP11 SWAP3 DUP7 DUP12 SWAP10 SWAP11 SWAP12 MSTORE SWAP2 DUP3 PUSH1 0x0 EQ PUSH2 0xB37 JUMPI POP POP PUSH1 0x1 EQ PUSH2 0xADC JUMPI JUMPDEST DUP6 DUP9 PUSH2 0xAD8 DUP10 PUSH2 0xAC9 DUP5 DUP11 SUB DUP6 PUSH2 0x14F6 JUMP JUMPDEST MLOAD SWAP3 DUP3 DUP5 SWAP4 DUP5 MSTORE DUP4 ADD SWAP1 PUSH2 0x14A0 JUMP JUMPDEST SUB SWAP1 RETURN JUMPDEST DUP2 MSTORE DUP7 SWAP4 POP SWAP2 SWAP1 PUSH32 0x8A35ACFBC15FF81A39AE7D344FD709F28E8600B4AA8C65C6B64BFE7FE36BD19B JUMPDEST DUP3 DUP5 LT PUSH2 0xB1F JUMPI POP POP POP DUP3 ADD ADD DUP2 PUSH2 0xAC9 PUSH2 0xAD8 CODESIZE PUSH2 0xAB7 JUMP JUMPDEST DUP1 SLOAD DUP5 DUP11 ADD DUP7 ADD MSTORE DUP9 SWAP6 POP DUP8 SWAP5 SWAP1 SWAP4 ADD SWAP3 DUP2 ADD PUSH2 0xB05 JUMP JUMPDEST PUSH1 0xFF NOT AND DUP9 DUP3 ADD MSTORE SWAP5 ISZERO ISZERO PUSH1 0x5 SHL DUP8 ADD SWAP1 SWAP5 ADD SWAP5 POP DUP6 SWAP4 POP PUSH2 0xAC9 SWAP3 POP PUSH2 0xAD8 SWAP2 POP CODESIZE SWAP1 POP PUSH2 0xAB7 JUMP JUMPDEST PUSH4 0x4E487B71 PUSH1 0xE0 SHL DUP4 MSTORE PUSH1 0x22 DUP11 MSTORE PUSH1 0x24 DUP4 REVERT JUMPDEST SWAP3 PUSH1 0x7F AND SWAP3 PUSH2 0xA8D JUMP JUMPDEST POP POP CALLVALUE PUSH2 0x69A JUMPI DUP2 PUSH1 0x3 NOT CALLDATASIZE ADD SLT PUSH2 0x69A JUMPI PUSH1 0x5 SLOAD SWAP1 MLOAD PUSH1 0x8 SWAP2 SWAP1 SWAP2 SHR PUSH1 0x1 PUSH1 0x1 PUSH1 0xA0 SHL SUB AND DUP2 MSTORE PUSH1 0x20 SWAP1 RETURN JUMPDEST POP POP CALLVALUE PUSH2 0x69A JUMPI DUP2 PUSH1 0x3 NOT CALLDATASIZE ADD SLT PUSH2 0x69A JUMPI PUSH1 0x20 PUSH32 0x62E78CEA01BEE320CD4E420270B5EA74000D11B0C9F74754EBDBFC544B05A258 SWAP2 PUSH2 0xBE9 PUSH2 0x159D JUMP JUMPDEST PUSH2 0xBF1 PUSH2 0x1AD2 JUMP JUMPDEST PUSH1 0x1 PUSH1 0xFF NOT PUSH1 0x5 SLOAD AND OR PUSH1 0x5 SSTORE MLOAD CALLER DUP2 MSTORE LOG1 DUP1 RETURN JUMPDEST POP POP CALLVALUE PUSH2 0x69A JUMPI CALLDATASIZE PUSH1 0x3 NOT ADD SLT PUSH2 0x77C JUMPI PUSH2 0xC36 PUSH2 0xC22 PUSH2 0x14C5 JUMP JUMPDEST PUSH1 0x24 CALLDATALOAD SWAP1 PUSH2 0xC31 DUP3 CALLER DUP4 PUSH2 0x1893 JUMP JUMPDEST PUSH2 0x192B JUMP JUMPDEST DUP1 RETURN JUMPDEST DUP4 CALLVALUE PUSH2 0x77C JUMPI DUP1 PUSH1 0x3 NOT CALLDATASIZE ADD SLT PUSH2 0x77C JUMPI PUSH2 0xC52 PUSH2 0x159D JUMP JUMPDEST PUSH1 0x5 DUP1 SLOAD PUSH2 0x100 PUSH1 0x1 PUSH1 0xA8 SHL SUB NOT DUP2 AND SWAP1 SWAP2 SSTORE DUP2 SWAP1 PUSH1 0x8 SHR PUSH1 0x1 PUSH1 0x1 PUSH1 0xA0 SHL SUB AND PUSH32 0x8BE0079C531659141344CD1FD0A4F28419497F9722A3DAAFE3B4186F6B6457E0 DUP3 DUP1 LOG3 DUP1 RETURN JUMPDEST POP POP CALLVALUE PUSH2 0x69A JUMPI PUSH1 0x20 CALLDATASIZE PUSH1 0x3 NOT ADD SLT PUSH2 0x69A JUMPI PUSH1 0x20 SWAP2 DUP2 SWAP1 PUSH1 0x1 PUSH1 0x1 PUSH1 0xA0 SHL SUB PUSH2 0xCC2 PUSH2 0x14C5 JUMP JUMPDEST AND DUP2 MSTORE DUP1 DUP5 MSTORE KECCAK256 SLOAD SWAP1 MLOAD SWAP1 DUP2 MSTORE RETURN JUMPDEST POP DUP3 SWAP1 CALLVALUE PUSH2 0x69A JUMPI PUSH1 0x60 CALLDATASIZE PUSH1 0x3 NOT ADD SLT PUSH2 0x69A JUMPI PUSH2 0xCED PUSH2 0x14C5 JUMP JUMPDEST SWAP3 PUSH1 0x24 CALLDATALOAD PUSH8 0xFFFFFFFFFFFFFFFF DUP2 GT PUSH2 0xF1C JUMPI PUSH2 0xD0D SWAP1 CALLDATASIZE SWAP1 DUP5 ADD PUSH2 0x152E JUMP JUMPDEST SWAP1 PUSH1 0x44 CALLDATALOAD SWAP3 PUSH1 0x1 DUP1 PUSH1 0xA0 SHL SUB DUP1 PUSH1 0x6 SLOAD AND CALLER EQ DUP1 ISZERO PUSH2 0xF0F JUMPI JUMPDEST DUP1 ISZERO PUSH2 0xEFA JUMPI JUMPDEST PUSH2 0xD37 SWAP1 PUSH2 0x1A3A JUMP JUMPDEST PUSH2 0xD3F PUSH2 0x1AD2 JUMP JUMPDEST PUSH2 0xD5A PUSH11 0x84595161401484A000000 PUSH2 0x4F9 DUP8 PUSH1 0x2 SLOAD PUSH2 0x15F8 JUMP JUMPDEST DUP7 AND SWAP4 DUP5 ISZERO PUSH2 0xEB7 JUMPI DUP1 ISZERO PUSH2 0xE92 JUMPI JUMPDEST DUP1 ISZERO PUSH2 0xE4F JUMPI DUP5 DUP7 MSTORE PUSH1 0x20 SWAP2 PUSH1 0x9 DUP4 MSTORE DUP4 DUP8 KECCAK256 SLOAD PUSH2 0xE10 DUP2 ADD DUP1 SWAP2 GT PUSH2 0xE3C JUMPI TIMESTAMP LT PUSH2 0xDFB JUMPI POP PUSH2 0xDBE DUP2 PUSH32 0x11FAB1C2B2B1E06F3D509BA355C10F99492C59C38B24AF8FA8AD01846A8EB746 SWAP7 SWAP8 SWAP9 PUSH2 0x1B16 JUMP JUMPDEST DUP6 DUP8 MSTORE PUSH1 0x9 DUP3 MSTORE TIMESTAMP DUP4 DUP9 KECCAK256 SSTORE PUSH1 0xA DUP3 MSTORE DUP3 DUP8 KECCAK256 PUSH2 0xDDC DUP3 DUP3 SLOAD PUSH2 0x15F8 JUMP JUMPDEST SWAP1 SSTORE PUSH2 0xDF1 DUP4 MLOAD SWAP5 DUP5 DUP7 SWAP6 DUP7 MSTORE DUP6 ADD SWAP1 PUSH2 0x14A0 JUMP JUMPDEST SWAP2 DUP4 ADD MSTORE SUB SWAP1 LOG2 DUP1 RETURN JUMPDEST PUSH1 0x64 SWAP1 DUP4 DUP1 DUP7 MLOAD SWAP3 PUSH3 0x461BCD PUSH1 0xE5 SHL DUP5 MSTORE DUP4 ADD MSTORE PUSH1 0x24 DUP3 ADD MSTORE PUSH32 0x494343546F6B656E3A2052657761726420636F6F6C646F776E20616374697665 PUSH1 0x44 DUP3 ADD MSTORE REVERT JUMPDEST PUSH4 0x4E487B71 PUSH1 0xE0 SHL DUP9 MSTORE PUSH1 0x11 DUP3 MSTORE PUSH1 0x24 DUP9 REVERT JUMPDEST POP PUSH1 0x20 PUSH1 0x64 SWAP3 MLOAD SWAP2 PUSH3 0x461BCD PUSH1 0xE5 SHL DUP4 MSTORE DUP3 ADD MSTORE PUSH1 0x1F PUSH1 0x24 DUP3 ADD MSTORE PUSH32 0x494343546F6B656E3A20496E76616C69642072657761726420616D6F756E7400 PUSH1 0x44 DUP3 ADD MSTORE REVERT JUMPDEST POP DUP2 MLOAD PUSH1 0x20 DUP2 DUP6 MLOAD PUSH2 0xEA7 DUP2 DUP4 DUP6 DUP11 ADD PUSH2 0x147D JUMP JUMPDEST DUP2 ADD PUSH1 0x8 DUP2 MSTORE SUB ADD SWAP1 KECCAK256 SLOAD PUSH2 0xD6A JUMP JUMPDEST POP PUSH1 0x20 PUSH1 0x64 SWAP3 MLOAD SWAP2 PUSH3 0x461BCD PUSH1 0xE5 SHL DUP4 MSTORE DUP3 ADD MSTORE PUSH1 0x1B PUSH1 0x24 DUP3 ADD MSTORE PUSH32 0x494343546F6B656E3A20496E76616C696420726563697069656E740000000000 PUSH1 0x44 DUP3 ADD MSTORE REVERT JUMPDEST POP PUSH2 0xD37 DUP2 PUSH1 0x5 SLOAD PUSH1 0x8 SHR AND CALLER EQ SWAP1 POP PUSH2 0xD2E JUMP JUMPDEST POP DUP1 PUSH1 0x7 SLOAD AND CALLER EQ PUSH2 0xD27 JUMP JUMPDEST DUP4 DUP1 REVERT JUMPDEST POP POP CALLVALUE PUSH2 0x69A JUMPI DUP2 PUSH1 0x3 NOT CALLDATASIZE ADD SLT PUSH2 0x69A JUMPI PUSH1 0x20 SWAP1 PUSH1 0xFF PUSH1 0x5 SLOAD AND SWAP1 MLOAD SWAP1 ISZERO ISZERO DUP2 MSTORE RETURN JUMPDEST POP SWAP2 SWAP1 CALLVALUE PUSH2 0x69A JUMPI DUP2 PUSH1 0x3 NOT CALLDATASIZE ADD SLT PUSH2 0x69A JUMPI DUP1 MLOAD SWAP2 DUP2 DUP4 ADD SWAP1 DUP4 DUP3 LT PUSH8 0xFFFFFFFFFFFFFFFF DUP4 GT OR PUSH2 0xF9D JUMPI POP PUSH2 0xAD8 SWAP4 POP DUP2 MSTORE PUSH1 0x5 DUP3 MSTORE PUSH5 0x312E302E3 PUSH1 0xDC SHL PUSH1 0x20 DUP4 ADD MSTORE MLOAD SWAP2 DUP3 SWAP2 PUSH1 0x20 DUP4 MSTORE PUSH1 0x20 DUP4 ADD SWAP1 PUSH2 0x14A0 JUMP JUMPDEST PUSH4 0x4E487B71 PUSH1 0xE0 SHL DUP2 MSTORE PUSH1 0x41 DUP6 MSTORE PUSH1 0x24 SWAP1 REVERT JUMPDEST DUP4 DUP3 CALLVALUE PUSH2 0x69A JUMPI PUSH1 0x20 CALLDATASIZE PUSH1 0x3 NOT ADD SLT PUSH2 0x69A JUMPI PUSH2 0xC36 SWAP1 CALLDATALOAD CALLER PUSH2 0x192B JUMP JUMPDEST POP CALLVALUE PUSH2 0x27B JUMPI DUP3 PUSH1 0x3 NOT CALLDATASIZE ADD SLT PUSH2 0x27B JUMPI PUSH2 0xFE7 PUSH2 0x159D JUMP JUMPDEST PUSH1 0x5 SLOAD SWAP1 PUSH1 0xFF DUP3 AND ISZERO PUSH2 0x1029 JUMPI POP PUSH1 0xFF NOT AND PUSH1 0x5 SSTORE MLOAD CALLER DUP2 MSTORE PUSH32 0x5DB9EE0A495BF2E6FF9C91A7834C1BA4FDD244A5E8AA4E537BD38AEAE4B073AA SWAP1 PUSH1 0x20 SWAP1 LOG1 DUP1 RETURN JUMPDEST PUSH1 0x64 SWAP1 PUSH1 0x20 DUP5 MLOAD SWAP2 PUSH3 0x461BCD PUSH1 0xE5 SHL DUP4 MSTORE DUP3 ADD MSTORE PUSH1 0x14 PUSH1 0x24 DUP3 ADD MSTORE PUSH20 0x14185D5CD8589B194E881B9BDD081C185D5CD959 PUSH1 0x62 SHL PUSH1 0x44 DUP3 ADD MSTORE REVERT JUMPDEST POP POP CALLVALUE PUSH2 0x69A JUMPI PUSH1 0x20 CALLDATASIZE PUSH1 0x3 NOT ADD SLT PUSH2 0x69A JUMPI PUSH1 0x20 SWAP2 DUP2 SWAP1 PUSH1 0x1 PUSH1 0x1 PUSH1 0xA0 SHL SUB PUSH2 0x108B PUSH2 0x14C5 JUMP JUMPDEST AND DUP2 MSTORE PUSH1 0x9 DUP5 MSTORE KECCAK256 SLOAD SWAP1 MLOAD SWAP1 DUP2 MSTORE RETURN JUMPDEST POP POP CALLVALUE PUSH2 0x69A JUMPI DUP1 PUSH1 0x3 NOT CALLDATASIZE ADD SLT PUSH2 0x69A JUMPI PUSH2 0x8FA PUSH1 0x20 SWAP3 PUSH2 0x10E4 PUSH2 0x10BE PUSH2 0x14C5 JUMP JUMPDEST CALLER DUP4 MSTORE PUSH1 0x1 DUP7 MSTORE DUP5 DUP4 KECCAK256 PUSH1 0x1 PUSH1 0x1 PUSH1 0xA0 SHL SUB DUP3 AND DUP5 MSTORE DUP7 MSTORE SWAP2 DUP5 SWAP1 KECCAK256 SLOAD PUSH1 0x24 CALLDATALOAD SWAP1 PUSH2 0x15F8 JUMP JUMPDEST SWAP1 CALLER PUSH2 0x1791 JUMP JUMPDEST POP POP CALLVALUE PUSH2 0x69A JUMPI DUP2 PUSH1 0x3 NOT CALLDATASIZE ADD SLT PUSH2 0x69A JUMPI PUSH1 0x20 SWAP1 MLOAD PUSH11 0x84595161401484A000000 DUP2 MSTORE RETURN JUMPDEST POP POP CALLVALUE PUSH2 0x69A JUMPI DUP2 PUSH1 0x3 NOT CALLDATASIZE ADD SLT PUSH2 0x69A JUMPI PUSH1 0x20 SWAP1 MLOAD PUSH1 0x12 DUP2 MSTORE RETURN JUMPDEST POP POP CALLVALUE PUSH2 0x69A JUMPI DUP2 PUSH1 0x3 NOT CALLDATASIZE ADD SLT PUSH2 0x69A JUMPI PUSH1 0x20 SWAP1 MLOAD PUSH10 0xD3C21BCECCEDA1000000 DUP2 MSTORE RETURN JUMPDEST POP DUP3 SWAP1 CALLVALUE PUSH2 0x69A JUMPI DUP3 PUSH1 0x3 NOT CALLDATASIZE ADD SLT PUSH2 0x69A JUMPI DUP1 CALLDATALOAD PUSH8 0xFFFFFFFFFFFFFFFF DUP2 GT PUSH2 0x27B JUMPI PUSH2 0x1183 SWAP1 CALLDATASIZE SWAP1 DUP4 ADD PUSH2 0x152E JUMP JUMPDEST SWAP1 PUSH1 0x24 CALLDATALOAD SWAP1 PUSH2 0x1190 PUSH2 0x159D JUMP JUMPDEST PUSH9 0x3635C9ADC5DEA00000 DUP3 GT PUSH2 0x1204 JUMPI POP SWAP3 DUP4 PUSH32 0xBB9D066FCEBD3792263684403A32B849E960A1127945FB842F4E82FE891B3A9B SWAP4 SWAP5 DUP3 MLOAD PUSH1 0x20 DUP2 DUP7 MLOAD PUSH2 0x11DA DUP2 DUP4 DUP6 DUP12 ADD PUSH2 0x147D JUMP JUMPDEST DUP2 ADD PUSH1 0x8 DUP2 MSTORE SUB ADD SWAP1 KECCAK256 SSTORE PUSH2 0x11F8 DUP3 MLOAD SWAP4 DUP4 DUP6 SWAP5 DUP6 MSTORE DUP5 ADD SWAP1 PUSH2 0x14A0 JUMP JUMPDEST SWAP1 PUSH1 0x20 DUP4 ADD MSTORE SUB SWAP1 LOG1 DUP1 RETURN JUMPDEST PUSH1 0x64 SWAP1 PUSH1 0x20 DUP7 MLOAD SWAP2 PUSH3 0x461BCD PUSH1 0xE5 SHL DUP4 MSTORE DUP3 ADD MSTORE PUSH1 0x17 PUSH1 0x24 DUP3 ADD MSTORE PUSH32 0x494343546F6B656E3A205261746520746F6F2068696768000000000000000000 PUSH1 0x44 DUP3 ADD MSTORE REVERT JUMPDEST POP POP CALLVALUE PUSH2 0x69A JUMPI PUSH1 0x60 CALLDATASIZE PUSH1 0x3 NOT ADD SLT PUSH2 0x69A JUMPI PUSH1 0x20 SWAP1 PUSH2 0x8FA PUSH2 0x1268 PUSH2 0x14C5 JUMP JUMPDEST PUSH2 0x1270 PUSH2 0x14E0 JUMP JUMPDEST PUSH1 0x44 CALLDATALOAD SWAP2 PUSH2 0x127F DUP4 CALLER DUP4 PUSH2 0x1893 JUMP JUMPDEST PUSH2 0x161B JUMP JUMPDEST POP POP CALLVALUE PUSH2 0x69A JUMPI DUP2 PUSH1 0x3 NOT CALLDATASIZE ADD SLT PUSH2 0x69A JUMPI PUSH1 0x20 SWAP1 PUSH1 0x2 SLOAD SWAP1 MLOAD SWAP1 DUP2 MSTORE RETURN JUMPDEST POP CALLVALUE PUSH2 0x27B JUMPI PUSH1 0x20 CALLDATASIZE PUSH1 0x3 NOT ADD SLT PUSH2 0x27B JUMPI PUSH2 0x12BD PUSH2 0x14C5 JUMP JUMPDEST PUSH2 0x12C5 PUSH2 0x159D JUMP JUMPDEST PUSH1 0x1 PUSH1 0x1 PUSH1 0xA0 SHL SUB AND SWAP2 DUP3 ISZERO PUSH2 0x1310 JUMPI POP POP PUSH1 0x6 DUP1 SLOAD PUSH1 0x1 PUSH1 0x1 PUSH1 0xA0 SHL SUB NOT AND DUP3 OR SWAP1 SSTORE PUSH32 0xE3CF2B71B55B62FC1A6C7B2F6FF944C1B70048908CFF22F2E08D1144E7CA7EDB DUP3 DUP1 LOG2 DUP1 RETURN JUMPDEST SWAP1 PUSH1 0x20 PUSH1 0x84 SWAP3 MLOAD SWAP2 PUSH3 0x461BCD PUSH1 0xE5 SHL DUP4 MSTORE DUP3 ADD MSTORE PUSH1 0x24 DUP1 DUP3 ADD MSTORE PUSH32 0x494343546F6B656E3A20496E76616C696420676F7665726E616E636520616464 PUSH1 0x44 DUP3 ADD MSTORE PUSH4 0x72657373 PUSH1 0xE0 SHL PUSH1 0x64 DUP3 ADD MSTORE REVERT JUMPDEST POP POP CALLVALUE PUSH2 0x69A JUMPI DUP1 PUSH1 0x3 NOT CALLDATASIZE ADD SLT PUSH2 0x69A JUMPI PUSH1 0x20 SWAP1 PUSH2 0x8FA PUSH2 0x137F PUSH2 0x14C5 JUMP JUMPDEST PUSH1 0x24 CALLDATALOAD SWAP1 CALLER PUSH2 0x1791 JUMP JUMPDEST SWAP1 POP DUP4 DUP4 CALLVALUE PUSH2 0x69A JUMPI DUP2 PUSH1 0x3 NOT CALLDATASIZE ADD SLT PUSH2 0x69A JUMPI DUP2 PUSH1 0x3 SLOAD SWAP3 PUSH1 0x1 DUP5 DUP2 SHR SWAP2 DUP2 DUP7 AND SWAP6 DUP7 ISZERO PUSH2 0x1473 JUMPI JUMPDEST PUSH1 0x20 SWAP7 DUP8 DUP6 LT DUP2 EQ PUSH2 0xB61 JUMPI DUP9 SWAP10 POP SWAP7 DUP9 SWAP7 SWAP8 DUP6 DUP3 SWAP11 MSTORE SWAP2 DUP3 PUSH1 0x0 EQ PUSH2 0x144C JUMPI POP POP PUSH1 0x1 EQ PUSH2 0x13F0 JUMPI JUMPDEST POP POP POP PUSH2 0xAD8 SWAP3 SWAP2 PUSH2 0xAC9 SWAP2 SUB DUP6 PUSH2 0x14F6 JUMP JUMPDEST SWAP2 SWAP1 DUP7 SWAP4 POP PUSH1 0x3 DUP4 MSTORE PUSH32 0xC2575A0E9E593C00F959F8C92F12DB2869C3395A3B0502D05E2516446F71F85B JUMPDEST DUP3 DUP5 LT PUSH2 0x1434 JUMPI POP POP POP DUP3 ADD ADD DUP2 PUSH2 0xAC9 PUSH2 0xAD8 PUSH2 0x13DD JUMP JUMPDEST DUP1 SLOAD DUP5 DUP11 ADD DUP7 ADD MSTORE DUP9 SWAP6 POP DUP8 SWAP5 SWAP1 SWAP4 ADD SWAP3 DUP2 ADD PUSH2 0x141B JUMP JUMPDEST PUSH1 0xFF NOT AND DUP8 DUP3 ADD MSTORE SWAP4 ISZERO ISZERO PUSH1 0x5 SHL DUP7 ADD SWAP1 SWAP4 ADD SWAP4 POP DUP5 SWAP3 POP PUSH2 0xAC9 SWAP2 POP PUSH2 0xAD8 SWAP1 POP PUSH2 0x13DD JUMP JUMPDEST SWAP3 PUSH1 0x7F AND SWAP3 PUSH2 0x13B3 JUMP JUMPDEST PUSH1 0x0 JUMPDEST DUP4 DUP2 LT PUSH2 0x1490 JUMPI POP POP PUSH1 0x0 SWAP2 ADD MSTORE JUMP JUMPDEST DUP2 DUP2 ADD MLOAD DUP4 DUP3 ADD MSTORE PUSH1 0x20 ADD PUSH2 0x1480 JUMP JUMPDEST SWAP1 PUSH1 0x20 SWAP2 PUSH2 0x14B9 DUP2 MLOAD DUP1 SWAP3 DUP2 DUP6 MSTORE DUP6 DUP1 DUP7 ADD SWAP2 ADD PUSH2 0x147D JUMP JUMPDEST PUSH1 0x1F ADD PUSH1 0x1F NOT AND ADD ADD SWAP1 JUMP JUMPDEST PUSH1 0x4 CALLDATALOAD SWAP1 PUSH1 0x1 PUSH1 0x1 PUSH1 0xA0 SHL SUB DUP3 AND DUP3 SUB PUSH2 0x14DB JUMPI JUMP JUMPDEST PUSH1 0x0 DUP1 REVERT JUMPDEST PUSH1 0x24 CALLDATALOAD SWAP1 PUSH1 0x1 PUSH1 0x1 PUSH1 0xA0 SHL SUB DUP3 AND DUP3 SUB PUSH2 0x14DB JUMPI JUMP JUMPDEST SWAP1 PUSH1 0x1F DUP1 NOT SWAP2 ADD AND DUP2 ADD SWAP1 DUP2 LT PUSH8 0xFFFFFFFFFFFFFFFF DUP3 GT OR PUSH2 0x1518 JUMPI PUSH1 0x40 MSTORE JUMP JUMPDEST PUSH4 0x4E487B71 PUSH1 0xE0 SHL PUSH1 0x0 MSTORE PUSH1 0x41 PUSH1 0x4 MSTORE PUSH1 0x24 PUSH1 0x0 REVERT JUMPDEST DUP2 PUSH1 0x1F DUP3 ADD SLT ISZERO PUSH2 0x14DB JUMPI DUP1 CALLDATALOAD SWAP1 PUSH8 0xFFFFFFFFFFFFFFFF DUP3 GT PUSH2 0x1518 JUMPI PUSH1 0x40 MLOAD SWAP3 PUSH2 0x1563 PUSH1 0x1F DUP5 ADD PUSH1 0x1F NOT AND PUSH1 0x20 ADD DUP6 PUSH2 0x14F6 JUMP JUMPDEST DUP3 DUP5 MSTORE PUSH1 0x20 DUP4 DUP4 ADD ADD GT PUSH2 0x14DB JUMPI DUP2 PUSH1 0x0 SWAP3 PUSH1 0x20 DUP1 SWAP4 ADD DUP4 DUP7 ADD CALLDATACOPY DUP4 ADD ADD MSTORE SWAP1 JUMP JUMPDEST PUSH8 0xFFFFFFFFFFFFFFFF DUP2 GT PUSH2 0x1518 JUMPI PUSH1 0x5 SHL PUSH1 0x20 ADD SWAP1 JUMP JUMPDEST PUSH1 0x5 SLOAD PUSH1 0x8 SHR PUSH1 0x1 PUSH1 0x1 PUSH1 0xA0 SHL SUB AND CALLER SUB PUSH2 0x15B4 JUMPI JUMP JUMPDEST PUSH1 0x64 PUSH1 0x40 MLOAD PUSH3 0x461BCD PUSH1 0xE5 SHL DUP2 MSTORE PUSH1 0x20 PUSH1 0x4 DUP3 ADD MSTORE PUSH1 0x20 PUSH1 0x24 DUP3 ADD MSTORE PUSH32 0x4F776E61626C653A2063616C6C6572206973206E6F7420746865206F776E6572 PUSH1 0x44 DUP3 ADD MSTORE REVERT JUMPDEST SWAP2 SWAP1 DUP3 ADD DUP1 SWAP3 GT PUSH2 0x1605 JUMPI JUMP JUMPDEST PUSH4 0x4E487B71 PUSH1 0xE0 SHL PUSH1 0x0 MSTORE PUSH1 0x11 PUSH1 0x4 MSTORE PUSH1 0x24 PUSH1 0x0 REVERT JUMPDEST PUSH1 0x1 PUSH1 0x1 PUSH1 0xA0 SHL SUB SWAP1 DUP2 AND SWAP2 DUP3 ISZERO PUSH2 0x173E JUMPI AND SWAP2 DUP3 ISZERO PUSH2 0x16ED JUMPI PUSH2 0x163D PUSH2 0x1AD2 JUMP JUMPDEST PUSH1 0x0 DUP3 DUP2 MSTORE DUP1 PUSH1 0x20 MSTORE PUSH1 0x40 DUP2 KECCAK256 SLOAD SWAP2 DUP1 DUP4 LT PUSH2 0x1699 JUMPI PUSH1 0x40 DUP3 DUP3 PUSH32 0xDDF252AD1BE2C89B69C2B068FC378DAA952BA7F163C4A11628F55A4DF523B3EF SWAP6 DUP8 PUSH1 0x20 SWAP7 MSTORE DUP3 DUP7 MSTORE SUB DUP3 DUP3 KECCAK256 SSTORE DUP7 DUP2 MSTORE KECCAK256 DUP2 DUP2 SLOAD ADD SWAP1 SSTORE PUSH1 0x40 MLOAD SWAP1 DUP2 MSTORE LOG3 JUMP JUMPDEST PUSH1 0x40 MLOAD PUSH3 0x461BCD PUSH1 0xE5 SHL DUP2 MSTORE PUSH1 0x20 PUSH1 0x4 DUP3 ADD MSTORE PUSH1 0x26 PUSH1 0x24 DUP3 ADD MSTORE PUSH32 0x45524332303A207472616E7366657220616D6F756E7420657863656564732062 PUSH1 0x44 DUP3 ADD MSTORE PUSH6 0x616C616E6365 PUSH1 0xD0 SHL PUSH1 0x64 DUP3 ADD MSTORE PUSH1 0x84 SWAP1 REVERT JUMPDEST PUSH1 0x40 MLOAD PUSH3 0x461BCD PUSH1 0xE5 SHL DUP2 MSTORE PUSH1 0x20 PUSH1 0x4 DUP3 ADD MSTORE PUSH1 0x23 PUSH1 0x24 DUP3 ADD MSTORE PUSH32 0x45524332303A207472616E7366657220746F20746865207A65726F2061646472 PUSH1 0x44 DUP3 ADD MSTORE PUSH3 0x657373 PUSH1 0xE8 SHL PUSH1 0x64 DUP3 ADD MSTORE PUSH1 0x84 SWAP1 REVERT JUMPDEST PUSH1 0x40 MLOAD PUSH3 0x461BCD PUSH1 0xE5 SHL DUP2 MSTORE PUSH1 0x20 PUSH1 0x4 DUP3 ADD MSTORE PUSH1 0x25 PUSH1 0x24 DUP3 ADD MSTORE PUSH32 0x45524332303A207472616E736665722066726F6D20746865207A65726F206164 PUSH1 0x44 DUP3 ADD MSTORE PUSH5 0x6472657373 PUSH1 0xD8 SHL PUSH1 0x64 DUP3 ADD MSTORE PUSH1 0x84 SWAP1 REVERT JUMPDEST PUSH1 0x1 PUSH1 0x1 PUSH1 0xA0 SHL SUB SWAP1 DUP2 AND SWAP2 DUP3 ISZERO PUSH2 0x1842 JUMPI AND SWAP2 DUP3 ISZERO PUSH2 0x17F2 JUMPI PUSH1 0x20 PUSH32 0x8C5BE1E5EBEC7D5BD14F71427D1E84F3DD0314C0F7B2291E5B200AC8C7C3B925 SWAP2 DUP4 PUSH1 0x0 MSTORE PUSH1 0x1 DUP3 MSTORE PUSH1 0x40 PUSH1 0x0 KECCAK256 DUP6 PUSH1 0x0 MSTORE DUP3 MSTORE DUP1 PUSH1 0x40 PUSH1 0x0 KECCAK256 SSTORE PUSH1 0x40 MLOAD SWAP1 DUP2 MSTORE LOG3 JUMP JUMPDEST PUSH1 0x40 MLOAD PUSH3 0x461BCD PUSH1 0xE5 SHL DUP2 MSTORE PUSH1 0x20 PUSH1 0x4 DUP3 ADD MSTORE PUSH1 0x22 PUSH1 0x24 DUP3 ADD MSTORE PUSH32 0x45524332303A20617070726F766520746F20746865207A65726F206164647265 PUSH1 0x44 DUP3 ADD MSTORE PUSH2 0x7373 PUSH1 0xF0 SHL PUSH1 0x64 DUP3 ADD MSTORE PUSH1 0x84 SWAP1 REVERT JUMPDEST PUSH1 0x40 MLOAD PUSH3 0x461BCD PUSH1 0xE5 SHL DUP2 MSTORE PUSH1 0x20 PUSH1 0x4 DUP3 ADD MSTORE PUSH1 0x24 DUP1 DUP3 ADD MSTORE PUSH32 0x45524332303A20617070726F76652066726F6D20746865207A65726F20616464 PUSH1 0x44 DUP3 ADD MSTORE PUSH4 0x72657373 PUSH1 0xE0 SHL PUSH1 0x64 DUP3 ADD MSTORE PUSH1 0x84 SWAP1 REVERT JUMPDEST SWAP1 PUSH1 0x1 DUP1 PUSH1 0xA0 SHL SUB DUP1 DUP4 AND PUSH1 0x0 MSTORE PUSH1 0x1 PUSH1 0x20 MSTORE PUSH1 0x40 PUSH1 0x0 KECCAK256 SWAP1 DUP3 AND PUSH1 0x0 MSTORE PUSH1 0x20 MSTORE PUSH1 0x40 PUSH1 0x0 KECCAK256 SLOAD SWAP3 PUSH1 0x0 NOT DUP5 SUB PUSH2 0x18CB JUMPI JUMPDEST POP POP POP POP JUMP JUMPDEST DUP1 DUP5 LT PUSH2 0x18E6 JUMPI PUSH2 0x18DD SWAP4 SUB SWAP2 PUSH2 0x1791 JUMP JUMPDEST CODESIZE DUP1 DUP1 DUP1 PUSH2 0x18C5 JUMP JUMPDEST PUSH1 0x40 MLOAD PUSH3 0x461BCD PUSH1 0xE5 SHL DUP2 MSTORE PUSH1 0x20 PUSH1 0x4 DUP3 ADD MSTORE PUSH1 0x1D PUSH1 0x24 DUP3 ADD MSTORE PUSH32 0x45524332303A20696E73756666696369656E7420616C6C6F77616E6365000000 PUSH1 0x44 DUP3 ADD MSTORE PUSH1 0x64 SWAP1 REVERT JUMPDEST PUSH1 0x1 PUSH1 0x1 PUSH1 0xA0 SHL SUB AND DUP1 ISZERO PUSH2 0x19EB JUMPI PUSH2 0x1942 PUSH2 0x1AD2 JUMP JUMPDEST PUSH1 0x0 SWAP2 DUP2 DUP4 MSTORE DUP3 PUSH1 0x20 MSTORE PUSH1 0x40 DUP4 KECCAK256 SLOAD DUP2 DUP2 LT PUSH2 0x199B JUMPI DUP2 PUSH32 0xDDF252AD1BE2C89B69C2B068FC378DAA952BA7F163C4A11628F55A4DF523B3EF SWAP3 PUSH1 0x20 SWAP3 DUP6 DUP8 MSTORE DUP7 DUP5 MSTORE SUB PUSH1 0x40 DUP7 KECCAK256 SSTORE DUP1 PUSH1 0x2 SLOAD SUB PUSH1 0x2 SSTORE PUSH1 0x40 MLOAD SWAP1 DUP2 MSTORE LOG3 JUMP JUMPDEST PUSH1 0x40 MLOAD PUSH3 0x461BCD PUSH1 0xE5 SHL DUP2 MSTORE PUSH1 0x20 PUSH1 0x4 DUP3 ADD MSTORE PUSH1 0x22 PUSH1 0x24 DUP3 ADD MSTORE PUSH32 0x45524332303A206275726E20616D6F756E7420657863656564732062616C616E PUSH1 0x44 DUP3 ADD MSTORE PUSH2 0x6365 PUSH1 0xF0 SHL PUSH1 0x64 DUP3 ADD MSTORE PUSH1 0x84 SWAP1 REVERT JUMPDEST PUSH1 0x40 MLOAD PUSH3 0x461BCD PUSH1 0xE5 SHL DUP2 MSTORE PUSH1 0x20 PUSH1 0x4 DUP3 ADD MSTORE PUSH1 0x21 PUSH1 0x24 DUP3 ADD MSTORE PUSH32 0x45524332303A206275726E2066726F6D20746865207A65726F20616464726573 PUSH1 0x44 DUP3 ADD MSTORE PUSH1 0x73 PUSH1 0xF8 SHL PUSH1 0x64 DUP3 ADD MSTORE PUSH1 0x84 SWAP1 REVERT JUMPDEST ISZERO PUSH2 0x1A41 JUMPI JUMP JUMPDEST PUSH1 0x40 MLOAD PUSH3 0x461BCD PUSH1 0xE5 SHL DUP2 MSTORE PUSH1 0x20 PUSH1 0x4 DUP3 ADD MSTORE PUSH1 0x1D PUSH1 0x24 DUP3 ADD MSTORE PUSH32 0x494343546F6B656E3A20556E617574686F72697A6564206D696E746572000000 PUSH1 0x44 DUP3 ADD MSTORE PUSH1 0x64 SWAP1 REVERT JUMPDEST ISZERO PUSH2 0x1A8D JUMPI JUMP JUMPDEST PUSH1 0x40 MLOAD PUSH3 0x461BCD PUSH1 0xE5 SHL DUP2 MSTORE PUSH1 0x20 PUSH1 0x4 DUP3 ADD MSTORE PUSH1 0x1C PUSH1 0x24 DUP3 ADD MSTORE PUSH32 0x494343546F6B656E3A2045786365656473206D617820737570706C7900000000 PUSH1 0x44 DUP3 ADD MSTORE PUSH1 0x64 SWAP1 REVERT JUMPDEST PUSH1 0xFF PUSH1 0x5 SLOAD AND PUSH2 0x1ADE JUMPI JUMP JUMPDEST PUSH1 0x40 MLOAD PUSH3 0x461BCD PUSH1 0xE5 SHL DUP2 MSTORE PUSH1 0x20 PUSH1 0x4 DUP3 ADD MSTORE PUSH1 0x10 PUSH1 0x24 DUP3 ADD MSTORE PUSH16 0x14185D5CD8589B194E881C185D5CD959 PUSH1 0x82 SHL PUSH1 0x44 DUP3 ADD MSTORE PUSH1 0x64 SWAP1 REVERT JUMPDEST PUSH1 0x1 PUSH1 0x1 PUSH1 0xA0 SHL SUB AND SWAP1 DUP2 ISZERO PUSH2 0x1B7C JUMPI PUSH32 0xDDF252AD1BE2C89B69C2B068FC378DAA952BA7F163C4A11628F55A4DF523B3EF PUSH1 0x20 PUSH1 0x0 SWAP3 PUSH2 0x1B54 PUSH2 0x1AD2 JUMP JUMPDEST PUSH2 0x1B60 DUP2 PUSH1 0x2 SLOAD PUSH2 0x15F8 JUMP JUMPDEST PUSH1 0x2 SSTORE DUP5 DUP5 MSTORE DUP4 DUP3 MSTORE PUSH1 0x40 DUP5 KECCAK256 DUP2 DUP2 SLOAD ADD SWAP1 SSTORE PUSH1 0x40 MLOAD SWAP1 DUP2 MSTORE LOG3 JUMP JUMPDEST PUSH1 0x40 MLOAD PUSH3 0x461BCD PUSH1 0xE5 SHL DUP2 MSTORE PUSH1 0x20 PUSH1 0x4 DUP3 ADD MSTORE PUSH1 0x1F PUSH1 0x24 DUP3 ADD MSTORE PUSH32 0x45524332303A206D696E7420746F20746865207A65726F206164647265737300 PUSH1 0x44 DUP3 ADD MSTORE PUSH1 0x64 SWAP1 REVERT JUMPDEST PUSH1 0x0 NOT DUP2 EQ PUSH2 0x1605 JUMPI PUSH1 0x1 ADD SWAP1 JUMP JUMPDEST DUP1 MLOAD DUP3 LT ISZERO PUSH2 0x1BE4 JUMPI PUSH1 0x20 SWAP2 PUSH1 0x5 SHL ADD ADD SWAP1 JUMP JUMPDEST PUSH4 0x4E487B71 PUSH1 0xE0 SHL PUSH1 0x0 MSTORE PUSH1 0x32 PUSH1 0x4 MSTORE PUSH1 0x24 PUSH1 0x0 REVERT INVALID LOG2 PUSH5 0x6970667358 0x22 SLT KECCAK256 BASEFEE DUP8 EXTCODEHASH 0xE8 SELFBALANCE 0xEA SWAP1 0x5E PUSH27 0xA9013F5398895FE44F928AF2E95E4A30CDA4EBBF2748864736F6C PUSH4 0x43000813 STOP CALLER "},"methodIdentifiers":{"INITIAL_SUPPLY()":"2ff2e9dc","MAX_SUPPLY()":"32cb6b0c","allowance(address,address)":"dd62ed3e","approve(address,uint256)":"095ea7b3","balanceOf(address)":"70a08231","batchMintCivicRewards(address[],string,uint256[])":"e8ec8547","burn(uint256)":"42966c68","burnFrom(address,uint256)":"79cc6790","decimals()":"313ce567","decreaseAllowance(address,uint256)":"a457c2d7","emergencyTokenRecovery(address,uint256)":"b49b0cb3","getRewardRate(string)":"6b692417","getUserRewards(address)":"078b0fb7","governanceContract()":"b172b222","increaseAllowance(address,uint256)":"39509351","lastRewardTime(address)":"3b5d441e","mintCivicReward(address,string,uint256)":"5f8bc23c","name()":"06fdde03","owner()":"8da5cb5b","pause()":"8456cb59","paused()":"5c975abb","renounceOwnership()":"715018a6","rewardDistributor()":"acc2166a","rewardRates(string)":"bd46cd18","setGovernanceContract(address)":"1129753f","setRewardDistributor(address)":"a1809b95","setRewardRate(string,uint256)":"2cae1939","symbol()":"95d89b41","totalRewardsEarned(address)":"e4f24cb0","totalSupply()":"18160ddd","transfer(address,uint256)":"a9059cbb","transferFrom(address,address,uint256)":"23b872dd","transferOwnership(address)":"f2fde38b","unpause()":"3f4ba83a","version()":"54fd4d50"}}}}}