{"contracts/ProposalGovernance.sol":{"ProposalGovernance":{"abi":[{"inputs":[{"internalType":"address","name":"_iccToken","type":"address"},{"internalType":"address","name":"_initialOwner","type":"address"}],"stateMutability":"nonpayable","type":"constructor"},{"anonymous":false,"inputs":[{"indexed":true,"internalType":"address","name":"previousOwner","type":"address"},{"indexed":true,"internalType":"address","name":"newOwner","type":"address"}],"name":"OwnershipTransferred","type":"event"},{"anonymous":false,"inputs":[{"indexed":false,"internalType":"address","name":"account","type":"address"}],"name":"Paused","type":"event"},{"anonymous":false,"inputs":[{"indexed":true,"internalType":"uint256","name":"proposalId","type":"uint256"},{"indexed":true,"internalType":"address","name":"canceller","type":"address"}],"name":"ProposalCancelled","type":"event"},{"anonymous":false,"inputs":[{"indexed":true,"internalType":"uint256","name":"proposalId","type":"uint256"},{"indexed":true,"internalType":"address","name":"proposer","type":"address"},{"indexed":false,"internalType":"string","name":"title","type":"string"},{"indexed":false,"internalType":"string","name":"category","type":"string"},{"indexed":false,"internalType":"uint256","name":"startTime","type":"uint256"},{"indexed":false,"internalType":"uint256","name":"endTime","type":"uint256"}],"name":"ProposalCreated","type":"event"},{"anonymous":false,"inputs":[{"indexed":true,"internalType":"uint256","name":"proposalId","type":"uint256"},{"indexed":false,"internalType":"bool","name":"success","type":"bool"}],"name":"ProposalExecuted","type":"event"},{"anonymous":false,"inputs":[{"indexed":true,"internalType":"uint256","name":"proposalId","type":"uint256"},{"indexed":false,"internalType":"uint256","name":"totalVotes","type":"uint256"}],"name":"QuorumReached","type":"event"},{"anonymous":false,"inputs":[{"indexed":false,"internalType":"address","name":"account","type":"address"}],"name":"Unpaused","type":"event"},{"anonymous":false,"inputs":[{"indexed":true,"internalType":"uint256","name":"proposalId","type":"uint256"},{"indexed":true,"internalType":"address","name":"voter","type":"address"},{"indexed":false,"internalType":"enum ProposalGovernance.VoteType","name":"voteType","type":"uint8"},{"indexed":false,"internalType":"uint256","name":"timestamp","type":"uint256"}],"name":"VoteCast","type":"event"},{"inputs":[],"name":"MIN_PROPOSAL_THRESHOLD","outputs":[{"internalType":"uint256","name":"","type":"uint256"}],"stateMutability":"view","type":"function"},{"inputs":[],"name":"PROPOSAL_COOLDOWN","outputs":[{"internalType":"uint256","name":"","type":"uint256"}],"stateMutability":"view","type":"function"},{"inputs":[],"name":"QUORUM_PERCENTAGE","outputs":[{"internalType":"uint256","name":"","type":"uint256"}],"stateMutability":"view","type":"function"},{"inputs":[],"name":"VOTING_DURATION","outputs":[{"internalType":"uint256","name":"","type":"uint256"}],"stateMutability":"view","type":"function"},{"inputs":[{"internalType":"uint256","name":"proposalId","type":"uint256"}],"name":"cancelProposal","outputs":[],"stateMutability":"nonpayable","type":"function"},{"inputs":[{"internalType":"uint256","name":"proposalId","type":"uint256"},{"internalType":"enum ProposalGovernance.VoteType","name":"voteType","type":"uint8"}],"name":"castVote","outputs":[],"stateMutability":"nonpayable","type":"function"},{"inputs":[{"internalType":"string","name":"title","type":"string"},{"internalType":"string","name":"description","type":"string"},{"internalType":"string","name":"category","type":"string"}],"name":"createProposal","outputs":[{"internalType":"uint256","name":"","type":"uint256"}],"stateMutability":"nonpayable","type":"function"},{"inputs":[{"internalType":"uint256","name":"proposalId","type":"uint256"}],"name":"executeProposal","outputs":[],"stateMutability":"nonpayable","type":"function"},{"inputs":[{"internalType":"uint256","name":"proposalId","type":"uint256"}],"name":"getProposal","outputs":[{"internalType":"uint256","name":"id","type":"uint256"},{"internalType":"string","name":"title","type":"string"},{"internalType":"string","name":"description","type":"string"},{"internalType":"string","name":"category","type":"string"},{"internalType":"address","name":"proposer","type":"address"},{"internalType":"uint256","name":"startTime","type":"uint256"},{"internalType":"uint256","name":"endTime","type":"uint256"},{"internalType":"uint256","name":"forVotes","type":"uint256"},{"internalType":"uint256","name":"againstVotes","type":"uint256"},{"internalType":"uint256","name":"abstainVotes","type":"uint256"},{"internalType":"bool","name":"executed","type":"bool"},{"internalType":"bool","name":"cancelled","type":"bool"}],"stateMutability":"view","type":"function"},{"inputs":[],"name":"getProposalCount","outputs":[{"internalType":"uint256","name":"","type":"uint256"}],"stateMutability":"view","type":"function"},{"inputs":[{"internalType":"uint256","name":"proposalId","type":"uint256"}],"name":"getProposalState","outputs":[{"internalType":"enum ProposalGovernance.ProposalState","name":"","type":"uint8"}],"stateMutability":"view","type":"function"},{"inputs":[{"internalType":"address","name":"user","type":"address"}],"name":"getUserStats","outputs":[{"internalType":"uint256","name":"proposalCount","type":"uint256"},{"internalType":"uint256","name":"voteCount","type":"uint256"},{"internalType":"uint256","name":"lastProposal","type":"uint256"}],"stateMutability":"view","type":"function"},{"inputs":[{"internalType":"uint256","name":"proposalId","type":"uint256"},{"internalType":"address","name":"voter","type":"address"}],"name":"getVote","outputs":[{"internalType":"bool","name":"hasVoted","type":"bool"},{"internalType":"enum ProposalGovernance.VoteType","name":"voteType","type":"uint8"}],"stateMutability":"view","type":"function"},{"inputs":[],"name":"iccToken","outputs":[{"internalType":"contract ICCToken","name":"","type":"address"}],"stateMutability":"view","type":"function"},{"inputs":[{"internalType":"address","name":"","type":"address"}],"name":"lastProposalTime","outputs":[{"internalType":"uint256","name":"","type":"uint256"}],"stateMutability":"view","type":"function"},{"inputs":[],"name":"owner","outputs":[{"internalType":"address","name":"","type":"address"}],"stateMutability":"view","type":"function"},{"inputs":[],"name":"pause","outputs":[],"stateMutability":"nonpayable","type":"function"},{"inputs":[],"name":"paused","outputs":[{"internalType":"bool","name":"","type":"bool"}],"stateMutability":"view","type":"function"},{"inputs":[{"internalType":"uint256","name":"","type":"uint256"}],"name":"proposals","outputs":[{"internalType":"uint256","name":"id","type":"uint256"},{"internalType":"string","name":"title","type":"string"},{"internalType":"string","name":"description","type":"string"},{"internalType":"string","name":"category","type":"string"},{"internalType":"address","name":"proposer","type":"address"},{"internalType":"uint256","name":"startTime","type":"uint256"},{"internalType":"uint256","name":"endTime","type":"uint256"},{"internalType":"uint256","name":"forVotes","type":"uint256"},{"internalType":"uint256","name":"againstVotes","type":"uint256"},{"internalType":"uint256","name":"abstainVotes","type":"uint256"},{"internalType":"bool","name":"executed","type":"bool"},{"internalType":"bool","name":"cancelled","type":"bool"}],"stateMutability":"view","type":"function"},{"inputs":[],"name":"renounceOwnership","outputs":[],"stateMutability":"nonpayable","type":"function"},{"inputs":[{"internalType":"address","name":"newOwner","type":"address"}],"name":"transferOwnership","outputs":[],"stateMutability":"nonpayable","type":"function"},{"inputs":[],"name":"unpause","outputs":[],"stateMutability":"nonpayable","type":"function"},{"inputs":[{"internalType":"address","name":"","type":"address"}],"name":"userProposalCount","outputs":[{"internalType":"uint256","name":"","type":"uint256"}],"stateMutability":"view","type":"function"},{"inputs":[{"internalType":"address","name":"","type":"address"}],"name":"userVoteCount","outputs":[{"internalType":"uint256","name":"","type":"uint256"}],"stateMutability":"view","type":"function"},{"inputs":[],"name":"version","outputs":[{"internalType":"string","name":"","type":"string"}],"stateMutability":"pure","type":"function"}],"evm":{"bytecode":{"linkReferences":{},"object":"60a0346200017e57601f62001fe338819003918201601f19168301916001600160401b03831184841017620001835780849260409485528339810103126200017e576200005a6020620000528362000199565b920162000199565b600160005560ff19600154166001556200007433620001ae565b6001600160a01b039182169182156200012f57811615620000e0576200009d91608052620001ae565b604051611dd890816200020b82396080518181816107aa0152818161098801528181610a000152818161100701528181611430015281816115330152611cd00152f35b60405162461bcd60e51b815260206004820152602160248201527f476f7665726e616e63653a20496e76616c6964206f776e6572206164647265736044820152607360f81b6064820152608490fd5b60405162461bcd60e51b815260206004820152602160248201527f476f7665726e616e63653a20496e76616c696420746f6b656e206164647265736044820152607360f81b6064820152608490fd5b600080fd5b634e487b7160e01b600052604160045260246000fd5b51906001600160a01b03821682036200017e57565b60018054610100600160a81b03198116600884811b610100600160a81b0316919091179092556001600160a01b0392831692911c167f8be0079c531659141344cd1fd0a4f28419497f9722a3daafe3b4186f6b6457e0600080a356fe6080604052600436101561001257600080fd5b6000803560e01c8063013cf08b146116be5780630d61b51914611498578063211603c61461145f57806331de88071461141a5780633f4ba83a14611385578063467f67f9146113675780634e43603a1461130e57806354fd4d50146112c85780635678138814610ed1578063583cf379146106fe5780635b7ad578146106c55780635c975abb146106a2578063713cdaa814610669578063715018a614610607578063791f5d23146105e35780638456cb59146105895780638da5cb5b1461055c5780639080936f14610516578063a438d208146104f8578063bc3f931f14610465578063c08cc02d14610447578063c7f758a814610395578063e0a8f6f514610224578063ee8a7c15146102085763f2fde38b1461013057600080fd5b346102055760203660031901126102055761014961195c565b6101516119ec565b6001600160a01b038181169182156101b15760018054610100600160a81b03198116600893841b610100600160a81b031617909155901c167f8be0079c531659141344cd1fd0a4f28419497f9722a3daafe3b4186f6b6457e0600080a380f35b60405162461bcd60e51b815260206004820152602660248201527f4f776e61626c653a206e6577206f776e657220697320746865207a65726f206160448201526564647265737360d01b6064820152608490fd5b80fd5b5034610205578060031936011261020557602060405160058152f35b50346102055760203660031901126102055760043580151580610389575b61024b90611b13565b610253611a79565b8082526003602052604082206004810154336001600160a01b0391821614908115610378575b501561032757806102926006600a930154421115611b5f565b01805460ff8160081c166102e257806102b160ff610100931615611bf7565b61ff00191617905533907f74c34a008ce735d9fcf0bd03a9b238d212ad4c441c020661f4ffbb6442645b858380a380f35b60405162461bcd60e51b815260206004820152601d60248201527f476f7665726e616e63653a20416c72656164792063616e63656c6c65640000006044820152606490fd5b60405162461bcd60e51b8152602060048201526024808201527f476f7665726e616e63653a204e6f7420617574686f72697a656420746f2063616044820152631b98d95b60e21b6064820152608490fd5b905060015460081c16331438610279565b50600254811115610242565b5034610205576020366003190112610205576040906004358015158061043b575b6103bf90611b13565b8152600360205220806104378180548160018060a01b0360048201541660058201546006830154600784015491600885015493610420600361041960026104126001600a60098d01549c01549d016117f2565b9d016117f2565b9c016117f2565b6040519b8c9b60ff808c60081c169b16998d6118d8565b0390f35b506002548111156103b6565b50346102055780600319360112610205576020600254604051908152f35b5034610205576040366003190112610205576024356001600160a01b03811690600435908290036104f3576040928184921515806104e7575b6104a790611b13565b815260036020522090600052600b8101602052600c60ff83600020541691016020526104e560ff8360002054168351921515835260208301906119c9565bf35b5060025481111561049e565b600080fd5b5034610205578060031936011261020557602060405162093a808152f35b503461020557602036600319011261020557610533600435611c43565b60405190600681101561054857602092508152f35b634e487b7160e01b83526021600452602483fd5b503461020557806003193601126102055760015460405160089190911c6001600160a01b03168152602090f35b50346102055780600319360112610205576105a26119ec565b6105aa611a79565b600160ff19815416176001557f62e78cea01bee320cd4e420270b5ea74000d11b0c9f74754ebdbfc544b05a2586020604051338152a180f35b5034610205578060031936011261020557602060405168056bc75e2d631000008152f35b50346102055780600319360112610205576106206119ec565b60018054610100600160a81b0319811690915560009060081c6001600160a01b03167f8be0079c531659141344cd1fd0a4f28419497f9722a3daafe3b4186f6b6457e08280a380f35b5034610205576020366003190112610205576020906040906001600160a01b0361069161195c565b168152600683522054604051908152f35b5034610205578060031936011261020557602060ff600154166040519015158152f35b5034610205576020366003190112610205576020906040906001600160a01b036106ed61195c565b168152600483522054604051908152f35b50346102055760603660031901126102055760043567ffffffffffffffff8111610ecd57610730903690600401611972565b60243567ffffffffffffffff8111610ec957610750903690600401611972565b60443567ffffffffffffffff8111610ec557610770903690600401611972565b91610779611a79565b610781611abd565b805115610e8057815115610e3b576040516370a0823160e01b81523360048201526020816024817f00000000000000000000000000000000000000000000000000000000000000006001600160a01b03165afa8015610e30578590610df5575b68056bc75e2d63100000915010610da45733845260046020526040842054620151808101809111610d90574210610d3f57600160025401928360025583855260036020526040852092848455825167ffffffffffffffff8111610c725761084b6001860154611750565b601f8111610cfb575b50806020601f8211600114610c91578891610c86575b508160011b916000199060031b1c19161760018501555b80519067ffffffffffffffff8211610c725781906108a26002870154611750565b601f8111610c22575b50602090601f8311600114610bb3578892610ba8575b50508160011b916000199060031b1c19161760028401555b805167ffffffffffffffff8111610b94576108f76003850154611750565b601f8111610b50575b50806020601f8211600114610ae6578791610adb575b508160011b916000199060031b1c19161760038401555b60048301336bffffffffffffffffffffffff60a01b8254161790556005830142815562093a80420193844211610ac75760060193845533865260046020524260408720556005602052604086206109848154611a6a565b90557f00000000000000000000000000000000000000000000000000000000000000006001600160a01b03163b15610ab8576040516317e2f08f60e21b8152336004820152606060248201526011606482015270383937b837b9b0b62fb1b932b0ba34b7b760791b608482015260448101879052868160a481837f00000000000000000000000000000000000000000000000000000000000000006001600160a01b03165af18015610abc57610aa4575b507ffaa337366f7965edea73e5dda4e27a18008218bee177df73f82fc597a1f4dd086020969360019593610a8a889454955491610a7d60405194608086526080860190611898565b908482038c860152611898565b94604083015260608201528033940390a355604051908152f35b610aae879161178a565b610ab85738610a35565b8580fd5b6040513d89823e3d90fd5b634e487b7160e01b87526011600452602487fd5b905082015138610916565b91506003850187526020872087925b601f1983168410610b38576001935082601f19811610610b1f575b5050811b01600384015561092d565b84015160001960f88460031b161c191690553880610b10565b84810151825560209384019360019092019101610af5565b60038501875260208720601f830160051c810160208410610b8d575b601f830160051c82018110610b82575050610900565b888155600101610b6c565b5080610b6c565b634e487b7160e01b86526041600452602486fd5b0151905038806108c1565b9250600286018852602088209088935b601f1984168510610c07576001945083601f19811610610bee575b505050811b0160028401556108d9565b015160001960f88460031b161c19169055388080610bde565b81810151835560209485019460019093019290910190610bc3565b90915060028601885260208820601f840160051c810160208510610c6b575b90849392915b601f830160051c82018110610c5d5750506108ab565b8a8155859450600101610c47565b5080610c41565b634e487b7160e01b87526041600452602487fd5b90508401513861086a565b91506001860188526020882088925b601f1983168410610ce3576001935082601f19811610610cca575b5050811b016001850155610881565b86015160001960f88460031b161c191690553880610cbb565b86810151825560209384019360019092019101610ca0565b60018601885260208820601f830160051c810160208410610d38575b601f830160051c82018110610d2d575050610854565b898155600101610d17565b5080610d17565b60405162461bcd60e51b8152602060048201526024808201527f476f7665726e616e63653a2050726f706f73616c20636f6f6c646f776e2061636044820152637469766560e01b6064820152608490fd5b634e487b7160e01b85526011600452602485fd5b60405162461bcd60e51b8152602060048201526024808201527f476f7665726e616e63653a20496e73756666696369656e74204943432062616c604482015263616e636560e01b6064820152608490fd5b506020813d602011610e28575b81610e0f602093836117d0565b810103126104f35768056bc75e2d6310000090516107e1565b3d9150610e02565b6040513d87823e3d90fd5b60405162461bcd60e51b815260206004820152601d60248201527f476f7665726e616e63653a20456d707479206465736372697074696f6e0000006044820152606490fd5b60405162461bcd60e51b815260206004820152601760248201527f476f7665726e616e63653a20456d707479207469746c650000000000000000006044820152606490fd5b8380fd5b8280fd5b5080fd5b503461020557604036600319011261020557600435602480356003811015610ec557821515806112bc575b610f0590611b13565b610f0d611a79565b610f15611abd565b828452602090600382526040852092600584018054421061127857610f406006860154421115611b5f565b600b85013360005280855260ff6040600020541661123457610f6c60ff600a88015460081c1615611bab565b336000528452604060002060ff1990600182825416179055600c8601855260406000209081541660ff85161790556001831460001461120c5760078501610fb38154611a6a565b90555b3387526006845260408720610fcb8154611a6a565b9055604051610fd9816117b4565b60098152681d9bdd1957d8d85cdd60ba1b8582015290546201518081018091116111f9574211156111d0575b7f00000000000000000000000000000000000000000000000000000000000000006001600160a01b03169487863b15610205578061106493604051809581926317e2f08f60e21b83523360048401526060898401526064830190611898565b8360448301520381838b5af19283156111c35786936111a6575b50506110de9060049461109460405180926119c9565b4284820152887fb83d25c6a5d258561330739951487acb4bd09ba5190b5d32c4f261817d90679260403393a360096110d56007830154600884015490611a47565b91015490611a47565b94604051938480926318160ddd60e01b82525afa91821561119b57869261116c575b5060058202918083046005149015171561115a575060649004821015611129575b836001815580f35b7fee96623b2793754b095184a2d77a7841701e5a5b2686385a774eddf127222f3f91604051908152a2388080611121565b634e487b7160e01b8652601160045285fd5b9091508281813d8311611194575b61118481836117d0565b810103126104f357519038611100565b503d61117a565b6040513d88823e3d90fd5b6111b29192935061178a565b6111bf578390873861107e565b8680fd5b50604051903d90823e3d90fd5b506040516111dd816117b4565b600b81526a32b0b9363cafbb37ba32b960a91b84820152611005565b634e487b7160e01b885260116004528288fd5b82611226576008850161121f8154611a6a565b9055610fb6565b6009850161121f8154611a6a565b60405162461bcd60e51b8152600481018690526019818501527f476f7665726e616e63653a20416c726561647920766f746564000000000000006044820152606490fd5b60405162461bcd60e51b815260048101859052601e818401527f476f7665726e616e63653a20566f74696e67206e6f74207374617274656400006044820152606490fd5b50600254831115610efc565b50346102055780600319360112610205576104376040516112e8816117b4565b60058152640312e302e360dc1b6020820152604051918291602083526020830190611898565b5034610205576020366003190112610205576060906001600160a01b0361133361195c565b1681526005602052604081205490600660205260408082205491600460205220549060405192835260208301526040820152f35b50346102055780600319360112610205576020604051620151808152f35b503461020557806003193601126102055761139e6119ec565b60015460ff8116156113de5760ff19166001557f5db9ee0a495bf2e6ff9c91a7834c1ba4fdd244a5e8aa4e537bd38aeae4b073aa6020604051338152a180f35b60405162461bcd60e51b815260206004820152601460248201527314185d5cd8589b194e881b9bdd081c185d5cd95960621b6044820152606490fd5b50346102055780600319360112610205576040517f00000000000000000000000000000000000000000000000000000000000000006001600160a01b03168152602090f35b5034610205576020366003190112610205576020906040906001600160a01b0361148761195c565b168152600583522054604051908152f35b50346102055760203660031901126102055760043590811515806116b2575b6114c090611b13565b6114c8611a79565b6114d0611abd565b818152600360205260408120600681015442111561166d57600a810180546114fb60ff821615611bf7565b61150b60ff8260081c1615611bab565b61151485611c43565b60068110156116595760020361160a5760ff19166001179055600401547f00000000000000000000000000000000000000000000000000000000000000006001600160a01b039081169116813b15610ec957829160a4839260405194859384926317e2f08f60e21b8452600484015260606024840152600f60648401526e1c1c9bdc1bdcd85b17dc185cdcd959608a1b60848401528160448401525af180156115ff576115f0575b50907f948f4a9cd986f1118c3fbd459f7a22b23c0693e1ca3ef06a6a8be5aa7d39cc03602060405160018152a26001815580f35b6115f99061178a565b386115bc565b6040513d84823e3d90fd5b60405162461bcd60e51b815260206004820152602160248201527f476f7665726e616e63653a2050726f706f73616c20646964206e6f74207061736044820152607360f81b6064820152608490fd5b634e487b7160e01b85526021600452602485fd5b60405162461bcd60e51b815260206004820152601f60248201527f476f7665726e616e63653a20566f74696e67207374696c6c20616374697665006044820152606490fd5b506002548211156114b7565b50346102055760203660031901126102055760409060043581526003602052208054906104376116f0600183016117f2565b916116fd600282016117f2565b9361170a600383016117f2565b9160018060a01b0360048201541660058201546006830154600784015491600885015493600a6009870154960154976040519b8c9b60ff808c60081c169b16998d6118d8565b90600182811c92168015611780575b602083101461176a57565b634e487b7160e01b600052602260045260246000fd5b91607f169161175f565b67ffffffffffffffff811161179e57604052565b634e487b7160e01b600052604160045260246000fd5b6040810190811067ffffffffffffffff82111761179e57604052565b90601f8019910116810190811067ffffffffffffffff82111761179e57604052565b906040519182600082549261180684611750565b9081845260019485811690816000146118755750600114611832575b5050611830925003836117d0565b565b9093915060005260209081600020936000915b81831061185d57505061183093508201013880611822565b85548884018501529485019487945091830191611845565b91505061183094506020925060ff191682840152151560051b8201013880611822565b919082519283825260005b8481106118c4575050826000602080949584010152601f8019910116010190565b6020818301810151848301820152016118a3565b9a97949c9b98959261191490611906611922948e6101609e9b98958152610180908160208201520190611898565b8d810360408f015290611898565b908b820360608d0152611898565b6001600160a01b03909b1660808a015260a089015260c088015260e087015261010086015261012085015215156101408401521515910152565b600435906001600160a01b03821682036104f357565b81601f820112156104f35780359067ffffffffffffffff821161179e57604051926119a7601f8401601f1916602001856117d0565b828452602083830101116104f357816000926020809301838601378301015290565b9060038210156119d65752565b634e487b7160e01b600052602160045260246000fd5b60015460081c6001600160a01b03163303611a0357565b606460405162461bcd60e51b815260206004820152602060248201527f4f776e61626c653a2063616c6c6572206973206e6f7420746865206f776e65726044820152fd5b91908201809211611a5457565b634e487b7160e01b600052601160045260246000fd5b6000198114611a545760010190565b60ff60015416611a8557565b60405162461bcd60e51b815260206004820152601060248201526f14185d5cd8589b194e881c185d5cd95960821b6044820152606490fd5b600260005414611ace576002600055565b60405162461bcd60e51b815260206004820152601f60248201527f5265656e7472616e637947756172643a207265656e7472616e742063616c6c006044820152606490fd5b15611b1a57565b60405162461bcd60e51b815260206004820152601f60248201527f476f7665726e616e63653a20496e76616c69642070726f706f73616c204944006044820152606490fd5b15611b6657565b60405162461bcd60e51b815260206004820152601860248201527f476f7665726e616e63653a20566f74696e6720656e64656400000000000000006044820152606490fd5b15611bb257565b60405162461bcd60e51b815260206004820152601e60248201527f476f7665726e616e63653a2050726f706f73616c2063616e63656c6c656400006044820152606490fd5b15611bfe57565b60405162461bcd60e51b815260206004820152601c60248201527f476f7665726e616e63653a20416c7265616479206578656375746564000000006044820152606490fd5b611c5e9080151580611c61575b611c5990611b13565b611c6d565b90565b50600254811115611c50565b6000908152600360205260408120600a81015460ff8160081c16611d9a5760ff16611d93576006810154421115611d8c57600781015491611cb960088301549260096110d58587611a47565b6040516318160ddd60e01b815290916020826004817f00000000000000000000000000000000000000000000000000000000000000006001600160a01b03165afa9182156111c3578192611d59575b50600582029180830460051490151715611d4557506064900411159182611d3b575b505015611d3657600290565b600390565b1190503880611d2a565b634e487b7160e01b81526011600452602490fd5b9091506020813d8211611d84575b81611d74602093836117d0565b81010312610ecd57519038611d08565b3d9150611d67565b5050600190565b5050600490565b50505060059056fea264697066735822122075af191ec883909304a993c33b1e59bb05969c1fa8349ae497a9dc37558ce3e864736f6c63430008130033","opcodes":"PUSH1 0xA0 CALLVALUE PUSH3 0x17E JUMPI PUSH1 0x1F PUSH3 0x1FE3 CODESIZE DUP2 SWAP1 SUB SWAP2 DUP3 ADD PUSH1 0x1F NOT AND DUP4 ADD SWAP2 PUSH1 0x1 PUSH1 0x1 PUSH1 0x40 SHL SUB DUP4 GT DUP5 DUP5 LT OR PUSH3 0x183 JUMPI DUP1 DUP5 SWAP3 PUSH1 0x40 SWAP5 DUP6 MSTORE DUP4 CODECOPY DUP2 ADD SUB SLT PUSH3 0x17E JUMPI PUSH3 0x5A PUSH1 0x20 PUSH3 0x52 DUP4 PUSH3 0x199 JUMP JUMPDEST SWAP3 ADD PUSH3 0x199 JUMP JUMPDEST PUSH1 0x1 PUSH1 0x0 SSTORE PUSH1 0xFF NOT PUSH1 0x1 SLOAD AND PUSH1 0x1 SSTORE PUSH3 0x74 CALLER PUSH3 0x1AE JUMP JUMPDEST PUSH1 0x1 PUSH1 0x1 PUSH1 0xA0 SHL SUB SWAP2 DUP3 AND SWAP2 DUP3 ISZERO PUSH3 0x12F JUMPI DUP2 AND ISZERO PUSH3 0xE0 JUMPI PUSH3 0x9D SWAP2 PUSH1 0x80 MSTORE PUSH3 0x1AE JUMP JUMPDEST PUSH1 0x40 MLOAD PUSH2 0x1DD8 SWAP1 DUP2 PUSH3 0x20B DUP3 CODECOPY PUSH1 0x80 MLOAD DUP2 DUP2 DUP2 PUSH2 0x7AA ADD MSTORE DUP2 DUP2 PUSH2 0x988 ADD MSTORE DUP2 DUP2 PUSH2 0xA00 ADD MSTORE DUP2 DUP2 PUSH2 0x1007 ADD MSTORE DUP2 DUP2 PUSH2 0x1430 ADD MSTORE DUP2 DUP2 PUSH2 0x1533 ADD MSTORE PUSH2 0x1CD0 ADD MSTORE RETURN JUMPDEST PUSH1 0x40 MLOAD PUSH3 0x461BCD PUSH1 0xE5 SHL DUP2 MSTORE PUSH1 0x20 PUSH1 0x4 DUP3 ADD MSTORE PUSH1 0x21 PUSH1 0x24 DUP3 ADD MSTORE PUSH32 0x476F7665726E616E63653A20496E76616C6964206F776E657220616464726573 PUSH1 0x44 DUP3 ADD MSTORE PUSH1 0x73 PUSH1 0xF8 SHL PUSH1 0x64 DUP3 ADD MSTORE PUSH1 0x84 SWAP1 REVERT JUMPDEST PUSH1 0x40 MLOAD PUSH3 0x461BCD PUSH1 0xE5 SHL DUP2 MSTORE PUSH1 0x20 PUSH1 0x4 DUP3 ADD MSTORE PUSH1 0x21 PUSH1 0x24 DUP3 ADD MSTORE PUSH32 0x476F7665726E616E63653A20496E76616C696420746F6B656E20616464726573 PUSH1 0x44 DUP3 ADD MSTORE PUSH1 0x73 PUSH1 0xF8 SHL PUSH1 0x64 DUP3 ADD MSTORE PUSH1 0x84 SWAP1 REVERT JUMPDEST PUSH1 0x0 DUP1 REVERT JUMPDEST PUSH4 0x4E487B71 PUSH1 0xE0 SHL PUSH1 0x0 MSTORE PUSH1 0x41 PUSH1 0x4 MSTORE PUSH1 0x24 PUSH1 0x0 REVERT JUMPDEST MLOAD SWAP1 PUSH1 0x1 PUSH1 0x1 PUSH1 0xA0 SHL SUB DUP3 AND DUP3 SUB PUSH3 0x17E JUMPI JUMP JUMPDEST PUSH1 0x1 DUP1 SLOAD PUSH2 0x100 PUSH1 0x1 PUSH1 0xA8 SHL SUB NOT DUP2 AND PUSH1 0x8 DUP5 DUP2 SHL PUSH2 0x100 PUSH1 0x1 PUSH1 0xA8 SHL SUB AND SWAP2 SWAP1 SWAP2 OR SWAP1 SWAP3 SSTORE PUSH1 0x1 PUSH1 0x1 PUSH1 0xA0 SHL SUB SWAP3 DUP4 AND SWAP3 SWAP2 SHR AND PUSH32 0x8BE0079C531659141344CD1FD0A4F28419497F9722A3DAAFE3B4186F6B6457E0 PUSH1 0x0 DUP1 LOG3 JUMP INVALID PUSH1 0x80 PUSH1 0x40 MSTORE PUSH1 0x4 CALLDATASIZE LT ISZERO PUSH2 0x12 JUMPI PUSH1 0x0 DUP1 REVERT JUMPDEST PUSH1 0x0 DUP1 CALLDATALOAD PUSH1 0xE0 SHR DUP1 PUSH4 0x13CF08B EQ PUSH2 0x16BE JUMPI DUP1 PUSH4 0xD61B519 EQ PUSH2 0x1498 JUMPI DUP1 PUSH4 0x211603C6 EQ PUSH2 0x145F JUMPI DUP1 PUSH4 0x31DE8807 EQ PUSH2 0x141A JUMPI DUP1 PUSH4 0x3F4BA83A EQ PUSH2 0x1385 JUMPI DUP1 PUSH4 0x467F67F9 EQ PUSH2 0x1367 JUMPI DUP1 PUSH4 0x4E43603A EQ PUSH2 0x130E JUMPI DUP1 PUSH4 0x54FD4D50 EQ PUSH2 0x12C8 JUMPI DUP1 PUSH4 0x56781388 EQ PUSH2 0xED1 JUMPI DUP1 PUSH4 0x583CF379 EQ PUSH2 0x6FE JUMPI DUP1 PUSH4 0x5B7AD578 EQ PUSH2 0x6C5 JUMPI DUP1 PUSH4 0x5C975ABB EQ PUSH2 0x6A2 JUMPI DUP1 PUSH4 0x713CDAA8 EQ PUSH2 0x669 JUMPI DUP1 PUSH4 0x715018A6 EQ PUSH2 0x607 JUMPI DUP1 PUSH4 0x791F5D23 EQ PUSH2 0x5E3 JUMPI DUP1 PUSH4 0x8456CB59 EQ PUSH2 0x589 JUMPI DUP1 PUSH4 0x8DA5CB5B EQ PUSH2 0x55C JUMPI DUP1 PUSH4 0x9080936F EQ PUSH2 0x516 JUMPI DUP1 PUSH4 0xA438D208 EQ PUSH2 0x4F8 JUMPI DUP1 PUSH4 0xBC3F931F EQ PUSH2 0x465 JUMPI DUP1 PUSH4 0xC08CC02D EQ PUSH2 0x447 JUMPI DUP1 PUSH4 0xC7F758A8 EQ PUSH2 0x395 JUMPI DUP1 PUSH4 0xE0A8F6F5 EQ PUSH2 0x224 JUMPI DUP1 PUSH4 0xEE8A7C15 EQ PUSH2 0x208 JUMPI PUSH4 0xF2FDE38B EQ PUSH2 0x130 JUMPI PUSH1 0x0 DUP1 REVERT JUMPDEST CALLVALUE PUSH2 0x205 JUMPI PUSH1 0x20 CALLDATASIZE PUSH1 0x3 NOT ADD SLT PUSH2 0x205 JUMPI PUSH2 0x149 PUSH2 0x195C JUMP JUMPDEST PUSH2 0x151 PUSH2 0x19EC JUMP JUMPDEST PUSH1 0x1 PUSH1 0x1 PUSH1 0xA0 SHL SUB DUP2 DUP2 AND SWAP2 DUP3 ISZERO PUSH2 0x1B1 JUMPI PUSH1 0x1 DUP1 SLOAD PUSH2 0x100 PUSH1 0x1 PUSH1 0xA8 SHL SUB NOT DUP2 AND PUSH1 0x8 SWAP4 DUP5 SHL PUSH2 0x100 PUSH1 0x1 PUSH1 0xA8 SHL SUB AND OR SWAP1 SWAP2 SSTORE SWAP1 SHR AND PUSH32 0x8BE0079C531659141344CD1FD0A4F28419497F9722A3DAAFE3B4186F6B6457E0 PUSH1 0x0 DUP1 LOG3 DUP1 RETURN JUMPDEST PUSH1 0x40 MLOAD PUSH3 0x461BCD PUSH1 0xE5 SHL DUP2 MSTORE PUSH1 0x20 PUSH1 0x4 DUP3 ADD MSTORE PUSH1 0x26 PUSH1 0x24 DUP3 ADD MSTORE PUSH32 0x4F776E61626C653A206E6577206F776E657220697320746865207A65726F2061 PUSH1 0x44 DUP3 ADD MSTORE PUSH6 0x646472657373 PUSH1 0xD0 SHL PUSH1 0x64 DUP3 ADD MSTORE PUSH1 0x84 SWAP1 REVERT JUMPDEST DUP1 REVERT JUMPDEST POP CALLVALUE PUSH2 0x205 JUMPI DUP1 PUSH1 0x3 NOT CALLDATASIZE ADD SLT PUSH2 0x205 JUMPI PUSH1 0x20 PUSH1 0x40 MLOAD PUSH1 0x5 DUP2 MSTORE RETURN JUMPDEST POP CALLVALUE PUSH2 0x205 JUMPI PUSH1 0x20 CALLDATASIZE PUSH1 0x3 NOT ADD SLT PUSH2 0x205 JUMPI PUSH1 0x4 CALLDATALOAD DUP1 ISZERO ISZERO DUP1 PUSH2 0x389 JUMPI JUMPDEST PUSH2 0x24B SWAP1 PUSH2 0x1B13 JUMP JUMPDEST PUSH2 0x253 PUSH2 0x1A79 JUMP JUMPDEST DUP1 DUP3 MSTORE PUSH1 0x3 PUSH1 0x20 MSTORE PUSH1 0x40 DUP3 KECCAK256 PUSH1 0x4 DUP2 ADD SLOAD CALLER PUSH1 0x1 PUSH1 0x1 PUSH1 0xA0 SHL SUB SWAP2 DUP3 AND EQ SWAP1 DUP2 ISZERO PUSH2 0x378 JUMPI JUMPDEST POP ISZERO PUSH2 0x327 JUMPI DUP1 PUSH2 0x292 PUSH1 0x6 PUSH1 0xA SWAP4 ADD SLOAD TIMESTAMP GT ISZERO PUSH2 0x1B5F JUMP JUMPDEST ADD DUP1 SLOAD PUSH1 0xFF DUP2 PUSH1 0x8 SHR AND PUSH2 0x2E2 JUMPI DUP1 PUSH2 0x2B1 PUSH1 0xFF PUSH2 0x100 SWAP4 AND ISZERO PUSH2 0x1BF7 JUMP JUMPDEST PUSH2 0xFF00 NOT AND OR SWAP1 SSTORE CALLER SWAP1 PUSH32 0x74C34A008CE735D9FCF0BD03A9B238D212AD4C441C020661F4FFBB6442645B85 DUP4 DUP1 LOG3 DUP1 RETURN JUMPDEST PUSH1 0x40 MLOAD PUSH3 0x461BCD PUSH1 0xE5 SHL DUP2 MSTORE PUSH1 0x20 PUSH1 0x4 DUP3 ADD MSTORE PUSH1 0x1D PUSH1 0x24 DUP3 ADD MSTORE PUSH32 0x476F7665726E616E63653A20416C72656164792063616E63656C6C6564000000 PUSH1 0x44 DUP3 ADD MSTORE PUSH1 0x64 SWAP1 REVERT JUMPDEST PUSH1 0x40 MLOAD PUSH3 0x461BCD PUSH1 0xE5 SHL DUP2 MSTORE PUSH1 0x20 PUSH1 0x4 DUP3 ADD MSTORE PUSH1 0x24 DUP1 DUP3 ADD MSTORE PUSH32 0x476F7665726E616E63653A204E6F7420617574686F72697A656420746F206361 PUSH1 0x44 DUP3 ADD MSTORE PUSH4 0x1B98D95B PUSH1 0xE2 SHL PUSH1 0x64 DUP3 ADD MSTORE PUSH1 0x84 SWAP1 REVERT JUMPDEST SWAP1 POP PUSH1 0x1 SLOAD PUSH1 0x8 SHR AND CALLER EQ CODESIZE PUSH2 0x279 JUMP JUMPDEST POP PUSH1 0x2 SLOAD DUP2 GT ISZERO PUSH2 0x242 JUMP JUMPDEST POP CALLVALUE PUSH2 0x205 JUMPI PUSH1 0x20 CALLDATASIZE PUSH1 0x3 NOT ADD SLT PUSH2 0x205 JUMPI PUSH1 0x40 SWAP1 PUSH1 0x4 CALLDATALOAD DUP1 ISZERO ISZERO DUP1 PUSH2 0x43B JUMPI JUMPDEST PUSH2 0x3BF SWAP1 PUSH2 0x1B13 JUMP JUMPDEST DUP2 MSTORE PUSH1 0x3 PUSH1 0x20 MSTORE KECCAK256 DUP1 PUSH2 0x437 DUP2 DUP1 SLOAD DUP2 PUSH1 0x1 DUP1 PUSH1 0xA0 SHL SUB PUSH1 0x4 DUP3 ADD SLOAD AND PUSH1 0x5 DUP3 ADD SLOAD PUSH1 0x6 DUP4 ADD SLOAD PUSH1 0x7 DUP5 ADD SLOAD SWAP2 PUSH1 0x8 DUP6 ADD SLOAD SWAP4 PUSH2 0x420 PUSH1 0x3 PUSH2 0x419 PUSH1 0x2 PUSH2 0x412 PUSH1 0x1 PUSH1 0xA PUSH1 0x9 DUP14 ADD SLOAD SWAP13 ADD SLOAD SWAP14 ADD PUSH2 0x17F2 JUMP JUMPDEST SWAP14 ADD PUSH2 0x17F2 JUMP JUMPDEST SWAP13 ADD PUSH2 0x17F2 JUMP JUMPDEST PUSH1 0x40 MLOAD SWAP12 DUP13 SWAP12 PUSH1 0xFF DUP1 DUP13 PUSH1 0x8 SHR AND SWAP12 AND SWAP10 DUP14 PUSH2 0x18D8 JUMP JUMPDEST SUB SWAP1 RETURN JUMPDEST POP PUSH1 0x2 SLOAD DUP2 GT ISZERO PUSH2 0x3B6 JUMP JUMPDEST POP CALLVALUE PUSH2 0x205 JUMPI DUP1 PUSH1 0x3 NOT CALLDATASIZE ADD SLT PUSH2 0x205 JUMPI PUSH1 0x20 PUSH1 0x2 SLOAD PUSH1 0x40 MLOAD SWAP1 DUP2 MSTORE RETURN JUMPDEST POP CALLVALUE PUSH2 0x205 JUMPI PUSH1 0x40 CALLDATASIZE PUSH1 0x3 NOT ADD SLT PUSH2 0x205 JUMPI PUSH1 0x24 CALLDATALOAD PUSH1 0x1 PUSH1 0x1 PUSH1 0xA0 SHL SUB DUP2 AND SWAP1 PUSH1 0x4 CALLDATALOAD SWAP1 DUP3 SWAP1 SUB PUSH2 0x4F3 JUMPI PUSH1 0x40 SWAP3 DUP2 DUP5 SWAP3 ISZERO ISZERO DUP1 PUSH2 0x4E7 JUMPI JUMPDEST PUSH2 0x4A7 SWAP1 PUSH2 0x1B13 JUMP JUMPDEST DUP2 MSTORE PUSH1 0x3 PUSH1 0x20 MSTORE KECCAK256 SWAP1 PUSH1 0x0 MSTORE PUSH1 0xB DUP2 ADD PUSH1 0x20 MSTORE PUSH1 0xC PUSH1 0xFF DUP4 PUSH1 0x0 KECCAK256 SLOAD AND SWAP2 ADD PUSH1 0x20 MSTORE PUSH2 0x4E5 PUSH1 0xFF DUP4 PUSH1 0x0 KECCAK256 SLOAD AND DUP4 MLOAD SWAP3 ISZERO ISZERO DUP4 MSTORE PUSH1 0x20 DUP4 ADD SWAP1 PUSH2 0x19C9 JUMP JUMPDEST RETURN JUMPDEST POP PUSH1 0x2 SLOAD DUP2 GT ISZERO PUSH2 0x49E JUMP JUMPDEST PUSH1 0x0 DUP1 REVERT JUMPDEST POP CALLVALUE PUSH2 0x205 JUMPI DUP1 PUSH1 0x3 NOT CALLDATASIZE ADD SLT PUSH2 0x205 JUMPI PUSH1 0x20 PUSH1 0x40 MLOAD PUSH3 0x93A80 DUP2 MSTORE RETURN JUMPDEST POP CALLVALUE PUSH2 0x205 JUMPI PUSH1 0x20 CALLDATASIZE PUSH1 0x3 NOT ADD SLT PUSH2 0x205 JUMPI PUSH2 0x533 PUSH1 0x4 CALLDATALOAD PUSH2 0x1C43 JUMP JUMPDEST PUSH1 0x40 MLOAD SWAP1 PUSH1 0x6 DUP2 LT ISZERO PUSH2 0x548 JUMPI PUSH1 0x20 SWAP3 POP DUP2 MSTORE RETURN JUMPDEST PUSH4 0x4E487B71 PUSH1 0xE0 SHL DUP4 MSTORE PUSH1 0x21 PUSH1 0x4 MSTORE PUSH1 0x24 DUP4 REVERT JUMPDEST POP CALLVALUE PUSH2 0x205 JUMPI DUP1 PUSH1 0x3 NOT CALLDATASIZE ADD SLT PUSH2 0x205 JUMPI PUSH1 0x1 SLOAD PUSH1 0x40 MLOAD PUSH1 0x8 SWAP2 SWAP1 SWAP2 SHR PUSH1 0x1 PUSH1 0x1 PUSH1 0xA0 SHL SUB AND DUP2 MSTORE PUSH1 0x20 SWAP1 RETURN JUMPDEST POP CALLVALUE PUSH2 0x205 JUMPI DUP1 PUSH1 0x3 NOT CALLDATASIZE ADD SLT PUSH2 0x205 JUMPI PUSH2 0x5A2 PUSH2 0x19EC JUMP JUMPDEST PUSH2 0x5AA PUSH2 0x1A79 JUMP JUMPDEST PUSH1 0x1 PUSH1 0xFF NOT DUP2 SLOAD AND OR PUSH1 0x1 SSTORE PUSH32 0x62E78CEA01BEE320CD4E420270B5EA74000D11B0C9F74754EBDBFC544B05A258 PUSH1 0x20 PUSH1 0x40 MLOAD CALLER DUP2 MSTORE LOG1 DUP1 RETURN JUMPDEST POP CALLVALUE PUSH2 0x205 JUMPI DUP1 PUSH1 0x3 NOT CALLDATASIZE ADD SLT PUSH2 0x205 JUMPI PUSH1 0x20 PUSH1 0x40 MLOAD PUSH9 0x56BC75E2D63100000 DUP2 MSTORE RETURN JUMPDEST POP CALLVALUE PUSH2 0x205 JUMPI DUP1 PUSH1 0x3 NOT CALLDATASIZE ADD SLT PUSH2 0x205 JUMPI PUSH2 0x620 PUSH2 0x19EC JUMP JUMPDEST PUSH1 0x1 DUP1 SLOAD PUSH2 0x100 PUSH1 0x1 PUSH1 0xA8 SHL SUB NOT DUP2 AND SWAP1 SWAP2 SSTORE PUSH1 0x0 SWAP1 PUSH1 0x8 SHR PUSH1 0x1 PUSH1 0x1 PUSH1 0xA0 SHL SUB AND PUSH32 0x8BE0079C531659141344CD1FD0A4F28419497F9722A3DAAFE3B4186F6B6457E0 DUP3 DUP1 LOG3 DUP1 RETURN JUMPDEST POP CALLVALUE PUSH2 0x205 JUMPI PUSH1 0x20 CALLDATASIZE PUSH1 0x3 NOT ADD SLT PUSH2 0x205 JUMPI PUSH1 0x20 SWAP1 PUSH1 0x40 SWAP1 PUSH1 0x1 PUSH1 0x1 PUSH1 0xA0 SHL SUB PUSH2 0x691 PUSH2 0x195C JUMP JUMPDEST AND DUP2 MSTORE PUSH1 0x6 DUP4 MSTORE KECCAK256 SLOAD PUSH1 0x40 MLOAD SWAP1 DUP2 MSTORE RETURN JUMPDEST POP CALLVALUE PUSH2 0x205 JUMPI DUP1 PUSH1 0x3 NOT CALLDATASIZE ADD SLT PUSH2 0x205 JUMPI PUSH1 0x20 PUSH1 0xFF PUSH1 0x1 SLOAD AND PUSH1 0x40 MLOAD SWAP1 ISZERO ISZERO DUP2 MSTORE RETURN JUMPDEST POP CALLVALUE PUSH2 0x205 JUMPI PUSH1 0x20 CALLDATASIZE PUSH1 0x3 NOT ADD SLT PUSH2 0x205 JUMPI PUSH1 0x20 SWAP1 PUSH1 0x40 SWAP1 PUSH1 0x1 PUSH1 0x1 PUSH1 0xA0 SHL SUB PUSH2 0x6ED PUSH2 0x195C JUMP JUMPDEST AND DUP2 MSTORE PUSH1 0x4 DUP4 MSTORE KECCAK256 SLOAD PUSH1 0x40 MLOAD SWAP1 DUP2 MSTORE RETURN JUMPDEST POP CALLVALUE PUSH2 0x205 JUMPI PUSH1 0x60 CALLDATASIZE PUSH1 0x3 NOT ADD SLT PUSH2 0x205 JUMPI PUSH1 0x4 CALLDATALOAD PUSH8 0xFFFFFFFFFFFFFFFF DUP2 GT PUSH2 0xECD JUMPI PUSH2 0x730 SWAP1 CALLDATASIZE SWAP1 PUSH1 0x4 ADD PUSH2 0x1972 JUMP JUMPDEST PUSH1 0x24 CALLDATALOAD PUSH8 0xFFFFFFFFFFFFFFFF DUP2 GT PUSH2 0xEC9 JUMPI PUSH2 0x750 SWAP1 CALLDATASIZE SWAP1 PUSH1 0x4 ADD PUSH2 0x1972 JUMP JUMPDEST PUSH1 0x44 CALLDATALOAD PUSH8 0xFFFFFFFFFFFFFFFF DUP2 GT PUSH2 0xEC5 JUMPI PUSH2 0x770 SWAP1 CALLDATASIZE SWAP1 PUSH1 0x4 ADD PUSH2 0x1972 JUMP JUMPDEST SWAP2 PUSH2 0x779 PUSH2 0x1A79 JUMP JUMPDEST PUSH2 0x781 PUSH2 0x1ABD JUMP JUMPDEST DUP1 MLOAD ISZERO PUSH2 0xE80 JUMPI DUP2 MLOAD ISZERO PUSH2 0xE3B JUMPI PUSH1 0x40 MLOAD PUSH4 0x70A08231 PUSH1 0xE0 SHL DUP2 MSTORE CALLER PUSH1 0x4 DUP3 ADD MSTORE PUSH1 0x20 DUP2 PUSH1 0x24 DUP2 PUSH32 0x0 PUSH1 0x1 PUSH1 0x1 PUSH1 0xA0 SHL SUB AND GAS STATICCALL DUP1 ISZERO PUSH2 0xE30 JUMPI DUP6 SWAP1 PUSH2 0xDF5 JUMPI JUMPDEST PUSH9 0x56BC75E2D63100000 SWAP2 POP LT PUSH2 0xDA4 JUMPI CALLER DUP5 MSTORE PUSH1 0x4 PUSH1 0x20 MSTORE PUSH1 0x40 DUP5 KECCAK256 SLOAD PUSH3 0x15180 DUP2 ADD DUP1 SWAP2 GT PUSH2 0xD90 JUMPI TIMESTAMP LT PUSH2 0xD3F JUMPI PUSH1 0x1 PUSH1 0x2 SLOAD ADD SWAP3 DUP4 PUSH1 0x2 SSTORE DUP4 DUP6 MSTORE PUSH1 0x3 PUSH1 0x20 MSTORE PUSH1 0x40 DUP6 KECCAK256 SWAP3 DUP5 DUP5 SSTORE DUP3 MLOAD PUSH8 0xFFFFFFFFFFFFFFFF DUP2 GT PUSH2 0xC72 JUMPI PUSH2 0x84B PUSH1 0x1 DUP7 ADD SLOAD PUSH2 0x1750 JUMP JUMPDEST PUSH1 0x1F DUP2 GT PUSH2 0xCFB JUMPI JUMPDEST POP DUP1 PUSH1 0x20 PUSH1 0x1F DUP3 GT PUSH1 0x1 EQ PUSH2 0xC91 JUMPI DUP9 SWAP2 PUSH2 0xC86 JUMPI JUMPDEST POP DUP2 PUSH1 0x1 SHL SWAP2 PUSH1 0x0 NOT SWAP1 PUSH1 0x3 SHL SHR NOT AND OR PUSH1 0x1 DUP6 ADD SSTORE JUMPDEST DUP1 MLOAD SWAP1 PUSH8 0xFFFFFFFFFFFFFFFF DUP3 GT PUSH2 0xC72 JUMPI DUP2 SWAP1 PUSH2 0x8A2 PUSH1 0x2 DUP8 ADD SLOAD PUSH2 0x1750 JUMP JUMPDEST PUSH1 0x1F DUP2 GT PUSH2 0xC22 JUMPI JUMPDEST POP PUSH1 0x20 SWAP1 PUSH1 0x1F DUP4 GT PUSH1 0x1 EQ PUSH2 0xBB3 JUMPI DUP9 SWAP3 PUSH2 0xBA8 JUMPI JUMPDEST POP POP DUP2 PUSH1 0x1 SHL SWAP2 PUSH1 0x0 NOT SWAP1 PUSH1 0x3 SHL SHR NOT AND OR PUSH1 0x2 DUP5 ADD SSTORE JUMPDEST DUP1 MLOAD PUSH8 0xFFFFFFFFFFFFFFFF DUP2 GT PUSH2 0xB94 JUMPI PUSH2 0x8F7 PUSH1 0x3 DUP6 ADD SLOAD PUSH2 0x1750 JUMP JUMPDEST PUSH1 0x1F DUP2 GT PUSH2 0xB50 JUMPI JUMPDEST POP DUP1 PUSH1 0x20 PUSH1 0x1F DUP3 GT PUSH1 0x1 EQ PUSH2 0xAE6 JUMPI DUP8 SWAP2 PUSH2 0xADB JUMPI JUMPDEST POP DUP2 PUSH1 0x1 SHL SWAP2 PUSH1 0x0 NOT SWAP1 PUSH1 0x3 SHL SHR NOT AND OR PUSH1 0x3 DUP5 ADD SSTORE JUMPDEST PUSH1 0x4 DUP4 ADD CALLER PUSH12 0xFFFFFFFFFFFFFFFFFFFFFFFF PUSH1 0xA0 SHL DUP3 SLOAD AND OR SWAP1 SSTORE PUSH1 0x5 DUP4 ADD TIMESTAMP DUP2 SSTORE PUSH3 0x93A80 TIMESTAMP ADD SWAP4 DUP5 TIMESTAMP GT PUSH2 0xAC7 JUMPI PUSH1 0x6 ADD SWAP4 DUP5 SSTORE CALLER DUP7 MSTORE PUSH1 0x4 PUSH1 0x20 MSTORE TIMESTAMP PUSH1 0x40 DUP8 KECCAK256 SSTORE PUSH1 0x5 PUSH1 0x20 MSTORE PUSH1 0x40 DUP7 KECCAK256 PUSH2 0x984 DUP2 SLOAD PUSH2 0x1A6A JUMP JUMPDEST SWAP1 SSTORE PUSH32 0x0 PUSH1 0x1 PUSH1 0x1 PUSH1 0xA0 SHL SUB AND EXTCODESIZE ISZERO PUSH2 0xAB8 JUMPI PUSH1 0x40 MLOAD PUSH4 0x17E2F08F PUSH1 0xE2 SHL DUP2 MSTORE CALLER PUSH1 0x4 DUP3 ADD MSTORE PUSH1 0x60 PUSH1 0x24 DUP3 ADD MSTORE PUSH1 0x11 PUSH1 0x64 DUP3 ADD MSTORE PUSH17 0x383937B837B9B0B62FB1B932B0BA34B7B7 PUSH1 0x79 SHL PUSH1 0x84 DUP3 ADD MSTORE PUSH1 0x44 DUP2 ADD DUP8 SWAP1 MSTORE DUP7 DUP2 PUSH1 0xA4 DUP2 DUP4 PUSH32 0x0 PUSH1 0x1 PUSH1 0x1 PUSH1 0xA0 SHL SUB AND GAS CALL DUP1 ISZERO PUSH2 0xABC JUMPI PUSH2 0xAA4 JUMPI JUMPDEST POP PUSH32 0xFAA337366F7965EDEA73E5DDA4E27A18008218BEE177DF73F82FC597A1F4DD08 PUSH1 0x20 SWAP7 SWAP4 PUSH1 0x1 SWAP6 SWAP4 PUSH2 0xA8A DUP9 SWAP5 SLOAD SWAP6 SLOAD SWAP2 PUSH2 0xA7D PUSH1 0x40 MLOAD SWAP5 PUSH1 0x80 DUP7 MSTORE PUSH1 0x80 DUP7 ADD SWAP1 PUSH2 0x1898 JUMP JUMPDEST SWAP1 DUP5 DUP3 SUB DUP13 DUP7 ADD MSTORE PUSH2 0x1898 JUMP JUMPDEST SWAP5 PUSH1 0x40 DUP4 ADD MSTORE PUSH1 0x60 DUP3 ADD MSTORE DUP1 CALLER SWAP5 SUB SWAP1 LOG3 SSTORE PUSH1 0x40 MLOAD SWAP1 DUP2 MSTORE RETURN JUMPDEST PUSH2 0xAAE DUP8 SWAP2 PUSH2 0x178A JUMP JUMPDEST PUSH2 0xAB8 JUMPI CODESIZE PUSH2 0xA35 JUMP JUMPDEST DUP6 DUP1 REVERT JUMPDEST PUSH1 0x40 MLOAD RETURNDATASIZE DUP10 DUP3 RETURNDATACOPY RETURNDATASIZE SWAP1 REVERT JUMPDEST PUSH4 0x4E487B71 PUSH1 0xE0 SHL DUP8 MSTORE PUSH1 0x11 PUSH1 0x4 MSTORE PUSH1 0x24 DUP8 REVERT JUMPDEST SWAP1 POP DUP3 ADD MLOAD CODESIZE PUSH2 0x916 JUMP JUMPDEST SWAP2 POP PUSH1 0x3 DUP6 ADD DUP8 MSTORE PUSH1 0x20 DUP8 KECCAK256 DUP8 SWAP3 JUMPDEST PUSH1 0x1F NOT DUP4 AND DUP5 LT PUSH2 0xB38 JUMPI PUSH1 0x1 SWAP4 POP DUP3 PUSH1 0x1F NOT DUP2 AND LT PUSH2 0xB1F JUMPI JUMPDEST POP POP DUP2 SHL ADD PUSH1 0x3 DUP5 ADD SSTORE PUSH2 0x92D JUMP JUMPDEST DUP5 ADD MLOAD PUSH1 0x0 NOT PUSH1 0xF8 DUP5 PUSH1 0x3 SHL AND SHR NOT AND SWAP1 SSTORE CODESIZE DUP1 PUSH2 0xB10 JUMP JUMPDEST DUP5 DUP2 ADD MLOAD DUP3 SSTORE PUSH1 0x20 SWAP4 DUP5 ADD SWAP4 PUSH1 0x1 SWAP1 SWAP3 ADD SWAP2 ADD PUSH2 0xAF5 JUMP JUMPDEST PUSH1 0x3 DUP6 ADD DUP8 MSTORE PUSH1 0x20 DUP8 KECCAK256 PUSH1 0x1F DUP4 ADD PUSH1 0x5 SHR DUP2 ADD PUSH1 0x20 DUP5 LT PUSH2 0xB8D JUMPI JUMPDEST PUSH1 0x1F DUP4 ADD PUSH1 0x5 SHR DUP3 ADD DUP2 LT PUSH2 0xB82 JUMPI POP POP PUSH2 0x900 JUMP JUMPDEST DUP9 DUP2 SSTORE PUSH1 0x1 ADD PUSH2 0xB6C JUMP JUMPDEST POP DUP1 PUSH2 0xB6C JUMP JUMPDEST PUSH4 0x4E487B71 PUSH1 0xE0 SHL DUP7 MSTORE PUSH1 0x41 PUSH1 0x4 MSTORE PUSH1 0x24 DUP7 REVERT JUMPDEST ADD MLOAD SWAP1 POP CODESIZE DUP1 PUSH2 0x8C1 JUMP JUMPDEST SWAP3 POP PUSH1 0x2 DUP7 ADD DUP9 MSTORE PUSH1 0x20 DUP9 KECCAK256 SWAP1 DUP9 SWAP4 JUMPDEST PUSH1 0x1F NOT DUP5 AND DUP6 LT PUSH2 0xC07 JUMPI PUSH1 0x1 SWAP5 POP DUP4 PUSH1 0x1F NOT DUP2 AND LT PUSH2 0xBEE JUMPI JUMPDEST POP POP POP DUP2 SHL ADD PUSH1 0x2 DUP5 ADD SSTORE PUSH2 0x8D9 JUMP JUMPDEST ADD MLOAD PUSH1 0x0 NOT PUSH1 0xF8 DUP5 PUSH1 0x3 SHL AND SHR NOT AND SWAP1 SSTORE CODESIZE DUP1 DUP1 PUSH2 0xBDE JUMP JUMPDEST DUP2 DUP2 ADD MLOAD DUP4 SSTORE PUSH1 0x20 SWAP5 DUP6 ADD SWAP5 PUSH1 0x1 SWAP1 SWAP4 ADD SWAP3 SWAP1 SWAP2 ADD SWAP1 PUSH2 0xBC3 JUMP JUMPDEST SWAP1 SWAP2 POP PUSH1 0x2 DUP7 ADD DUP9 MSTORE PUSH1 0x20 DUP9 KECCAK256 PUSH1 0x1F DUP5 ADD PUSH1 0x5 SHR DUP2 ADD PUSH1 0x20 DUP6 LT PUSH2 0xC6B JUMPI JUMPDEST SWAP1 DUP5 SWAP4 SWAP3 SWAP2 JUMPDEST PUSH1 0x1F DUP4 ADD PUSH1 0x5 SHR DUP3 ADD DUP2 LT PUSH2 0xC5D JUMPI POP POP PUSH2 0x8AB JUMP JUMPDEST DUP11 DUP2 SSTORE DUP6 SWAP5 POP PUSH1 0x1 ADD PUSH2 0xC47 JUMP JUMPDEST POP DUP1 PUSH2 0xC41 JUMP JUMPDEST PUSH4 0x4E487B71 PUSH1 0xE0 SHL DUP8 MSTORE PUSH1 0x41 PUSH1 0x4 MSTORE PUSH1 0x24 DUP8 REVERT JUMPDEST SWAP1 POP DUP5 ADD MLOAD CODESIZE PUSH2 0x86A JUMP JUMPDEST SWAP2 POP PUSH1 0x1 DUP7 ADD DUP9 MSTORE PUSH1 0x20 DUP9 KECCAK256 DUP9 SWAP3 JUMPDEST PUSH1 0x1F NOT DUP4 AND DUP5 LT PUSH2 0xCE3 JUMPI PUSH1 0x1 SWAP4 POP DUP3 PUSH1 0x1F NOT DUP2 AND LT PUSH2 0xCCA JUMPI JUMPDEST POP POP DUP2 SHL ADD PUSH1 0x1 DUP6 ADD SSTORE PUSH2 0x881 JUMP JUMPDEST DUP7 ADD MLOAD PUSH1 0x0 NOT PUSH1 0xF8 DUP5 PUSH1 0x3 SHL AND SHR NOT AND SWAP1 SSTORE CODESIZE DUP1 PUSH2 0xCBB JUMP JUMPDEST DUP7 DUP2 ADD MLOAD DUP3 SSTORE PUSH1 0x20 SWAP4 DUP5 ADD SWAP4 PUSH1 0x1 SWAP1 SWAP3 ADD SWAP2 ADD PUSH2 0xCA0 JUMP JUMPDEST PUSH1 0x1 DUP7 ADD DUP9 MSTORE PUSH1 0x20 DUP9 KECCAK256 PUSH1 0x1F DUP4 ADD PUSH1 0x5 SHR DUP2 ADD PUSH1 0x20 DUP5 LT PUSH2 0xD38 JUMPI JUMPDEST PUSH1 0x1F DUP4 ADD PUSH1 0x5 SHR DUP3 ADD DUP2 LT PUSH2 0xD2D JUMPI POP POP PUSH2 0x854 JUMP JUMPDEST DUP10 DUP2 SSTORE PUSH1 0x1 ADD PUSH2 0xD17 JUMP JUMPDEST POP DUP1 PUSH2 0xD17 JUMP JUMPDEST PUSH1 0x40 MLOAD PUSH3 0x461BCD PUSH1 0xE5 SHL DUP2 MSTORE PUSH1 0x20 PUSH1 0x4 DUP3 ADD MSTORE PUSH1 0x24 DUP1 DUP3 ADD MSTORE PUSH32 0x476F7665726E616E63653A2050726F706F73616C20636F6F6C646F776E206163 PUSH1 0x44 DUP3 ADD MSTORE PUSH4 0x74697665 PUSH1 0xE0 SHL PUSH1 0x64 DUP3 ADD MSTORE PUSH1 0x84 SWAP1 REVERT JUMPDEST PUSH4 0x4E487B71 PUSH1 0xE0 SHL DUP6 MSTORE PUSH1 0x11 PUSH1 0x4 MSTORE PUSH1 0x24 DUP6 REVERT JUMPDEST PUSH1 0x40 MLOAD PUSH3 0x461BCD PUSH1 0xE5 SHL DUP2 MSTORE PUSH1 0x20 PUSH1 0x4 DUP3 ADD MSTORE PUSH1 0x24 DUP1 DUP3 ADD MSTORE PUSH32 0x476F7665726E616E63653A20496E73756666696369656E74204943432062616C PUSH1 0x44 DUP3 ADD MSTORE PUSH4 0x616E6365 PUSH1 0xE0 SHL PUSH1 0x64 DUP3 ADD MSTORE PUSH1 0x84 SWAP1 REVERT JUMPDEST POP PUSH1 0x20 DUP2 RETURNDATASIZE PUSH1 0x20 GT PUSH2 0xE28 JUMPI JUMPDEST DUP2 PUSH2 0xE0F PUSH1 0x20 SWAP4 DUP4 PUSH2 0x17D0 JUMP JUMPDEST DUP2 ADD SUB SLT PUSH2 0x4F3 JUMPI PUSH9 0x56BC75E2D63100000 SWAP1 MLOAD PUSH2 0x7E1 JUMP JUMPDEST RETURNDATASIZE SWAP2 POP PUSH2 0xE02 JUMP JUMPDEST PUSH1 0x40 MLOAD RETURNDATASIZE DUP8 DUP3 RETURNDATACOPY RETURNDATASIZE SWAP1 REVERT JUMPDEST PUSH1 0x40 MLOAD PUSH3 0x461BCD PUSH1 0xE5 SHL DUP2 MSTORE PUSH1 0x20 PUSH1 0x4 DUP3 ADD MSTORE PUSH1 0x1D PUSH1 0x24 DUP3 ADD MSTORE PUSH32 0x476F7665726E616E63653A20456D707479206465736372697074696F6E000000 PUSH1 0x44 DUP3 ADD MSTORE PUSH1 0x64 SWAP1 REVERT JUMPDEST PUSH1 0x40 MLOAD PUSH3 0x461BCD PUSH1 0xE5 SHL DUP2 MSTORE PUSH1 0x20 PUSH1 0x4 DUP3 ADD MSTORE PUSH1 0x17 PUSH1 0x24 DUP3 ADD MSTORE PUSH32 0x476F7665726E616E63653A20456D707479207469746C65000000000000000000 PUSH1 0x44 DUP3 ADD MSTORE PUSH1 0x64 SWAP1 REVERT JUMPDEST DUP4 DUP1 REVERT JUMPDEST DUP3 DUP1 REVERT JUMPDEST POP DUP1 REVERT JUMPDEST POP CALLVALUE PUSH2 0x205 JUMPI PUSH1 0x40 CALLDATASIZE PUSH1 0x3 NOT ADD SLT PUSH2 0x205 JUMPI PUSH1 0x4 CALLDATALOAD PUSH1 0x24 DUP1 CALLDATALOAD PUSH1 0x3 DUP2 LT ISZERO PUSH2 0xEC5 JUMPI DUP3 ISZERO ISZERO DUP1 PUSH2 0x12BC JUMPI JUMPDEST PUSH2 0xF05 SWAP1 PUSH2 0x1B13 JUMP JUMPDEST PUSH2 0xF0D PUSH2 0x1A79 JUMP JUMPDEST PUSH2 0xF15 PUSH2 0x1ABD JUMP JUMPDEST DUP3 DUP5 MSTORE PUSH1 0x20 SWAP1 PUSH1 0x3 DUP3 MSTORE PUSH1 0x40 DUP6 KECCAK256 SWAP3 PUSH1 0x5 DUP5 ADD DUP1 SLOAD TIMESTAMP LT PUSH2 0x1278 JUMPI PUSH2 0xF40 PUSH1 0x6 DUP7 ADD SLOAD TIMESTAMP GT ISZERO PUSH2 0x1B5F JUMP JUMPDEST PUSH1 0xB DUP6 ADD CALLER PUSH1 0x0 MSTORE DUP1 DUP6 MSTORE PUSH1 0xFF PUSH1 0x40 PUSH1 0x0 KECCAK256 SLOAD AND PUSH2 0x1234 JUMPI PUSH2 0xF6C PUSH1 0xFF PUSH1 0xA DUP9 ADD SLOAD PUSH1 0x8 SHR AND ISZERO PUSH2 0x1BAB JUMP JUMPDEST CALLER PUSH1 0x0 MSTORE DUP5 MSTORE PUSH1 0x40 PUSH1 0x0 KECCAK256 PUSH1 0xFF NOT SWAP1 PUSH1 0x1 DUP3 DUP3 SLOAD AND OR SWAP1 SSTORE PUSH1 0xC DUP7 ADD DUP6 MSTORE PUSH1 0x40 PUSH1 0x0 KECCAK256 SWAP1 DUP2 SLOAD AND PUSH1 0xFF DUP6 AND OR SWAP1 SSTORE PUSH1 0x1 DUP4 EQ PUSH1 0x0 EQ PUSH2 0x120C JUMPI PUSH1 0x7 DUP6 ADD PUSH2 0xFB3 DUP2 SLOAD PUSH2 0x1A6A JUMP JUMPDEST SWAP1 SSTORE JUMPDEST CALLER DUP8 MSTORE PUSH1 0x6 DUP5 MSTORE PUSH1 0x40 DUP8 KECCAK256 PUSH2 0xFCB DUP2 SLOAD PUSH2 0x1A6A JUMP JUMPDEST SWAP1 SSTORE PUSH1 0x40 MLOAD PUSH2 0xFD9 DUP2 PUSH2 0x17B4 JUMP JUMPDEST PUSH1 0x9 DUP2 MSTORE PUSH9 0x1D9BDD1957D8D85CDD PUSH1 0xBA SHL DUP6 DUP3 ADD MSTORE SWAP1 SLOAD PUSH3 0x15180 DUP2 ADD DUP1 SWAP2 GT PUSH2 0x11F9 JUMPI TIMESTAMP GT ISZERO PUSH2 0x11D0 JUMPI JUMPDEST PUSH32 0x0 PUSH1 0x1 PUSH1 0x1 PUSH1 0xA0 SHL SUB AND SWAP5 DUP8 DUP7 EXTCODESIZE ISZERO PUSH2 0x205 JUMPI DUP1 PUSH2 0x1064 SWAP4 PUSH1 0x40 MLOAD DUP1 SWAP6 DUP2 SWAP3 PUSH4 0x17E2F08F PUSH1 0xE2 SHL DUP4 MSTORE CALLER PUSH1 0x4 DUP5 ADD MSTORE PUSH1 0x60 DUP10 DUP5 ADD MSTORE PUSH1 0x64 DUP4 ADD SWAP1 PUSH2 0x1898 JUMP JUMPDEST DUP4 PUSH1 0x44 DUP4 ADD MSTORE SUB DUP2 DUP4 DUP12 GAS CALL SWAP3 DUP4 ISZERO PUSH2 0x11C3 JUMPI DUP7 SWAP4 PUSH2 0x11A6 JUMPI JUMPDEST POP POP PUSH2 0x10DE SWAP1 PUSH1 0x4 SWAP5 PUSH2 0x1094 PUSH1 0x40 MLOAD DUP1 SWAP3 PUSH2 0x19C9 JUMP JUMPDEST TIMESTAMP DUP5 DUP3 ADD MSTORE DUP9 PUSH32 0xB83D25C6A5D258561330739951487ACB4BD09BA5190B5D32C4F261817D906792 PUSH1 0x40 CALLER SWAP4 LOG3 PUSH1 0x9 PUSH2 0x10D5 PUSH1 0x7 DUP4 ADD SLOAD PUSH1 0x8 DUP5 ADD SLOAD SWAP1 PUSH2 0x1A47 JUMP JUMPDEST SWAP2 ADD SLOAD SWAP1 PUSH2 0x1A47 JUMP JUMPDEST SWAP5 PUSH1 0x40 MLOAD SWAP4 DUP5 DUP1 SWAP3 PUSH4 0x18160DDD PUSH1 0xE0 SHL DUP3 MSTORE GAS STATICCALL SWAP2 DUP3 ISZERO PUSH2 0x119B JUMPI DUP7 SWAP3 PUSH2 0x116C JUMPI JUMPDEST POP PUSH1 0x5 DUP3 MUL SWAP2 DUP1 DUP4 DIV PUSH1 0x5 EQ SWAP1 ISZERO OR ISZERO PUSH2 0x115A JUMPI POP PUSH1 0x64 SWAP1 DIV DUP3 LT ISZERO PUSH2 0x1129 JUMPI JUMPDEST DUP4 PUSH1 0x1 DUP2 SSTORE DUP1 RETURN JUMPDEST PUSH32 0xEE96623B2793754B095184A2D77A7841701E5A5B2686385A774EDDF127222F3F SWAP2 PUSH1 0x40 MLOAD SWAP1 DUP2 MSTORE LOG2 CODESIZE DUP1 DUP1 PUSH2 0x1121 JUMP JUMPDEST PUSH4 0x4E487B71 PUSH1 0xE0 SHL DUP7 MSTORE PUSH1 0x11 PUSH1 0x4 MSTORE DUP6 REVERT JUMPDEST SWAP1 SWAP2 POP DUP3 DUP2 DUP2 RETURNDATASIZE DUP4 GT PUSH2 0x1194 JUMPI JUMPDEST PUSH2 0x1184 DUP2 DUP4 PUSH2 0x17D0 JUMP JUMPDEST DUP2 ADD SUB SLT PUSH2 0x4F3 JUMPI MLOAD SWAP1 CODESIZE PUSH2 0x1100 JUMP JUMPDEST POP RETURNDATASIZE PUSH2 0x117A JUMP JUMPDEST PUSH1 0x40 MLOAD RETURNDATASIZE DUP9 DUP3 RETURNDATACOPY RETURNDATASIZE SWAP1 REVERT JUMPDEST PUSH2 0x11B2 SWAP2 SWAP3 SWAP4 POP PUSH2 0x178A JUMP JUMPDEST PUSH2 0x11BF JUMPI DUP4 SWAP1 DUP8 CODESIZE PUSH2 0x107E JUMP JUMPDEST DUP7 DUP1 REVERT JUMPDEST POP PUSH1 0x40 MLOAD SWAP1 RETURNDATASIZE SWAP1 DUP3 RETURNDATACOPY RETURNDATASIZE SWAP1 REVERT JUMPDEST POP PUSH1 0x40 MLOAD PUSH2 0x11DD DUP2 PUSH2 0x17B4 JUMP JUMPDEST PUSH1 0xB DUP2 MSTORE PUSH11 0x32B0B9363CAFBB37BA32B9 PUSH1 0xA9 SHL DUP5 DUP3 ADD MSTORE PUSH2 0x1005 JUMP JUMPDEST PUSH4 0x4E487B71 PUSH1 0xE0 SHL DUP9 MSTORE PUSH1 0x11 PUSH1 0x4 MSTORE DUP3 DUP9 REVERT JUMPDEST DUP3 PUSH2 0x1226 JUMPI PUSH1 0x8 DUP6 ADD PUSH2 0x121F DUP2 SLOAD PUSH2 0x1A6A JUMP JUMPDEST SWAP1 SSTORE PUSH2 0xFB6 JUMP JUMPDEST PUSH1 0x9 DUP6 ADD PUSH2 0x121F DUP2 SLOAD PUSH2 0x1A6A JUMP JUMPDEST PUSH1 0x40 MLOAD PUSH3 0x461BCD PUSH1 0xE5 SHL DUP2 MSTORE PUSH1 0x4 DUP2 ADD DUP7 SWAP1 MSTORE PUSH1 0x19 DUP2 DUP6 ADD MSTORE PUSH32 0x476F7665726E616E63653A20416C726561647920766F74656400000000000000 PUSH1 0x44 DUP3 ADD MSTORE PUSH1 0x64 SWAP1 REVERT JUMPDEST PUSH1 0x40 MLOAD PUSH3 0x461BCD PUSH1 0xE5 SHL DUP2 MSTORE PUSH1 0x4 DUP2 ADD DUP6 SWAP1 MSTORE PUSH1 0x1E DUP2 DUP5 ADD MSTORE PUSH32 0x476F7665726E616E63653A20566F74696E67206E6F7420737461727465640000 PUSH1 0x44 DUP3 ADD MSTORE PUSH1 0x64 SWAP1 REVERT JUMPDEST POP PUSH1 0x2 SLOAD DUP4 GT ISZERO PUSH2 0xEFC JUMP JUMPDEST POP CALLVALUE PUSH2 0x205 JUMPI DUP1 PUSH1 0x3 NOT CALLDATASIZE ADD SLT PUSH2 0x205 JUMPI PUSH2 0x437 PUSH1 0x40 MLOAD PUSH2 0x12E8 DUP2 PUSH2 0x17B4 JUMP JUMPDEST PUSH1 0x5 DUP2 MSTORE PUSH5 0x312E302E3 PUSH1 0xDC SHL PUSH1 0x20 DUP3 ADD MSTORE PUSH1 0x40 MLOAD SWAP2 DUP3 SWAP2 PUSH1 0x20 DUP4 MSTORE PUSH1 0x20 DUP4 ADD SWAP1 PUSH2 0x1898 JUMP JUMPDEST POP CALLVALUE PUSH2 0x205 JUMPI PUSH1 0x20 CALLDATASIZE PUSH1 0x3 NOT ADD SLT PUSH2 0x205 JUMPI PUSH1 0x60 SWAP1 PUSH1 0x1 PUSH1 0x1 PUSH1 0xA0 SHL SUB PUSH2 0x1333 PUSH2 0x195C JUMP JUMPDEST AND DUP2 MSTORE PUSH1 0x5 PUSH1 0x20 MSTORE PUSH1 0x40 DUP2 KECCAK256 SLOAD SWAP1 PUSH1 0x6 PUSH1 0x20 MSTORE PUSH1 0x40 DUP1 DUP3 KECCAK256 SLOAD SWAP2 PUSH1 0x4 PUSH1 0x20 MSTORE KECCAK256 SLOAD SWAP1 PUSH1 0x40 MLOAD SWAP3 DUP4 MSTORE PUSH1 0x20 DUP4 ADD MSTORE PUSH1 0x40 DUP3 ADD MSTORE RETURN JUMPDEST POP CALLVALUE PUSH2 0x205 JUMPI DUP1 PUSH1 0x3 NOT CALLDATASIZE ADD SLT PUSH2 0x205 JUMPI PUSH1 0x20 PUSH1 0x40 MLOAD PUSH3 0x15180 DUP2 MSTORE RETURN JUMPDEST POP CALLVALUE PUSH2 0x205 JUMPI DUP1 PUSH1 0x3 NOT CALLDATASIZE ADD SLT PUSH2 0x205 JUMPI PUSH2 0x139E PUSH2 0x19EC JUMP JUMPDEST PUSH1 0x1 SLOAD PUSH1 0xFF DUP2 AND ISZERO PUSH2 0x13DE JUMPI PUSH1 0xFF NOT AND PUSH1 0x1 SSTORE PUSH32 0x5DB9EE0A495BF2E6FF9C91A7834C1BA4FDD244A5E8AA4E537BD38AEAE4B073AA PUSH1 0x20 PUSH1 0x40 MLOAD CALLER DUP2 MSTORE LOG1 DUP1 RETURN JUMPDEST PUSH1 0x40 MLOAD PUSH3 0x461BCD PUSH1 0xE5 SHL DUP2 MSTORE PUSH1 0x20 PUSH1 0x4 DUP3 ADD MSTORE PUSH1 0x14 PUSH1 0x24 DUP3 ADD MSTORE PUSH20 0x14185D5CD8589B194E881B9BDD081C185D5CD959 PUSH1 0x62 SHL PUSH1 0x44 DUP3 ADD MSTORE PUSH1 0x64 SWAP1 REVERT JUMPDEST POP CALLVALUE PUSH2 0x205 JUMPI DUP1 PUSH1 0x3 NOT CALLDATASIZE ADD SLT PUSH2 0x205 JUMPI PUSH1 0x40 MLOAD PUSH32 0x0 PUSH1 0x1 PUSH1 0x1 PUSH1 0xA0 SHL SUB AND DUP2 MSTORE PUSH1 0x20 SWAP1 RETURN JUMPDEST POP CALLVALUE PUSH2 0x205 JUMPI PUSH1 0x20 CALLDATASIZE PUSH1 0x3 NOT ADD SLT PUSH2 0x205 JUMPI PUSH1 0x20 SWAP1 PUSH1 0x40 SWAP1 PUSH1 0x1 PUSH1 0x1 PUSH1 0xA0 SHL SUB PUSH2 0x1487 PUSH2 0x195C JUMP JUMPDEST AND DUP2 MSTORE PUSH1 0x5 DUP4 MSTORE KECCAK256 SLOAD PUSH1 0x40 MLOAD SWAP1 DUP2 MSTORE RETURN JUMPDEST POP CALLVALUE PUSH2 0x205 JUMPI PUSH1 0x20 CALLDATASIZE PUSH1 0x3 NOT ADD SLT PUSH2 0x205 JUMPI PUSH1 0x4 CALLDATALOAD SWAP1 DUP2 ISZERO ISZERO DUP1 PUSH2 0x16B2 JUMPI JUMPDEST PUSH2 0x14C0 SWAP1 PUSH2 0x1B13 JUMP JUMPDEST PUSH2 0x14C8 PUSH2 0x1A79 JUMP JUMPDEST PUSH2 0x14D0 PUSH2 0x1ABD JUMP JUMPDEST DUP2 DUP2 MSTORE PUSH1 0x3 PUSH1 0x20 MSTORE PUSH1 0x40 DUP2 KECCAK256 PUSH1 0x6 DUP2 ADD SLOAD TIMESTAMP GT ISZERO PUSH2 0x166D JUMPI PUSH1 0xA DUP2 ADD DUP1 SLOAD PUSH2 0x14FB PUSH1 0xFF DUP3 AND ISZERO PUSH2 0x1BF7 JUMP JUMPDEST PUSH2 0x150B PUSH1 0xFF DUP3 PUSH1 0x8 SHR AND ISZERO PUSH2 0x1BAB JUMP JUMPDEST PUSH2 0x1514 DUP6 PUSH2 0x1C43 JUMP JUMPDEST PUSH1 0x6 DUP2 LT ISZERO PUSH2 0x1659 JUMPI PUSH1 0x2 SUB PUSH2 0x160A JUMPI PUSH1 0xFF NOT AND PUSH1 0x1 OR SWAP1 SSTORE PUSH1 0x4 ADD SLOAD PUSH32 0x0 PUSH1 0x1 PUSH1 0x1 PUSH1 0xA0 SHL SUB SWAP1 DUP2 AND SWAP2 AND DUP2 EXTCODESIZE ISZERO PUSH2 0xEC9 JUMPI DUP3 SWAP2 PUSH1 0xA4 DUP4 SWAP3 PUSH1 0x40 MLOAD SWAP5 DUP6 SWAP4 DUP5 SWAP3 PUSH4 0x17E2F08F PUSH1 0xE2 SHL DUP5 MSTORE PUSH1 0x4 DUP5 ADD MSTORE PUSH1 0x60 PUSH1 0x24 DUP5 ADD MSTORE PUSH1 0xF PUSH1 0x64 DUP5 ADD MSTORE PUSH15 0x1C1C9BDC1BDCD85B17DC185CDCD959 PUSH1 0x8A SHL PUSH1 0x84 DUP5 ADD MSTORE DUP2 PUSH1 0x44 DUP5 ADD MSTORE GAS CALL DUP1 ISZERO PUSH2 0x15FF JUMPI PUSH2 0x15F0 JUMPI JUMPDEST POP SWAP1 PUSH32 0x948F4A9CD986F1118C3FBD459F7A22B23C0693E1CA3EF06A6A8BE5AA7D39CC03 PUSH1 0x20 PUSH1 0x40 MLOAD PUSH1 0x1 DUP2 MSTORE LOG2 PUSH1 0x1 DUP2 SSTORE DUP1 RETURN JUMPDEST PUSH2 0x15F9 SWAP1 PUSH2 0x178A JUMP JUMPDEST CODESIZE PUSH2 0x15BC JUMP JUMPDEST PUSH1 0x40 MLOAD RETURNDATASIZE DUP5 DUP3 RETURNDATACOPY RETURNDATASIZE SWAP1 REVERT JUMPDEST PUSH1 0x40 MLOAD PUSH3 0x461BCD PUSH1 0xE5 SHL DUP2 MSTORE PUSH1 0x20 PUSH1 0x4 DUP3 ADD MSTORE PUSH1 0x21 PUSH1 0x24 DUP3 ADD MSTORE PUSH32 0x476F7665726E616E63653A2050726F706F73616C20646964206E6F7420706173 PUSH1 0x44 DUP3 ADD MSTORE PUSH1 0x73 PUSH1 0xF8 SHL PUSH1 0x64 DUP3 ADD MSTORE PUSH1 0x84 SWAP1 REVERT JUMPDEST PUSH4 0x4E487B71 PUSH1 0xE0 SHL DUP6 MSTORE PUSH1 0x21 PUSH1 0x4 MSTORE PUSH1 0x24 DUP6 REVERT JUMPDEST PUSH1 0x40 MLOAD PUSH3 0x461BCD PUSH1 0xE5 SHL DUP2 MSTORE PUSH1 0x20 PUSH1 0x4 DUP3 ADD MSTORE PUSH1 0x1F PUSH1 0x24 DUP3 ADD MSTORE PUSH32 0x476F7665726E616E63653A20566F74696E67207374696C6C2061637469766500 PUSH1 0x44 DUP3 ADD MSTORE PUSH1 0x64 SWAP1 REVERT JUMPDEST POP PUSH1 0x2 SLOAD DUP3 GT ISZERO PUSH2 0x14B7 JUMP JUMPDEST POP CALLVALUE PUSH2 0x205 JUMPI PUSH1 0x20 CALLDATASIZE PUSH1 0x3 NOT ADD SLT PUSH2 0x205 JUMPI PUSH1 0x40 SWAP1 PUSH1 0x4 CALLDATALOAD DUP2 MSTORE PUSH1 0x3 PUSH1 0x20 MSTORE KECCAK256 DUP1 SLOAD SWAP1 PUSH2 0x437 PUSH2 0x16F0 PUSH1 0x1 DUP4 ADD PUSH2 0x17F2 JUMP JUMPDEST SWAP2 PUSH2 0x16FD PUSH1 0x2 DUP3 ADD PUSH2 0x17F2 JUMP JUMPDEST SWAP4 PUSH2 0x170A PUSH1 0x3 DUP4 ADD PUSH2 0x17F2 JUMP JUMPDEST SWAP2 PUSH1 0x1 DUP1 PUSH1 0xA0 SHL SUB PUSH1 0x4 DUP3 ADD SLOAD AND PUSH1 0x5 DUP3 ADD SLOAD PUSH1 0x6 DUP4 ADD SLOAD PUSH1 0x7 DUP5 ADD SLOAD SWAP2 PUSH1 0x8 DUP6 ADD SLOAD SWAP4 PUSH1 0xA PUSH1 0x9 DUP8 ADD SLOAD SWAP7 ADD SLOAD SWAP8 PUSH1 0x40 MLOAD SWAP12 DUP13 SWAP12 PUSH1 0xFF DUP1 DUP13 PUSH1 0x8 SHR AND SWAP12 AND SWAP10 DUP14 PUSH2 0x18D8 JUMP JUMPDEST SWAP1 PUSH1 0x1 DUP3 DUP2 SHR SWAP3 AND DUP1 ISZERO PUSH2 0x1780 JUMPI JUMPDEST PUSH1 0x20 DUP4 LT EQ PUSH2 0x176A JUMPI JUMP JUMPDEST PUSH4 0x4E487B71 PUSH1 0xE0 SHL PUSH1 0x0 MSTORE PUSH1 0x22 PUSH1 0x4 MSTORE PUSH1 0x24 PUSH1 0x0 REVERT JUMPDEST SWAP2 PUSH1 0x7F AND SWAP2 PUSH2 0x175F JUMP JUMPDEST PUSH8 0xFFFFFFFFFFFFFFFF DUP2 GT PUSH2 0x179E JUMPI PUSH1 0x40 MSTORE JUMP JUMPDEST PUSH4 0x4E487B71 PUSH1 0xE0 SHL PUSH1 0x0 MSTORE PUSH1 0x41 PUSH1 0x4 MSTORE PUSH1 0x24 PUSH1 0x0 REVERT JUMPDEST PUSH1 0x40 DUP2 ADD SWAP1 DUP2 LT PUSH8 0xFFFFFFFFFFFFFFFF DUP3 GT OR PUSH2 0x179E JUMPI PUSH1 0x40 MSTORE JUMP JUMPDEST SWAP1 PUSH1 0x1F DUP1 NOT SWAP2 ADD AND DUP2 ADD SWAP1 DUP2 LT PUSH8 0xFFFFFFFFFFFFFFFF DUP3 GT OR PUSH2 0x179E JUMPI PUSH1 0x40 MSTORE JUMP JUMPDEST SWAP1 PUSH1 0x40 MLOAD SWAP2 DUP3 PUSH1 0x0 DUP3 SLOAD SWAP3 PUSH2 0x1806 DUP5 PUSH2 0x1750 JUMP JUMPDEST SWAP1 DUP2 DUP5 MSTORE PUSH1 0x1 SWAP5 DUP6 DUP2 AND SWAP1 DUP2 PUSH1 0x0 EQ PUSH2 0x1875 JUMPI POP PUSH1 0x1 EQ PUSH2 0x1832 JUMPI JUMPDEST POP POP PUSH2 0x1830 SWAP3 POP SUB DUP4 PUSH2 0x17D0 JUMP JUMPDEST JUMP JUMPDEST SWAP1 SWAP4 SWAP2 POP PUSH1 0x0 MSTORE PUSH1 0x20 SWAP1 DUP2 PUSH1 0x0 KECCAK256 SWAP4 PUSH1 0x0 SWAP2 JUMPDEST DUP2 DUP4 LT PUSH2 0x185D JUMPI POP POP PUSH2 0x1830 SWAP4 POP DUP3 ADD ADD CODESIZE DUP1 PUSH2 0x1822 JUMP JUMPDEST DUP6 SLOAD DUP9 DUP5 ADD DUP6 ADD MSTORE SWAP5 DUP6 ADD SWAP5 DUP8 SWAP5 POP SWAP2 DUP4 ADD SWAP2 PUSH2 0x1845 JUMP JUMPDEST SWAP2 POP POP PUSH2 0x1830 SWAP5 POP PUSH1 0x20 SWAP3 POP PUSH1 0xFF NOT AND DUP3 DUP5 ADD MSTORE ISZERO ISZERO PUSH1 0x5 SHL DUP3 ADD ADD CODESIZE DUP1 PUSH2 0x1822 JUMP JUMPDEST SWAP2 SWAP1 DUP3 MLOAD SWAP3 DUP4 DUP3 MSTORE PUSH1 0x0 JUMPDEST DUP5 DUP2 LT PUSH2 0x18C4 JUMPI POP POP DUP3 PUSH1 0x0 PUSH1 0x20 DUP1 SWAP5 SWAP6 DUP5 ADD ADD MSTORE PUSH1 0x1F DUP1 NOT SWAP2 ADD AND ADD ADD SWAP1 JUMP JUMPDEST PUSH1 0x20 DUP2 DUP4 ADD DUP2 ADD MLOAD DUP5 DUP4 ADD DUP3 ADD MSTORE ADD PUSH2 0x18A3 JUMP JUMPDEST SWAP11 SWAP8 SWAP5 SWAP13 SWAP12 SWAP9 SWAP6 SWAP3 PUSH2 0x1914 SWAP1 PUSH2 0x1906 PUSH2 0x1922 SWAP5 DUP15 PUSH2 0x160 SWAP15 SWAP12 SWAP9 SWAP6 DUP2 MSTORE PUSH2 0x180 SWAP1 DUP2 PUSH1 0x20 DUP3 ADD MSTORE ADD SWAP1 PUSH2 0x1898 JUMP JUMPDEST DUP14 DUP2 SUB PUSH1 0x40 DUP16 ADD MSTORE SWAP1 PUSH2 0x1898 JUMP JUMPDEST SWAP1 DUP12 DUP3 SUB PUSH1 0x60 DUP14 ADD MSTORE PUSH2 0x1898 JUMP JUMPDEST PUSH1 0x1 PUSH1 0x1 PUSH1 0xA0 SHL SUB SWAP1 SWAP12 AND PUSH1 0x80 DUP11 ADD MSTORE PUSH1 0xA0 DUP10 ADD MSTORE PUSH1 0xC0 DUP9 ADD MSTORE PUSH1 0xE0 DUP8 ADD MSTORE PUSH2 0x100 DUP7 ADD MSTORE PUSH2 0x120 DUP6 ADD MSTORE ISZERO ISZERO PUSH2 0x140 DUP5 ADD MSTORE ISZERO ISZERO SWAP2 ADD MSTORE JUMP JUMPDEST PUSH1 0x4 CALLDATALOAD SWAP1 PUSH1 0x1 PUSH1 0x1 PUSH1 0xA0 SHL SUB DUP3 AND DUP3 SUB PUSH2 0x4F3 JUMPI JUMP JUMPDEST DUP2 PUSH1 0x1F DUP3 ADD SLT ISZERO PUSH2 0x4F3 JUMPI DUP1 CALLDATALOAD SWAP1 PUSH8 0xFFFFFFFFFFFFFFFF DUP3 GT PUSH2 0x179E JUMPI PUSH1 0x40 MLOAD SWAP3 PUSH2 0x19A7 PUSH1 0x1F DUP5 ADD PUSH1 0x1F NOT AND PUSH1 0x20 ADD DUP6 PUSH2 0x17D0 JUMP JUMPDEST DUP3 DUP5 MSTORE PUSH1 0x20 DUP4 DUP4 ADD ADD GT PUSH2 0x4F3 JUMPI DUP2 PUSH1 0x0 SWAP3 PUSH1 0x20 DUP1 SWAP4 ADD DUP4 DUP7 ADD CALLDATACOPY DUP4 ADD ADD MSTORE SWAP1 JUMP JUMPDEST SWAP1 PUSH1 0x3 DUP3 LT ISZERO PUSH2 0x19D6 JUMPI MSTORE JUMP JUMPDEST PUSH4 0x4E487B71 PUSH1 0xE0 SHL PUSH1 0x0 MSTORE PUSH1 0x21 PUSH1 0x4 MSTORE PUSH1 0x24 PUSH1 0x0 REVERT JUMPDEST PUSH1 0x1 SLOAD PUSH1 0x8 SHR PUSH1 0x1 PUSH1 0x1 PUSH1 0xA0 SHL SUB AND CALLER SUB PUSH2 0x1A03 JUMPI JUMP JUMPDEST PUSH1 0x64 PUSH1 0x40 MLOAD PUSH3 0x461BCD PUSH1 0xE5 SHL DUP2 MSTORE PUSH1 0x20 PUSH1 0x4 DUP3 ADD MSTORE PUSH1 0x20 PUSH1 0x24 DUP3 ADD MSTORE PUSH32 0x4F776E61626C653A2063616C6C6572206973206E6F7420746865206F776E6572 PUSH1 0x44 DUP3 ADD MSTORE REVERT JUMPDEST SWAP2 SWAP1 DUP3 ADD DUP1 SWAP3 GT PUSH2 0x1A54 JUMPI JUMP JUMPDEST PUSH4 0x4E487B71 PUSH1 0xE0 SHL PUSH1 0x0 MSTORE PUSH1 0x11 PUSH1 0x4 MSTORE PUSH1 0x24 PUSH1 0x0 REVERT JUMPDEST PUSH1 0x0 NOT DUP2 EQ PUSH2 0x1A54 JUMPI PUSH1 0x1 ADD SWAP1 JUMP JUMPDEST PUSH1 0xFF PUSH1 0x1 SLOAD AND PUSH2 0x1A85 JUMPI JUMP JUMPDEST PUSH1 0x40 MLOAD PUSH3 0x461BCD PUSH1 0xE5 SHL DUP2 MSTORE PUSH1 0x20 PUSH1 0x4 DUP3 ADD MSTORE PUSH1 0x10 PUSH1 0x24 DUP3 ADD MSTORE PUSH16 0x14185D5CD8589B194E881C185D5CD959 PUSH1 0x82 SHL PUSH1 0x44 DUP3 ADD MSTORE PUSH1 0x64 SWAP1 REVERT JUMPDEST PUSH1 0x2 PUSH1 0x0 SLOAD EQ PUSH2 0x1ACE JUMPI PUSH1 0x2 PUSH1 0x0 SSTORE JUMP JUMPDEST PUSH1 0x40 MLOAD PUSH3 0x461BCD PUSH1 0xE5 SHL DUP2 MSTORE PUSH1 0x20 PUSH1 0x4 DUP3 ADD MSTORE PUSH1 0x1F PUSH1 0x24 DUP3 ADD MSTORE PUSH32 0x5265656E7472616E637947756172643A207265656E7472616E742063616C6C00 PUSH1 0x44 DUP3 ADD MSTORE PUSH1 0x64 SWAP1 REVERT JUMPDEST ISZERO PUSH2 0x1B1A JUMPI JUMP JUMPDEST PUSH1 0x40 MLOAD PUSH3 0x461BCD PUSH1 0xE5 SHL DUP2 MSTORE PUSH1 0x20 PUSH1 0x4 DUP3 ADD MSTORE PUSH1 0x1F PUSH1 0x24 DUP3 ADD MSTORE PUSH32 0x476F7665726E616E63653A20496E76616C69642070726F706F73616C20494400 PUSH1 0x44 DUP3 ADD MSTORE PUSH1 0x64 SWAP1 REVERT JUMPDEST ISZERO PUSH2 0x1B66 JUMPI JUMP JUMPDEST PUSH1 0x40 MLOAD PUSH3 0x461BCD PUSH1 0xE5 SHL DUP2 MSTORE PUSH1 0x20 PUSH1 0x4 DUP3 ADD MSTORE PUSH1 0x18 PUSH1 0x24 DUP3 ADD MSTORE PUSH32 0x476F7665726E616E63653A20566F74696E6720656E6465640000000000000000 PUSH1 0x44 DUP3 ADD MSTORE PUSH1 0x64 SWAP1 REVERT JUMPDEST ISZERO PUSH2 0x1BB2 JUMPI JUMP JUMPDEST PUSH1 0x40 MLOAD PUSH3 0x461BCD PUSH1 0xE5 SHL DUP2 MSTORE PUSH1 0x20 PUSH1 0x4 DUP3 ADD MSTORE PUSH1 0x1E PUSH1 0x24 DUP3 ADD MSTORE PUSH32 0x476F7665726E616E63653A2050726F706F73616C2063616E63656C6C65640000 PUSH1 0x44 DUP3 ADD MSTORE PUSH1 0x64 SWAP1 REVERT JUMPDEST ISZERO PUSH2 0x1BFE JUMPI JUMP JUMPDEST PUSH1 0x40 MLOAD PUSH3 0x461BCD PUSH1 0xE5 SHL DUP2 MSTORE PUSH1 0x20 PUSH1 0x4 DUP3 ADD MSTORE PUSH1 0x1C PUSH1 0x24 DUP3 ADD MSTORE PUSH32 0x476F7665726E616E63653A20416C726561647920657865637574656400000000 PUSH1 0x44 DUP3 ADD MSTORE PUSH1 0x64 SWAP1 REVERT JUMPDEST PUSH2 0x1C5E SWAP1 DUP1 ISZERO ISZERO DUP1 PUSH2 0x1C61 JUMPI JUMPDEST PUSH2 0x1C59 SWAP1 PUSH2 0x1B13 JUMP JUMPDEST PUSH2 0x1C6D JUMP JUMPDEST SWAP1 JUMP JUMPDEST POP PUSH1 0x2 SLOAD DUP2 GT ISZERO PUSH2 0x1C50 JUMP JUMPDEST PUSH1 0x0 SWAP1 DUP2 MSTORE PUSH1 0x3 PUSH1 0x20 MSTORE PUSH1 0x40 DUP2 KECCAK256 PUSH1 0xA DUP2 ADD SLOAD PUSH1 0xFF DUP2 PUSH1 0x8 SHR AND PUSH2 0x1D9A JUMPI PUSH1 0xFF AND PUSH2 0x1D93 JUMPI PUSH1 0x6 DUP2 ADD SLOAD TIMESTAMP GT ISZERO PUSH2 0x1D8C JUMPI PUSH1 0x7 DUP2 ADD SLOAD SWAP2 PUSH2 0x1CB9 PUSH1 0x8 DUP4 ADD SLOAD SWAP3 PUSH1 0x9 PUSH2 0x10D5 DUP6 DUP8 PUSH2 0x1A47 JUMP JUMPDEST PUSH1 0x40 MLOAD PUSH4 0x18160DDD PUSH1 0xE0 SHL DUP2 MSTORE SWAP1 SWAP2 PUSH1 0x20 DUP3 PUSH1 0x4 DUP2 PUSH32 0x0 PUSH1 0x1 PUSH1 0x1 PUSH1 0xA0 SHL SUB AND GAS STATICCALL SWAP2 DUP3 ISZERO PUSH2 0x11C3 JUMPI DUP2 SWAP3 PUSH2 0x1D59 JUMPI JUMPDEST POP PUSH1 0x5 DUP3 MUL SWAP2 DUP1 DUP4 DIV PUSH1 0x5 EQ SWAP1 ISZERO OR ISZERO PUSH2 0x1D45 JUMPI POP PUSH1 0x64 SWAP1 DIV GT ISZERO SWAP2 DUP3 PUSH2 0x1D3B JUMPI JUMPDEST POP POP ISZERO PUSH2 0x1D36 JUMPI PUSH1 0x2 SWAP1 JUMP JUMPDEST PUSH1 0x3 SWAP1 JUMP JUMPDEST GT SWAP1 POP CODESIZE DUP1 PUSH2 0x1D2A JUMP JUMPDEST PUSH4 0x4E487B71 PUSH1 0xE0 SHL DUP2 MSTORE PUSH1 0x11 PUSH1 0x4 MSTORE PUSH1 0x24 SWAP1 REVERT JUMPDEST SWAP1 SWAP2 POP PUSH1 0x20 DUP2 RETURNDATASIZE DUP3 GT PUSH2 0x1D84 JUMPI JUMPDEST DUP2 PUSH2 0x1D74 PUSH1 0x20 SWAP4 DUP4 PUSH2 0x17D0 JUMP JUMPDEST DUP2 ADD SUB SLT PUSH2 0xECD JUMPI MLOAD SWAP1 CODESIZE PUSH2 0x1D08 JUMP JUMPDEST RETURNDATASIZE SWAP2 POP PUSH2 0x1D67 JUMP JUMPDEST POP POP PUSH1 0x1 SWAP1 JUMP JUMPDEST POP POP PUSH1 0x4 SWAP1 JUMP JUMPDEST POP POP POP PUSH1 0x5 SWAP1 JUMP INVALID LOG2 PUSH5 0x6970667358 0x22 SLT KECCAK256 PUSH22 0xAF191EC883909304A993C33B1E59BB05969C1FA8349A 0xE4 SWAP8 0xA9 0xDC CALLDATACOPY SSTORE DUP13 0xE3 0xE8 PUSH5 0x736F6C6343 STOP ADDMOD SGT STOP CALLER "},"methodIdentifiers":{"MIN_PROPOSAL_THRESHOLD()":"791f5d23","PROPOSAL_COOLDOWN()":"467f67f9","QUORUM_PERCENTAGE()":"ee8a7c15","VOTING_DURATION()":"a438d208","cancelProposal(uint256)":"e0a8f6f5","castVote(uint256,uint8)":"56781388","createProposal(string,string,string)":"583cf379","executeProposal(uint256)":"0d61b519","getProposal(uint256)":"c7f758a8","getProposalCount()":"c08cc02d","getProposalState(uint256)":"9080936f","getUserStats(address)":"4e43603a","getVote(uint256,address)":"bc3f931f","iccToken()":"31de8807","lastProposalTime(address)":"5b7ad578","owner()":"8da5cb5b","pause()":"8456cb59","paused()":"5c975abb","proposals(uint256)":"013cf08b","renounceOwnership()":"715018a6","transferOwnership(address)":"f2fde38b","unpause()":"3f4ba83a","userProposalCount(address)":"211603c6","userVoteCount(address)":"713cdaa8","version()":"54fd4d50"}}}}}