{
  "_format": "hh-sol-artifact-1",
  "contractName": "ICCToken",
  "sourceName": "contracts\\I₵CToken.sol",
  "abi": [
    {
      "inputs": [
        {
          "internalType": "address",
          "name": "_initialOwner",
          "type": "address"
        },
        {
          "internalType": "address",
          "name": "_rewardDistributor",
          "type": "address"
        }
      ],
      "stateMutability": "nonpayable",
      "type": "constructor"
    },
    {
      "anonymous": false,
      "inputs": [
        {
          "indexed": true,
          "internalType": "address",
          "name": "owner",
          "type": "address"
        },
        {
          "indexed": true,
          "internalType": "address",
          "name": "spender",
          "type": "address"
        },
        {
          "indexed": false,
          "internalType": "uint256",
          "name": "value",
          "type": "uint256"
        }
      ],
      "name": "Approval",
      "type": "event"
    },
    {
      "anonymous": false,
      "inputs": [
        {
          "indexed": true,
          "internalType": "address",
          "name": "recipient",
          "type": "address"
        },
        {
          "indexed": false,
          "internalType": "string",
          "name": "action",
          "type": "string"
        },
        {
          "indexed": false,
          "internalType": "uint256",
          "name": "amount",
          "type": "uint256"
        }
      ],
      "name": "CivicRewardMinted",
      "type": "event"
    },
    {
      "anonymous": false,
      "inputs": [
        {
          "indexed": true,
          "internalType": "address",
          "name": "newGovernance",
          "type": "address"
        }
      ],
      "name": "GovernanceContractUpdated",
      "type": "event"
    },
    {
      "anonymous": false,
      "inputs": [
        {
          "indexed": true,
          "internalType": "address",
          "name": "previousOwner",
          "type": "address"
        },
        {
          "indexed": true,
          "internalType": "address",
          "name": "newOwner",
          "type": "address"
        }
      ],
      "name": "OwnershipTransferred",
      "type": "event"
    },
    {
      "anonymous": false,
      "inputs": [
        {
          "indexed": false,
          "internalType": "address",
          "name": "account",
          "type": "address"
        }
      ],
      "name": "Paused",
      "type": "event"
    },
    {
      "anonymous": false,
      "inputs": [
        {
          "indexed": true,
          "internalType": "address",
          "name": "newDistributor",
          "type": "address"
        }
      ],
      "name": "RewardDistributorUpdated",
      "type": "event"
    },
    {
      "anonymous": false,
      "inputs": [
        {
          "indexed": false,
          "internalType": "string",
          "name": "action",
          "type": "string"
        },
        {
          "indexed": false,
          "internalType": "uint256",
          "name": "newRate",
          "type": "uint256"
        }
      ],
      "name": "RewardRateUpdated",
      "type": "event"
    },
    {
      "anonymous": false,
      "inputs": [
        {
          "indexed": true,
          "internalType": "address",
          "name": "from",
          "type": "address"
        },
        {
          "indexed": true,
          "internalType": "address",
          "name": "to",
          "type": "address"
        },
        {
          "indexed": false,
          "internalType": "uint256",
          "name": "value",
          "type": "uint256"
        }
      ],
      "name": "Transfer",
      "type": "event"
    },
    {
      "anonymous": false,
      "inputs": [
        {
          "indexed": false,
          "internalType": "address",
          "name": "account",
          "type": "address"
        }
      ],
      "name": "Unpaused",
      "type": "event"
    },
    {
      "inputs": [],
      "name": "INITIAL_SUPPLY",
      "outputs": [
        {
          "internalType": "uint256",
          "name": "",
          "type": "uint256"
        }
      ],
      "stateMutability": "view",
      "type": "function"
    },
    {
      "inputs": [],
      "name": "MAX_SUPPLY",
      "outputs": [
        {
          "internalType": "uint256",
          "name": "",
          "type": "uint256"
        }
      ],
      "stateMutability": "view",
      "type": "function"
    },
    {
      "inputs": [
        {
          "internalType": "address",
          "name": "owner",
          "type": "address"
        },
        {
          "internalType": "address",
          "name": "spender",
          "type": "address"
        }
      ],
      "name": "allowance",
      "outputs": [
        {
          "internalType": "uint256",
          "name": "",
          "type": "uint256"
        }
      ],
      "stateMutability": "view",
      "type": "function"
    },
    {
      "inputs": [
        {
          "internalType": "address",
          "name": "spender",
          "type": "address"
        },
        {
          "internalType": "uint256",
          "name": "amount",
          "type": "uint256"
        }
      ],
      "name": "approve",
      "outputs": [
        {
          "internalType": "bool",
          "name": "",
          "type": "bool"
        }
      ],
      "stateMutability": "nonpayable",
      "type": "function"
    },
    {
      "inputs": [
        {
          "internalType": "address",
          "name": "account",
          "type": "address"
        }
      ],
      "name": "balanceOf",
      "outputs": [
        {
          "internalType": "uint256",
          "name": "",
          "type": "uint256"
        }
      ],
      "stateMutability": "view",
      "type": "function"
    },
    {
      "inputs": [
        {
          "internalType": "address[]",
          "name": "recipients",
          "type": "address[]"
        },
        {
          "internalType": "string",
          "name": "action",
          "type": "string"
        },
        {
          "internalType": "uint256[]",
          "name": "amounts",
          "type": "uint256[]"
        }
      ],
      "name": "batchMintCivicRewards",
      "outputs": [],
      "stateMutability": "nonpayable",
      "type": "function"
    },
    {
      "inputs": [
        {
          "internalType": "uint256",
          "name": "amount",
          "type": "uint256"
        }
      ],
      "name": "burn",
      "outputs": [],
      "stateMutability": "nonpayable",
      "type": "function"
    },
    {
      "inputs": [
        {
          "internalType": "address",
          "name": "account",
          "type": "address"
        },
        {
          "internalType": "uint256",
          "name": "amount",
          "type": "uint256"
        }
      ],
      "name": "burnFrom",
      "outputs": [],
      "stateMutability": "nonpayable",
      "type": "function"
    },
    {
      "inputs": [],
      "name": "decimals",
      "outputs": [
        {
          "internalType": "uint8",
          "name": "",
          "type": "uint8"
        }
      ],
      "stateMutability": "view",
      "type": "function"
    },
    {
      "inputs": [
        {
          "internalType": "address",
          "name": "spender",
          "type": "address"
        },
        {
          "internalType": "uint256",
          "name": "subtractedValue",
          "type": "uint256"
        }
      ],
      "name": "decreaseAllowance",
      "outputs": [
        {
          "internalType": "bool",
          "name": "",
          "type": "bool"
        }
      ],
      "stateMutability": "nonpayable",
      "type": "function"
    },
    {
      "inputs": [
        {
          "internalType": "address",
          "name": "token",
          "type": "address"
        },
        {
          "internalType": "uint256",
          "name": "amount",
          "type": "uint256"
        }
      ],
      "name": "emergencyTokenRecovery",
      "outputs": [],
      "stateMutability": "nonpayable",
      "type": "function"
    },
    {
      "inputs": [
        {
          "internalType": "string",
          "name": "action",
          "type": "string"
        }
      ],
      "name": "getRewardRate",
      "outputs": [
        {
          "internalType": "uint256",
          "name": "",
          "type": "uint256"
        }
      ],
      "stateMutability": "view",
      "type": "function"
    },
    {
      "inputs": [
        {
          "internalType": "address",
          "name": "user",
          "type": "address"
        }
      ],
      "name": "getUserRewards",
      "outputs": [
        {
          "internalType": "uint256",
          "name": "",
          "type": "uint256"
        }
      ],
      "stateMutability": "view",
      "type": "function"
    },
    {
      "inputs": [],
      "name": "governanceContract",
      "outputs": [
        {
          "internalType": "address",
          "name": "",
          "type": "address"
        }
      ],
      "stateMutability": "view",
      "type": "function"
    },
    {
      "inputs": [
        {
          "internalType": "address",
          "name": "spender",
          "type": "address"
        },
        {
          "internalType": "uint256",
          "name": "addedValue",
          "type": "uint256"
        }
      ],
      "name": "increaseAllowance",
      "outputs": [
        {
          "internalType": "bool",
          "name": "",
          "type": "bool"
        }
      ],
      "stateMutability": "nonpayable",
      "type": "function"
    },
    {
      "inputs": [
        {
          "internalType": "address",
          "name": "",
          "type": "address"
        }
      ],
      "name": "lastRewardTime",
      "outputs": [
        {
          "internalType": "uint256",
          "name": "",
          "type": "uint256"
        }
      ],
      "stateMutability": "view",
      "type": "function"
    },
    {
      "inputs": [
        {
          "internalType": "address",
          "name": "recipient",
          "type": "address"
        },
        {
          "internalType": "string",
          "name": "action",
          "type": "string"
        },
        {
          "internalType": "uint256",
          "name": "amount",
          "type": "uint256"
        }
      ],
      "name": "mintCivicReward",
      "outputs": [],
      "stateMutability": "nonpayable",
      "type": "function"
    },
    {
      "inputs": [],
      "name": "name",
      "outputs": [
        {
          "internalType": "string",
          "name": "",
          "type": "string"
        }
      ],
      "stateMutability": "view",
      "type": "function"
    },
    {
      "inputs": [],
      "name": "owner",
      "outputs": [
        {
          "internalType": "address",
          "name": "",
          "type": "address"
        }
      ],
      "stateMutability": "view",
      "type": "function"
    },
    {
      "inputs": [],
      "name": "pause",
      "outputs": [],
      "stateMutability": "nonpayable",
      "type": "function"
    },
    {
      "inputs": [],
      "name": "paused",
      "outputs": [
        {
          "internalType": "bool",
          "name": "",
          "type": "bool"
        }
      ],
      "stateMutability": "view",
      "type": "function"
    },
    {
      "inputs": [],
      "name": "renounceOwnership",
      "outputs": [],
      "stateMutability": "nonpayable",
      "type": "function"
    },
    {
      "inputs": [],
      "name": "rewardDistributor",
      "outputs": [
        {
          "internalType": "address",
          "name": "",
          "type": "address"
        }
      ],
      "stateMutability": "view",
      "type": "function"
    },
    {
      "inputs": [
        {
          "internalType": "string",
          "name": "",
          "type": "string"
        }
      ],
      "name": "rewardRates",
      "outputs": [
        {
          "internalType": "uint256",
          "name": "",
          "type": "uint256"
        }
      ],
      "stateMutability": "view",
      "type": "function"
    },
    {
      "inputs": [
        {
          "internalType": "address",
          "name": "_governanceContract",
          "type": "address"
        }
      ],
      "name": "setGovernanceContract",
      "outputs": [],
      "stateMutability": "nonpayable",
      "type": "function"
    },
    {
      "inputs": [
        {
          "internalType": "address",
          "name": "_rewardDistributor",
          "type": "address"
        }
      ],
      "name": "setRewardDistributor",
      "outputs": [],
      "stateMutability": "nonpayable",
      "type": "function"
    },
    {
      "inputs": [
        {
          "internalType": "string",
          "name": "action",
          "type": "string"
        },
        {
          "internalType": "uint256",
          "name": "rate",
          "type": "uint256"
        }
      ],
      "name": "setRewardRate",
      "outputs": [],
      "stateMutability": "nonpayable",
      "type": "function"
    },
    {
      "inputs": [],
      "name": "symbol",
      "outputs": [
        {
          "internalType": "string",
          "name": "",
          "type": "string"
        }
      ],
      "stateMutability": "view",
      "type": "function"
    },
    {
      "inputs": [
        {
          "internalType": "address",
          "name": "",
          "type": "address"
        }
      ],
      "name": "totalRewardsEarned",
      "outputs": [
        {
          "internalType": "uint256",
          "name": "",
          "type": "uint256"
        }
      ],
      "stateMutability": "view",
      "type": "function"
    },
    {
      "inputs": [],
      "name": "totalSupply",
      "outputs": [
        {
          "internalType": "uint256",
          "name": "",
          "type": "uint256"
        }
      ],
      "stateMutability": "view",
      "type": "function"
    },
    {
      "inputs": [
        {
          "internalType": "address",
          "name": "to",
          "type": "address"
        },
        {
          "internalType": "uint256",
          "name": "amount",
          "type": "uint256"
        }
      ],
      "name": "transfer",
      "outputs": [
        {
          "internalType": "bool",
          "name": "",
          "type": "bool"
        }
      ],
      "stateMutability": "nonpayable",
      "type": "function"
    },
    {
      "inputs": [
        {
          "internalType": "address",
          "name": "from",
          "type": "address"
        },
        {
          "internalType": "address",
          "name": "to",
          "type": "address"
        },
        {
          "internalType": "uint256",
          "name": "amount",
          "type": "uint256"
        }
      ],
      "name": "transferFrom",
      "outputs": [
        {
          "internalType": "bool",
          "name": "",
          "type": "bool"
        }
      ],
      "stateMutability": "nonpayable",
      "type": "function"
    },
    {
      "inputs": [
        {
          "internalType": "address",
          "name": "newOwner",
          "type": "address"
        }
      ],
      "name": "transferOwnership",
      "outputs": [],
      "stateMutability": "nonpayable",
      "type": "function"
    },
    {
      "inputs": [],
      "name": "unpause",
      "outputs": [],
      "stateMutability": "nonpayable",
      "type": "function"
    },
    {
      "inputs": [],
      "name": "version",
      "outputs": [
        {
          "internalType": "string",
          "name": "",
          "type": "string"
        }
      ],
      "stateMutability": "pure",
      "type": "function"
    }
  ],
  "bytecode": "0x6080346200058c57601f19906200225390601f906001600160401b03388490038381018616830190828211848310176200049057808491604097889485528339810103126200058c576200005382620005b1565b94620000636020809401620005b1565b906200006e62000591565b92601584527f496e66696e69746120436974792043726564697473000000000000000000000085850152620000a262000591565b936003908186526249434360e81b878701528051838111620004905782546001928382811c9216801562000581575b8a8310146200056b57818b84931162000515575b5089908b8311600114620004b257600092620004a6575b505060001982851b1c191690821b1782555b8551928311620004905760049586548281811c9116801562000485575b89821014620004705789811162000425575b508790898511600114620003bc5784955090849291600095620003b0575b50501b92600019911b1c19161782555b60ff19600554166005556200018033620005c6565b6200018b86620005c6565b60018060a01b03809116958660018060a01b031960075416176007556802b5e3af16b18800006031875170383937b837b9b0b62fb1b932b0ba34b7b760791b8152600860118201522055678ac7230489e8000060298751681d9bdd1957d8d85cdd60ba1b815260086009820152205568056bc75e2d63100000602f87516e1c1c9bdc1bdcd85b17dc185cdcd959608a1b81526008600f820152205567d02ab486cedc0000602b87516a32b0b9363cafbb37ba32b960a91b81526008600b820152205568015af1d78b58c40000603487517f636f6d6d756e6974795f656e676167656d656e7400000000000000000000000081526008601482015220551692831562000371575060ff600554166200033d5760025469d3c21bcecceda10000009182820180921162000328575060025560008381528083528481208054830190558451918252917fddf252ad1be2c89b69c2b068fc378daa952ba7f163c4a11628f55a4df523b3ef91a351907f15057bbec20fe352ac8931e529ade6a9ce138c954ffc87d6aa3423dd066c4acd600080a2611c309081620006238239f35b601190634e487b7160e01b6000525260246000fd5b60649184519162461bcd60e51b8352820152601060248201526f14185d5cd8589b194e881c185d5cd95960821b6044820152fd5b60649285519262461bcd60e51b845283015260248201527f45524332303a206d696e7420746f20746865207a65726f2061646472657373006044820152fd5b0151935038806200015b565b9291948416928760005284896000209460005b8b898383106200040d5750505010620003f2575b50505050811b0182556200016b565b01519060f884600019921b161c1916905538808080620003e3565b868601518955909701969485019488935001620003cf565b87600052886000208a80870160051c8201928b881062000466575b0160051c019083905b828110620004595750506200013d565b6000815501839062000449565b9250819262000440565b602288634e487b7160e01b6000525260246000fd5b90607f16906200012b565b634e487b7160e01b600052604160045260246000fd5b015190503880620000fc565b908785941691866000528b6000209260005b8d828210620004fe5750508411620004e5575b505050811b0182556200010e565b015160001983871b60f8161c19169055388080620004d7565b8385015186558897909501949384019301620004c4565b90915084600052896000208b80850160051c8201928c861062000561575b918691869594930160051c01915b82811062000551575050620000e5565b6000815585945086910162000541565b9250819262000533565b634e487b7160e01b600052602260045260246000fd5b91607f1691620000d1565b600080fd5b60408051919082016001600160401b038111838210176200049057604052565b51906001600160a01b03821682036200058c57565b60058054610100600160a81b03198116600884811b610100600160a81b0316919091179092556001600160a01b0392831692911c167f8be0079c531659141344cd1fd0a4f28419497f9722a3daafe3b4186f6b6457e0600080a356fe6080604081815260048036101561001557600080fd5b600092833560e01c90816306fdde031461138957508063078b0fb71461069e578063095ea7b31461135f5780631129753f146112a357806318160ddd1461128457806323b872dd146112475780632cae1939146111525780632ff2e9dc1461112d578063313ce5671461111157806332cb6b0c146110eb578063395093511461109b5780633b5d441e146110635780633f4ba83a14610fce57806342966c6814610fb057806354fd4d5014610f445780635c975abb14610f205780635f8bc23c14610cd15780636b6924171461071f57806370a0823114610c9a578063715018a614610c3957806379cc679014610c065780638456cb5914610bab5780638da5cb5b14610b7e57806395d89b4114610a63578063a1809b95146109a5578063a457c2d714610901578063a9059cbb146108d0578063acc2166a146108a7578063b172b2221461087e578063b49b0cb31461077f578063bd46cd181461071f578063dd62ed3e146106d6578063e4f24cb01461069e578063e8ec85471461027f5763f2fde38b146101a457600080fd5b3461027b57602036600319011261027b576101bd6114c5565b6101c561159d565b6001600160a01b0381811693909290841561022957505060058054610100600160a81b03198116600893841b610100600160a81b031617909155901c167f8be0079c531659141344cd1fd0a4f28419497f9722a3daafe3b4186f6b6457e08380a380f35b906020608492519162461bcd60e51b8352820152602660248201527f4f776e61626c653a206e6577206f776e657220697320746865207a65726f206160448201526564647265737360d01b6064820152fd5b8280fd5b5082903461069a57606036600319011261069a5780359167ffffffffffffffff9182841161069a573660238501121561069a5783810135946102c086611585565b946102cd825196876114f6565b8686526020908187016024809960051b83010191368311610696578901905b8282106106775750505086358581116106735761030c903690850161152e565b92604435958611610673573660238701121561067357858101359561033087611585565b9661033d855198896114f6565b808852898489019160051b8301019136831161066f578a859101915b83831061065f5750506006546001600160a01b0392508216331490508015610652575b801561063d575b61038c90611a3a565b610394611ad2565b87518751036105fc5760648851116105bb578590865b89518110156104d657816103be828c611bd0565b51166103ca828b611bd0565b51156104b0576103da828b611bd0565b51905b801515806104a7575b80610475575b610401575b50506103fc90611bc1565b6103aa565b7f11fab1c2b2b1e06f3d509ba355c10f99492c59c38b24af8fa8ad01846a8eb746610431836103fc9594976115f8565b95828c5260098952428a8d2055600a8952898c206104508282546115f8565b9055895180918b82526104668d8d8401906114a0565b908b8301520390a2908c6103f1565b50808a5260098752878a2054610e108101809111610495574210156103ec565b634e487b7160e01b8b52601187528d8bfd5b508115156103e6565b86518681816104c58c8381519384920161147d565b8101600881520301902054906103dd565b87898b89888a87896105006a084595161401484a0000006104f9836002546115f8565b1115611a86565b80610509578780f35b610517909795969730611b16565b845b86518110156105a8578082610531610564938a611bd0565b511661053d828b611bd0565b51156105835761054d828b611bd0565b515b8115158061057a575b610569575b5050611bc1565b610519565b610573913061161b565b898061055d565b50801515610558565b84518681816105988b8381519384920161147d565b810160088152030190205461054f565b5050505050915050818080808080808780f35b5060198860649385519362461bcd60e51b85528401528201527f494343546f6b656e3a20426174636820746f6f206c61726765000000000000006044820152fd5b50601f8860649385519362461bcd60e51b85528401528201527f494343546f6b656e3a204172726179206c656e677468206d69736d61746368006044820152fd5b5061038c8160055460081c1633149050610383565b508060075416331461037c565b8235815291810191859101610359565b8780fd5b8480fd5b81356001600160a01b038116810361066f5781529083019083016102ec565b8680fd5b5080fd5b50503461069a57602036600319011261069a5760209181906001600160a01b036106c66114c5565b168152600a845220549051908152f35b50503461069a578060031936011261069a57806020926106f46114c5565b6106fc6114e0565b6001600160a01b0391821683526001865283832091168252845220549051908152f35b50913461077c57602036600319011261077c5782359067ffffffffffffffff821161077c57506020610758819461076a9336910161152e565b8184519382858094519384920161147d565b81016008815203019020549051908152f35b80fd5b50903461027b578060031936011261027b576107996114c5565b916107a261159d565b6001600160a01b039283169230841461082f5790604460209260055460081c1691868551968794859363a9059cbb60e01b855284015260243560248401525af190811561082657506107f2575080f35b6020813d821161081e575b8161080a602093836114f6565b8101031261069a57518015150361077c5780f35b3d91506107fd565b513d84823e3d90fd5b506020608492519162461bcd60e51b8352820152602360248201527f494343546f6b656e3a2043616e6e6f74207265636f766572206f776e20746f6b604482015262656e7360e81b6064820152fd5b50503461069a578160031936011261069a5760065490516001600160a01b039091168152602090f35b50503461069a578160031936011261069a5760075490516001600160a01b039091168152602090f35b50503461069a578060031936011261069a576020906108fa6108f06114c5565b602435903361161b565b5160018152f35b50823461077c578260031936011261077c5761091b6114c5565b918360243592338152600160205281812060018060a01b0386168252602052205490828210610954576020856108fa8585038733611791565b608490602086519162461bcd60e51b8352820152602560248201527f45524332303a2064656372656173656420616c6c6f77616e63652062656c6f77604482015264207a65726f60d81b6064820152fd5b503461027b57602036600319011261027b576109bf6114c5565b6109c761159d565b6001600160a01b0316918215610a12575050600780546001600160a01b031916821790557f15057bbec20fe352ac8931e529ade6a9ce138c954ffc87d6aa3423dd066c4acd8280a280f35b906020608492519162461bcd60e51b8352820152602560248201527f494343546f6b656e3a20496e76616c6964206469737472696275746f72206164604482015264647265737360d81b6064820152fd5b50913461077c578060031936011261077c5781519181845492600184811c91818616958615610b74575b6020968785108114610b61579087899a92868b999a9b529182600014610b37575050600114610adc575b8588610ad889610ac9848a03856114f6565b519282849384528301906114a0565b0390f35b815286935091907f8a35acfbc15ff81a39ae7d344fd709f28e8600b4aa8c65c6b64bfe7fe36bd19b5b828410610b1f5750505082010181610ac9610ad838610ab7565b8054848a018601528895508794909301928101610b05565b60ff19168882015294151560051b87019094019450859350610ac99250610ad89150389050610ab7565b634e487b7160e01b835260228a52602483fd5b92607f1692610a8d565b50503461069a578160031936011261069a57600554905160089190911c6001600160a01b03168152602090f35b50503461069a578160031936011261069a5760207f62e78cea01bee320cd4e420270b5ea74000d11b0c9f74754ebdbfc544b05a25891610be961159d565b610bf1611ad2565b600160ff19600554161760055551338152a180f35b50503461069a5736600319011261077c57610c36610c226114c5565b60243590610c31823383611893565b61192b565b80f35b833461077c578060031936011261077c57610c5261159d565b60058054610100600160a81b03198116909155819060081c6001600160a01b03167f8be0079c531659141344cd1fd0a4f28419497f9722a3daafe3b4186f6b6457e08280a380f35b50503461069a57602036600319011261069a5760209181906001600160a01b03610cc26114c5565b16815280845220549051908152f35b5082903461069a57606036600319011261069a57610ced6114c5565b9260243567ffffffffffffffff8111610f1c57610d0d903690840161152e565b906044359260018060a01b03806006541633148015610f0f575b8015610efa575b610d3790611a3a565b610d3f611ad2565b610d5a6a084595161401484a0000006104f9876002546115f8565b8616938415610eb7578015610e92575b8015610e4f578486526020916009835283872054610e108101809111610e3c574210610dfb5750610dbe817f11fab1c2b2b1e06f3d509ba355c10f99492c59c38b24af8fa8ad01846a8eb746969798611b16565b858752600982524283882055600a8252828720610ddc8282546115f8565b9055610df183519484869586528501906114a0565b918301520390a280f35b606490838086519262461bcd60e51b845283015260248201527f494343546f6b656e3a2052657761726420636f6f6c646f776e206163746976656044820152fd5b634e487b7160e01b885260118252602488fd5b506020606492519162461bcd60e51b8352820152601f60248201527f494343546f6b656e3a20496e76616c69642072657761726420616d6f756e74006044820152fd5b5081516020818551610ea78183858a0161147d565b8101600881520301902054610d6a565b506020606492519162461bcd60e51b8352820152601b60248201527f494343546f6b656e3a20496e76616c696420726563697069656e7400000000006044820152fd5b50610d378160055460081c1633149050610d2e565b5080600754163314610d27565b8380fd5b50503461069a578160031936011261069a5760209060ff6005541690519015158152f35b5091903461069a578160031936011261069a578051918183019083821067ffffffffffffffff831117610f9d5750610ad89350815260058252640312e302e360dc1b6020830152519182916020835260208301906114a0565b634e487b7160e01b815260418552602490fd5b83823461069a57602036600319011261069a57610c3690353361192b565b503461027b578260031936011261027b57610fe761159d565b6005549060ff821615611029575060ff1916600555513381527f5db9ee0a495bf2e6ff9c91a7834c1ba4fdd244a5e8aa4e537bd38aeae4b073aa90602090a180f35b606490602084519162461bcd60e51b8352820152601460248201527314185d5cd8589b194e881b9bdd081c185d5cd95960621b6044820152fd5b50503461069a57602036600319011261069a5760209181906001600160a01b0361108b6114c5565b1681526009845220549051908152f35b50503461069a578060031936011261069a576108fa6020926110e46110be6114c5565b338352600186528483206001600160a01b038216845286529184902054602435906115f8565b9033611791565b50503461069a578160031936011261069a57602090516a084595161401484a0000008152f35b50503461069a578160031936011261069a576020905160128152f35b50503461069a578160031936011261069a576020905169d3c21bcecceda10000008152f35b5082903461069a578260031936011261069a57803567ffffffffffffffff811161027b57611183903690830161152e565b906024359061119061159d565b683635c9adc5dea000008211611204575092837fbb9d066fcebd3792263684403a32b849e960a1127945fb842f4e82fe891b3a9b9394825160208186516111da8183858b0161147d565b81016008815203019020556111f882519383859485528401906114a0565b9060208301520390a180f35b606490602086519162461bcd60e51b8352820152601760248201527f494343546f6b656e3a205261746520746f6f20686967680000000000000000006044820152fd5b50503461069a57606036600319011261069a576020906108fa6112686114c5565b6112706114e0565b6044359161127f833383611893565b61161b565b50503461069a578160031936011261069a576020906002549051908152f35b503461027b57602036600319011261027b576112bd6114c5565b6112c561159d565b6001600160a01b0316918215611310575050600680546001600160a01b031916821790557fe3cf2b71b55b62fc1a6c7b2f6ff944c1b70048908cff22f2e08d1144e7ca7edb8280a280f35b906020608492519162461bcd60e51b83528201526024808201527f494343546f6b656e3a20496e76616c696420676f7665726e616e6365206164646044820152637265737360e01b6064820152fd5b50503461069a578060031936011261069a576020906108fa61137f6114c5565b6024359033611791565b905083833461069a578160031936011261069a578160035492600184811c91818616958615611473575b6020968785108114610b61578899509688969785829a52918260001461144c5750506001146113f0575b505050610ad89291610ac99103856114f6565b9190869350600383527fc2575a0e9e593c00f959f8c92f12db2869c3395a3b0502d05e2516446f71f85b5b8284106114345750505082010181610ac9610ad86113dd565b8054848a01860152889550879490930192810161141b565b60ff19168782015293151560051b86019093019350849250610ac99150610ad890506113dd565b92607f16926113b3565b60005b8381106114905750506000910152565b8181015183820152602001611480565b906020916114b98151809281855285808601910161147d565b601f01601f1916010190565b600435906001600160a01b03821682036114db57565b600080fd5b602435906001600160a01b03821682036114db57565b90601f8019910116810190811067ffffffffffffffff82111761151857604052565b634e487b7160e01b600052604160045260246000fd5b81601f820112156114db5780359067ffffffffffffffff82116115185760405192611563601f8401601f1916602001856114f6565b828452602083830101116114db57816000926020809301838601378301015290565b67ffffffffffffffff81116115185760051b60200190565b60055460081c6001600160a01b031633036115b457565b606460405162461bcd60e51b815260206004820152602060248201527f4f776e61626c653a2063616c6c6572206973206e6f7420746865206f776e65726044820152fd5b9190820180921161160557565b634e487b7160e01b600052601160045260246000fd5b6001600160a01b0390811691821561173e57169182156116ed5761163d611ad2565b60008281528060205260408120549180831061169957604082827fddf252ad1be2c89b69c2b068fc378daa952ba7f163c4a11628f55a4df523b3ef958760209652828652038282205586815220818154019055604051908152a3565b60405162461bcd60e51b815260206004820152602660248201527f45524332303a207472616e7366657220616d6f756e7420657863656564732062604482015265616c616e636560d01b6064820152608490fd5b60405162461bcd60e51b815260206004820152602360248201527f45524332303a207472616e7366657220746f20746865207a65726f206164647260448201526265737360e81b6064820152608490fd5b60405162461bcd60e51b815260206004820152602560248201527f45524332303a207472616e736665722066726f6d20746865207a65726f206164604482015264647265737360d81b6064820152608490fd5b6001600160a01b0390811691821561184257169182156117f25760207f8c5be1e5ebec7d5bd14f71427d1e84f3dd0314c0f7b2291e5b200ac8c7c3b925918360005260018252604060002085600052825280604060002055604051908152a3565b60405162461bcd60e51b815260206004820152602260248201527f45524332303a20617070726f766520746f20746865207a65726f206164647265604482015261737360f01b6064820152608490fd5b60405162461bcd60e51b8152602060048201526024808201527f45524332303a20617070726f76652066726f6d20746865207a65726f206164646044820152637265737360e01b6064820152608490fd5b9060018060a01b03808316600052600160205260406000209082166000526020526040600020549260001984036118cb575b50505050565b8084106118e6576118dd930391611791565b388080806118c5565b60405162461bcd60e51b815260206004820152601d60248201527f45524332303a20696e73756666696369656e7420616c6c6f77616e63650000006044820152606490fd5b6001600160a01b031680156119eb57611942611ad2565b60009181835282602052604083205481811061199b57817fddf252ad1be2c89b69c2b068fc378daa952ba7f163c4a11628f55a4df523b3ef926020928587528684520360408620558060025403600255604051908152a3565b60405162461bcd60e51b815260206004820152602260248201527f45524332303a206275726e20616d6f756e7420657863656564732062616c616e604482015261636560f01b6064820152608490fd5b60405162461bcd60e51b815260206004820152602160248201527f45524332303a206275726e2066726f6d20746865207a65726f206164647265736044820152607360f81b6064820152608490fd5b15611a4157565b60405162461bcd60e51b815260206004820152601d60248201527f494343546f6b656e3a20556e617574686f72697a6564206d696e7465720000006044820152606490fd5b15611a8d57565b60405162461bcd60e51b815260206004820152601c60248201527f494343546f6b656e3a2045786365656473206d617820737570706c79000000006044820152606490fd5b60ff60055416611ade57565b60405162461bcd60e51b815260206004820152601060248201526f14185d5cd8589b194e881c185d5cd95960821b6044820152606490fd5b6001600160a01b0316908115611b7c577fddf252ad1be2c89b69c2b068fc378daa952ba7f163c4a11628f55a4df523b3ef6020600092611b54611ad2565b611b60816002546115f8565b60025584845283825260408420818154019055604051908152a3565b60405162461bcd60e51b815260206004820152601f60248201527f45524332303a206d696e7420746f20746865207a65726f2061646472657373006044820152606490fd5b60001981146116055760010190565b8051821015611be45760209160051b010190565b634e487b7160e01b600052603260045260246000fdfea2646970667358221220ab562cb16f75e362f7bcafdb25b97ae60316689920ce54bc4ead984a119f4fb764736f6c63430008130033",
  "linkReferences": {},
  "deployedLinkReferences": {}
}