{
  "_format": "hh-sol-artifact-1",
  "contractName": "ProposalGovernance",
  "sourceName": "contracts/ProposalGovernance.sol",
  "abi": [
    {
      "inputs": [
        {
          "internalType": "address",
          "name": "_iccToken",
          "type": "address"
        },
        {
          "internalType": "address",
          "name": "_initialOwner",
          "type": "address"
        }
      ],
      "stateMutability": "nonpayable",
      "type": "constructor"
    },
    {
      "anonymous": false,
      "inputs": [
        {
          "indexed": true,
          "internalType": "address",
          "name": "previousOwner",
          "type": "address"
        },
        {
          "indexed": true,
          "internalType": "address",
          "name": "newOwner",
          "type": "address"
        }
      ],
      "name": "OwnershipTransferred",
      "type": "event"
    },
    {
      "anonymous": false,
      "inputs": [
        {
          "indexed": false,
          "internalType": "address",
          "name": "account",
          "type": "address"
        }
      ],
      "name": "Paused",
      "type": "event"
    },
    {
      "anonymous": false,
      "inputs": [
        {
          "indexed": true,
          "internalType": "uint256",
          "name": "proposalId",
          "type": "uint256"
        },
        {
          "indexed": true,
          "internalType": "address",
          "name": "canceller",
          "type": "address"
        }
      ],
      "name": "ProposalCancelled",
      "type": "event"
    },
    {
      "anonymous": false,
      "inputs": [
        {
          "indexed": true,
          "internalType": "uint256",
          "name": "proposalId",
          "type": "uint256"
        },
        {
          "indexed": true,
          "internalType": "address",
          "name": "proposer",
          "type": "address"
        },
        {
          "indexed": false,
          "internalType": "string",
          "name": "title",
          "type": "string"
        },
        {
          "indexed": false,
          "internalType": "string",
          "name": "category",
          "type": "string"
        },
        {
          "indexed": false,
          "internalType": "uint256",
          "name": "startTime",
          "type": "uint256"
        },
        {
          "indexed": false,
          "internalType": "uint256",
          "name": "endTime",
          "type": "uint256"
        }
      ],
      "name": "ProposalCreated",
      "type": "event"
    },
    {
      "anonymous": false,
      "inputs": [
        {
          "indexed": true,
          "internalType": "uint256",
          "name": "proposalId",
          "type": "uint256"
        },
        {
          "indexed": false,
          "internalType": "bool",
          "name": "success",
          "type": "bool"
        }
      ],
      "name": "ProposalExecuted",
      "type": "event"
    },
    {
      "anonymous": false,
      "inputs": [
        {
          "indexed": true,
          "internalType": "uint256",
          "name": "proposalId",
          "type": "uint256"
        },
        {
          "indexed": false,
          "internalType": "uint256",
          "name": "totalVotes",
          "type": "uint256"
        }
      ],
      "name": "QuorumReached",
      "type": "event"
    },
    {
      "anonymous": false,
      "inputs": [
        {
          "indexed": false,
          "internalType": "address",
          "name": "account",
          "type": "address"
        }
      ],
      "name": "Unpaused",
      "type": "event"
    },
    {
      "anonymous": false,
      "inputs": [
        {
          "indexed": true,
          "internalType": "uint256",
          "name": "proposalId",
          "type": "uint256"
        },
        {
          "indexed": true,
          "internalType": "address",
          "name": "voter",
          "type": "address"
        },
        {
          "indexed": false,
          "internalType": "enum ProposalGovernance.VoteType",
          "name": "voteType",
          "type": "uint8"
        },
        {
          "indexed": false,
          "internalType": "uint256",
          "name": "timestamp",
          "type": "uint256"
        }
      ],
      "name": "VoteCast",
      "type": "event"
    },
    {
      "inputs": [],
      "name": "MIN_PROPOSAL_THRESHOLD",
      "outputs": [
        {
          "internalType": "uint256",
          "name": "",
          "type": "uint256"
        }
      ],
      "stateMutability": "view",
      "type": "function"
    },
    {
      "inputs": [],
      "name": "PROPOSAL_COOLDOWN",
      "outputs": [
        {
          "internalType": "uint256",
          "name": "",
          "type": "uint256"
        }
      ],
      "stateMutability": "view",
      "type": "function"
    },
    {
      "inputs": [],
      "name": "QUORUM_PERCENTAGE",
      "outputs": [
        {
          "internalType": "uint256",
          "name": "",
          "type": "uint256"
        }
      ],
      "stateMutability": "view",
      "type": "function"
    },
    {
      "inputs": [],
      "name": "VOTING_DURATION",
      "outputs": [
        {
          "internalType": "uint256",
          "name": "",
          "type": "uint256"
        }
      ],
      "stateMutability": "view",
      "type": "function"
    },
    {
      "inputs": [
        {
          "internalType": "uint256",
          "name": "proposalId",
          "type": "uint256"
        }
      ],
      "name": "cancelProposal",
      "outputs": [],
      "stateMutability": "nonpayable",
      "type": "function"
    },
    {
      "inputs": [
        {
          "internalType": "uint256",
          "name": "proposalId",
          "type": "uint256"
        },
        {
          "internalType": "enum ProposalGovernance.VoteType",
          "name": "voteType",
          "type": "uint8"
        }
      ],
      "name": "castVote",
      "outputs": [],
      "stateMutability": "nonpayable",
      "type": "function"
    },
    {
      "inputs": [
        {
          "internalType": "string",
          "name": "title",
          "type": "string"
        },
        {
          "internalType": "string",
          "name": "description",
          "type": "string"
        },
        {
          "internalType": "string",
          "name": "category",
          "type": "string"
        }
      ],
      "name": "createProposal",
      "outputs": [
        {
          "internalType": "uint256",
          "name": "",
          "type": "uint256"
        }
      ],
      "stateMutability": "nonpayable",
      "type": "function"
    },
    {
      "inputs": [
        {
          "internalType": "uint256",
          "name": "proposalId",
          "type": "uint256"
        }
      ],
      "name": "executeProposal",
      "outputs": [],
      "stateMutability": "nonpayable",
      "type": "function"
    },
    {
      "inputs": [
        {
          "internalType": "uint256",
          "name": "proposalId",
          "type": "uint256"
        }
      ],
      "name": "getProposal",
      "outputs": [
        {
          "internalType": "uint256",
          "name": "id",
          "type": "uint256"
        },
        {
          "internalType": "string",
          "name": "title",
          "type": "string"
        },
        {
          "internalType": "string",
          "name": "description",
          "type": "string"
        },
        {
          "internalType": "string",
          "name": "category",
          "type": "string"
        },
        {
          "internalType": "address",
          "name": "proposer",
          "type": "address"
        },
        {
          "internalType": "uint256",
          "name": "startTime",
          "type": "uint256"
        },
        {
          "internalType": "uint256",
          "name": "endTime",
          "type": "uint256"
        },
        {
          "internalType": "uint256",
          "name": "forVotes",
          "type": "uint256"
        },
        {
          "internalType": "uint256",
          "name": "againstVotes",
          "type": "uint256"
        },
        {
          "internalType": "uint256",
          "name": "abstainVotes",
          "type": "uint256"
        },
        {
          "internalType": "bool",
          "name": "executed",
          "type": "bool"
        },
        {
          "internalType": "bool",
          "name": "cancelled",
          "type": "bool"
        }
      ],
      "stateMutability": "view",
      "type": "function"
    },
    {
      "inputs": [],
      "name": "getProposalCount",
      "outputs": [
        {
          "internalType": "uint256",
          "name": "",
          "type": "uint256"
        }
      ],
      "stateMutability": "view",
      "type": "function"
    },
    {
      "inputs": [
        {
          "internalType": "uint256",
          "name": "proposalId",
          "type": "uint256"
        }
      ],
      "name": "getProposalState",
      "outputs": [
        {
          "internalType": "enum ProposalGovernance.ProposalState",
          "name": "",
          "type": "uint8"
        }
      ],
      "stateMutability": "view",
      "type": "function"
    },
    {
      "inputs": [
        {
          "internalType": "address",
          "name": "user",
          "type": "address"
        }
      ],
      "name": "getUserStats",
      "outputs": [
        {
          "internalType": "uint256",
          "name": "proposalCount",
          "type": "uint256"
        },
        {
          "internalType": "uint256",
          "name": "voteCount",
          "type": "uint256"
        },
        {
          "internalType": "uint256",
          "name": "lastProposal",
          "type": "uint256"
        }
      ],
      "stateMutability": "view",
      "type": "function"
    },
    {
      "inputs": [
        {
          "internalType": "uint256",
          "name": "proposalId",
          "type": "uint256"
        },
        {
          "internalType": "address",
          "name": "voter",
          "type": "address"
        }
      ],
      "name": "getVote",
      "outputs": [
        {
          "internalType": "bool",
          "name": "hasVoted",
          "type": "bool"
        },
        {
          "internalType": "enum ProposalGovernance.VoteType",
          "name": "voteType",
          "type": "uint8"
        }
      ],
      "stateMutability": "view",
      "type": "function"
    },
    {
      "inputs": [],
      "name": "iccToken",
      "outputs": [
        {
          "internalType": "contract ICCToken",
          "name": "",
          "type": "address"
        }
      ],
      "stateMutability": "view",
      "type": "function"
    },
    {
      "inputs": [
        {
          "internalType": "address",
          "name": "",
          "type": "address"
        }
      ],
      "name": "lastProposalTime",
      "outputs": [
        {
          "internalType": "uint256",
          "name": "",
          "type": "uint256"
        }
      ],
      "stateMutability": "view",
      "type": "function"
    },
    {
      "inputs": [],
      "name": "owner",
      "outputs": [
        {
          "internalType": "address",
          "name": "",
          "type": "address"
        }
      ],
      "stateMutability": "view",
      "type": "function"
    },
    {
      "inputs": [],
      "name": "pause",
      "outputs": [],
      "stateMutability": "nonpayable",
      "type": "function"
    },
    {
      "inputs": [],
      "name": "paused",
      "outputs": [
        {
          "internalType": "bool",
          "name": "",
          "type": "bool"
        }
      ],
      "stateMutability": "view",
      "type": "function"
    },
    {
      "inputs": [
        {
          "internalType": "uint256",
          "name": "",
          "type": "uint256"
        }
      ],
      "name": "proposals",
      "outputs": [
        {
          "internalType": "uint256",
          "name": "id",
          "type": "uint256"
        },
        {
          "internalType": "string",
          "name": "title",
          "type": "string"
        },
        {
          "internalType": "string",
          "name": "description",
          "type": "string"
        },
        {
          "internalType": "string",
          "name": "category",
          "type": "string"
        },
        {
          "internalType": "address",
          "name": "proposer",
          "type": "address"
        },
        {
          "internalType": "uint256",
          "name": "startTime",
          "type": "uint256"
        },
        {
          "internalType": "uint256",
          "name": "endTime",
          "type": "uint256"
        },
        {
          "internalType": "uint256",
          "name": "forVotes",
          "type": "uint256"
        },
        {
          "internalType": "uint256",
          "name": "againstVotes",
          "type": "uint256"
        },
        {
          "internalType": "uint256",
          "name": "abstainVotes",
          "type": "uint256"
        },
        {
          "internalType": "bool",
          "name": "executed",
          "type": "bool"
        },
        {
          "internalType": "bool",
          "name": "cancelled",
          "type": "bool"
        }
      ],
      "stateMutability": "view",
      "type": "function"
    },
    {
      "inputs": [],
      "name": "renounceOwnership",
      "outputs": [],
      "stateMutability": "nonpayable",
      "type": "function"
    },
    {
      "inputs": [
        {
          "internalType": "address",
          "name": "newOwner",
          "type": "address"
        }
      ],
      "name": "transferOwnership",
      "outputs": [],
      "stateMutability": "nonpayable",
      "type": "function"
    },
    {
      "inputs": [],
      "name": "unpause",
      "outputs": [],
      "stateMutability": "nonpayable",
      "type": "function"
    },
    {
      "inputs": [
        {
          "internalType": "address",
          "name": "",
          "type": "address"
        }
      ],
      "name": "userProposalCount",
      "outputs": [
        {
          "internalType": "uint256",
          "name": "",
          "type": "uint256"
        }
      ],
      "stateMutability": "view",
      "type": "function"
    },
    {
      "inputs": [
        {
          "internalType": "address",
          "name": "",
          "type": "address"
        }
      ],
      "name": "userVoteCount",
      "outputs": [
        {
          "internalType": "uint256",
          "name": "",
          "type": "uint256"
        }
      ],
      "stateMutability": "view",
      "type": "function"
    },
    {
      "inputs": [],
      "name": "version",
      "outputs": [
        {
          "internalType": "string",
          "name": "",
          "type": "string"
        }
      ],
      "stateMutability": "pure",
      "type": "function"
    }
  ],
  "bytecode": "0x60a0346200017e57601f62001fe338819003918201601f19168301916001600160401b03831184841017620001835780849260409485528339810103126200017e576200005a6020620000528362000199565b920162000199565b600160005560ff19600154166001556200007433620001ae565b6001600160a01b039182169182156200012f57811615620000e0576200009d91608052620001ae565b604051611dd890816200020b82396080518181816107aa0152818161098801528181610a000152818161100701528181611430015281816115330152611cd00152f35b60405162461bcd60e51b815260206004820152602160248201527f476f7665726e616e63653a20496e76616c6964206f776e6572206164647265736044820152607360f81b6064820152608490fd5b60405162461bcd60e51b815260206004820152602160248201527f476f7665726e616e63653a20496e76616c696420746f6b656e206164647265736044820152607360f81b6064820152608490fd5b600080fd5b634e487b7160e01b600052604160045260246000fd5b51906001600160a01b03821682036200017e57565b60018054610100600160a81b03198116600884811b610100600160a81b0316919091179092556001600160a01b0392831692911c167f8be0079c531659141344cd1fd0a4f28419497f9722a3daafe3b4186f6b6457e0600080a356fe6080604052600436101561001257600080fd5b6000803560e01c8063013cf08b146116be5780630d61b51914611498578063211603c61461145f57806331de88071461141a5780633f4ba83a14611385578063467f67f9146113675780634e43603a1461130e57806354fd4d50146112c85780635678138814610ed1578063583cf379146106fe5780635b7ad578146106c55780635c975abb146106a2578063713cdaa814610669578063715018a614610607578063791f5d23146105e35780638456cb59146105895780638da5cb5b1461055c5780639080936f14610516578063a438d208146104f8578063bc3f931f14610465578063c08cc02d14610447578063c7f758a814610395578063e0a8f6f514610224578063ee8a7c15146102085763f2fde38b1461013057600080fd5b346102055760203660031901126102055761014961195c565b6101516119ec565b6001600160a01b038181169182156101b15760018054610100600160a81b03198116600893841b610100600160a81b031617909155901c167f8be0079c531659141344cd1fd0a4f28419497f9722a3daafe3b4186f6b6457e0600080a380f35b60405162461bcd60e51b815260206004820152602660248201527f4f776e61626c653a206e6577206f776e657220697320746865207a65726f206160448201526564647265737360d01b6064820152608490fd5b80fd5b5034610205578060031936011261020557602060405160058152f35b50346102055760203660031901126102055760043580151580610389575b61024b90611b13565b610253611a79565b8082526003602052604082206004810154336001600160a01b0391821614908115610378575b501561032757806102926006600a930154421115611b5f565b01805460ff8160081c166102e257806102b160ff610100931615611bf7565b61ff00191617905533907f74c34a008ce735d9fcf0bd03a9b238d212ad4c441c020661f4ffbb6442645b858380a380f35b60405162461bcd60e51b815260206004820152601d60248201527f476f7665726e616e63653a20416c72656164792063616e63656c6c65640000006044820152606490fd5b60405162461bcd60e51b8152602060048201526024808201527f476f7665726e616e63653a204e6f7420617574686f72697a656420746f2063616044820152631b98d95b60e21b6064820152608490fd5b905060015460081c16331438610279565b50600254811115610242565b5034610205576020366003190112610205576040906004358015158061043b575b6103bf90611b13565b8152600360205220806104378180548160018060a01b0360048201541660058201546006830154600784015491600885015493610420600361041960026104126001600a60098d01549c01549d016117f2565b9d016117f2565b9c016117f2565b6040519b8c9b60ff808c60081c169b16998d6118d8565b0390f35b506002548111156103b6565b50346102055780600319360112610205576020600254604051908152f35b5034610205576040366003190112610205576024356001600160a01b03811690600435908290036104f3576040928184921515806104e7575b6104a790611b13565b815260036020522090600052600b8101602052600c60ff83600020541691016020526104e560ff8360002054168351921515835260208301906119c9565bf35b5060025481111561049e565b600080fd5b5034610205578060031936011261020557602060405162093a808152f35b503461020557602036600319011261020557610533600435611c43565b60405190600681101561054857602092508152f35b634e487b7160e01b83526021600452602483fd5b503461020557806003193601126102055760015460405160089190911c6001600160a01b03168152602090f35b50346102055780600319360112610205576105a26119ec565b6105aa611a79565b600160ff19815416176001557f62e78cea01bee320cd4e420270b5ea74000d11b0c9f74754ebdbfc544b05a2586020604051338152a180f35b5034610205578060031936011261020557602060405168056bc75e2d631000008152f35b50346102055780600319360112610205576106206119ec565b60018054610100600160a81b0319811690915560009060081c6001600160a01b03167f8be0079c531659141344cd1fd0a4f28419497f9722a3daafe3b4186f6b6457e08280a380f35b5034610205576020366003190112610205576020906040906001600160a01b0361069161195c565b168152600683522054604051908152f35b5034610205578060031936011261020557602060ff600154166040519015158152f35b5034610205576020366003190112610205576020906040906001600160a01b036106ed61195c565b168152600483522054604051908152f35b50346102055760603660031901126102055760043567ffffffffffffffff8111610ecd57610730903690600401611972565b60243567ffffffffffffffff8111610ec957610750903690600401611972565b60443567ffffffffffffffff8111610ec557610770903690600401611972565b91610779611a79565b610781611abd565b805115610e8057815115610e3b576040516370a0823160e01b81523360048201526020816024817f00000000000000000000000000000000000000000000000000000000000000006001600160a01b03165afa8015610e30578590610df5575b68056bc75e2d63100000915010610da45733845260046020526040842054620151808101809111610d90574210610d3f57600160025401928360025583855260036020526040852092848455825167ffffffffffffffff8111610c725761084b6001860154611750565b601f8111610cfb575b50806020601f8211600114610c91578891610c86575b508160011b916000199060031b1c19161760018501555b80519067ffffffffffffffff8211610c725781906108a26002870154611750565b601f8111610c22575b50602090601f8311600114610bb3578892610ba8575b50508160011b916000199060031b1c19161760028401555b805167ffffffffffffffff8111610b94576108f76003850154611750565b601f8111610b50575b50806020601f8211600114610ae6578791610adb575b508160011b916000199060031b1c19161760038401555b60048301336bffffffffffffffffffffffff60a01b8254161790556005830142815562093a80420193844211610ac75760060193845533865260046020524260408720556005602052604086206109848154611a6a565b90557f00000000000000000000000000000000000000000000000000000000000000006001600160a01b03163b15610ab8576040516317e2f08f60e21b8152336004820152606060248201526011606482015270383937b837b9b0b62fb1b932b0ba34b7b760791b608482015260448101879052868160a481837f00000000000000000000000000000000000000000000000000000000000000006001600160a01b03165af18015610abc57610aa4575b507ffaa337366f7965edea73e5dda4e27a18008218bee177df73f82fc597a1f4dd086020969360019593610a8a889454955491610a7d60405194608086526080860190611898565b908482038c860152611898565b94604083015260608201528033940390a355604051908152f35b610aae879161178a565b610ab85738610a35565b8580fd5b6040513d89823e3d90fd5b634e487b7160e01b87526011600452602487fd5b905082015138610916565b91506003850187526020872087925b601f1983168410610b38576001935082601f19811610610b1f575b5050811b01600384015561092d565b84015160001960f88460031b161c191690553880610b10565b84810151825560209384019360019092019101610af5565b60038501875260208720601f830160051c810160208410610b8d575b601f830160051c82018110610b82575050610900565b888155600101610b6c565b5080610b6c565b634e487b7160e01b86526041600452602486fd5b0151905038806108c1565b9250600286018852602088209088935b601f1984168510610c07576001945083601f19811610610bee575b505050811b0160028401556108d9565b015160001960f88460031b161c19169055388080610bde565b81810151835560209485019460019093019290910190610bc3565b90915060028601885260208820601f840160051c810160208510610c6b575b90849392915b601f830160051c82018110610c5d5750506108ab565b8a8155859450600101610c47565b5080610c41565b634e487b7160e01b87526041600452602487fd5b90508401513861086a565b91506001860188526020882088925b601f1983168410610ce3576001935082601f19811610610cca575b5050811b016001850155610881565b86015160001960f88460031b161c191690553880610cbb565b86810151825560209384019360019092019101610ca0565b60018601885260208820601f830160051c810160208410610d38575b601f830160051c82018110610d2d575050610854565b898155600101610d17565b5080610d17565b60405162461bcd60e51b8152602060048201526024808201527f476f7665726e616e63653a2050726f706f73616c20636f6f6c646f776e2061636044820152637469766560e01b6064820152608490fd5b634e487b7160e01b85526011600452602485fd5b60405162461bcd60e51b8152602060048201526024808201527f476f7665726e616e63653a20496e73756666696369656e74204943432062616c604482015263616e636560e01b6064820152608490fd5b506020813d602011610e28575b81610e0f602093836117d0565b810103126104f35768056bc75e2d6310000090516107e1565b3d9150610e02565b6040513d87823e3d90fd5b60405162461bcd60e51b815260206004820152601d60248201527f476f7665726e616e63653a20456d707479206465736372697074696f6e0000006044820152606490fd5b60405162461bcd60e51b815260206004820152601760248201527f476f7665726e616e63653a20456d707479207469746c650000000000000000006044820152606490fd5b8380fd5b8280fd5b5080fd5b503461020557604036600319011261020557600435602480356003811015610ec557821515806112bc575b610f0590611b13565b610f0d611a79565b610f15611abd565b828452602090600382526040852092600584018054421061127857610f406006860154421115611b5f565b600b85013360005280855260ff6040600020541661123457610f6c60ff600a88015460081c1615611bab565b336000528452604060002060ff1990600182825416179055600c8601855260406000209081541660ff85161790556001831460001461120c5760078501610fb38154611a6a565b90555b3387526006845260408720610fcb8154611a6a565b9055604051610fd9816117b4565b60098152681d9bdd1957d8d85cdd60ba1b8582015290546201518081018091116111f9574211156111d0575b7f00000000000000000000000000000000000000000000000000000000000000006001600160a01b03169487863b15610205578061106493604051809581926317e2f08f60e21b83523360048401526060898401526064830190611898565b8360448301520381838b5af19283156111c35786936111a6575b50506110de9060049461109460405180926119c9565b4284820152887fb83d25c6a5d258561330739951487acb4bd09ba5190b5d32c4f261817d90679260403393a360096110d56007830154600884015490611a47565b91015490611a47565b94604051938480926318160ddd60e01b82525afa91821561119b57869261116c575b5060058202918083046005149015171561115a575060649004821015611129575b836001815580f35b7fee96623b2793754b095184a2d77a7841701e5a5b2686385a774eddf127222f3f91604051908152a2388080611121565b634e487b7160e01b8652601160045285fd5b9091508281813d8311611194575b61118481836117d0565b810103126104f357519038611100565b503d61117a565b6040513d88823e3d90fd5b6111b29192935061178a565b6111bf578390873861107e565b8680fd5b50604051903d90823e3d90fd5b506040516111dd816117b4565b600b81526a32b0b9363cafbb37ba32b960a91b84820152611005565b634e487b7160e01b885260116004528288fd5b82611226576008850161121f8154611a6a565b9055610fb6565b6009850161121f8154611a6a565b60405162461bcd60e51b8152600481018690526019818501527f476f7665726e616e63653a20416c726561647920766f746564000000000000006044820152606490fd5b60405162461bcd60e51b815260048101859052601e818401527f476f7665726e616e63653a20566f74696e67206e6f74207374617274656400006044820152606490fd5b50600254831115610efc565b50346102055780600319360112610205576104376040516112e8816117b4565b60058152640312e302e360dc1b6020820152604051918291602083526020830190611898565b5034610205576020366003190112610205576060906001600160a01b0361133361195c565b1681526005602052604081205490600660205260408082205491600460205220549060405192835260208301526040820152f35b50346102055780600319360112610205576020604051620151808152f35b503461020557806003193601126102055761139e6119ec565b60015460ff8116156113de5760ff19166001557f5db9ee0a495bf2e6ff9c91a7834c1ba4fdd244a5e8aa4e537bd38aeae4b073aa6020604051338152a180f35b60405162461bcd60e51b815260206004820152601460248201527314185d5cd8589b194e881b9bdd081c185d5cd95960621b6044820152606490fd5b50346102055780600319360112610205576040517f00000000000000000000000000000000000000000000000000000000000000006001600160a01b03168152602090f35b5034610205576020366003190112610205576020906040906001600160a01b0361148761195c565b168152600583522054604051908152f35b50346102055760203660031901126102055760043590811515806116b2575b6114c090611b13565b6114c8611a79565b6114d0611abd565b818152600360205260408120600681015442111561166d57600a810180546114fb60ff821615611bf7565b61150b60ff8260081c1615611bab565b61151485611c43565b60068110156116595760020361160a5760ff19166001179055600401547f00000000000000000000000000000000000000000000000000000000000000006001600160a01b039081169116813b15610ec957829160a4839260405194859384926317e2f08f60e21b8452600484015260606024840152600f60648401526e1c1c9bdc1bdcd85b17dc185cdcd959608a1b60848401528160448401525af180156115ff576115f0575b50907f948f4a9cd986f1118c3fbd459f7a22b23c0693e1ca3ef06a6a8be5aa7d39cc03602060405160018152a26001815580f35b6115f99061178a565b386115bc565b6040513d84823e3d90fd5b60405162461bcd60e51b815260206004820152602160248201527f476f7665726e616e63653a2050726f706f73616c20646964206e6f74207061736044820152607360f81b6064820152608490fd5b634e487b7160e01b85526021600452602485fd5b60405162461bcd60e51b815260206004820152601f60248201527f476f7665726e616e63653a20566f74696e67207374696c6c20616374697665006044820152606490fd5b506002548211156114b7565b50346102055760203660031901126102055760409060043581526003602052208054906104376116f0600183016117f2565b916116fd600282016117f2565b9361170a600383016117f2565b9160018060a01b0360048201541660058201546006830154600784015491600885015493600a6009870154960154976040519b8c9b60ff808c60081c169b16998d6118d8565b90600182811c92168015611780575b602083101461176a57565b634e487b7160e01b600052602260045260246000fd5b91607f169161175f565b67ffffffffffffffff811161179e57604052565b634e487b7160e01b600052604160045260246000fd5b6040810190811067ffffffffffffffff82111761179e57604052565b90601f8019910116810190811067ffffffffffffffff82111761179e57604052565b906040519182600082549261180684611750565b9081845260019485811690816000146118755750600114611832575b5050611830925003836117d0565b565b9093915060005260209081600020936000915b81831061185d57505061183093508201013880611822565b85548884018501529485019487945091830191611845565b91505061183094506020925060ff191682840152151560051b8201013880611822565b919082519283825260005b8481106118c4575050826000602080949584010152601f8019910116010190565b6020818301810151848301820152016118a3565b9a97949c9b98959261191490611906611922948e6101609e9b98958152610180908160208201520190611898565b8d810360408f015290611898565b908b820360608d0152611898565b6001600160a01b03909b1660808a015260a089015260c088015260e087015261010086015261012085015215156101408401521515910152565b600435906001600160a01b03821682036104f357565b81601f820112156104f35780359067ffffffffffffffff821161179e57604051926119a7601f8401601f1916602001856117d0565b828452602083830101116104f357816000926020809301838601378301015290565b9060038210156119d65752565b634e487b7160e01b600052602160045260246000fd5b60015460081c6001600160a01b03163303611a0357565b606460405162461bcd60e51b815260206004820152602060248201527f4f776e61626c653a2063616c6c6572206973206e6f7420746865206f776e65726044820152fd5b91908201809211611a5457565b634e487b7160e01b600052601160045260246000fd5b6000198114611a545760010190565b60ff60015416611a8557565b60405162461bcd60e51b815260206004820152601060248201526f14185d5cd8589b194e881c185d5cd95960821b6044820152606490fd5b600260005414611ace576002600055565b60405162461bcd60e51b815260206004820152601f60248201527f5265656e7472616e637947756172643a207265656e7472616e742063616c6c006044820152606490fd5b15611b1a57565b60405162461bcd60e51b815260206004820152601f60248201527f476f7665726e616e63653a20496e76616c69642070726f706f73616c204944006044820152606490fd5b15611b6657565b60405162461bcd60e51b815260206004820152601860248201527f476f7665726e616e63653a20566f74696e6720656e64656400000000000000006044820152606490fd5b15611bb257565b60405162461bcd60e51b815260206004820152601e60248201527f476f7665726e616e63653a2050726f706f73616c2063616e63656c6c656400006044820152606490fd5b15611bfe57565b60405162461bcd60e51b815260206004820152601c60248201527f476f7665726e616e63653a20416c7265616479206578656375746564000000006044820152606490fd5b611c5e9080151580611c61575b611c5990611b13565b611c6d565b90565b50600254811115611c50565b6000908152600360205260408120600a81015460ff8160081c16611d9a5760ff16611d93576006810154421115611d8c57600781015491611cb960088301549260096110d58587611a47565b6040516318160ddd60e01b815290916020826004817f00000000000000000000000000000000000000000000000000000000000000006001600160a01b03165afa9182156111c3578192611d59575b50600582029180830460051490151715611d4557506064900411159182611d3b575b505015611d3657600290565b600390565b1190503880611d2a565b634e487b7160e01b81526011600452602490fd5b9091506020813d8211611d84575b81611d74602093836117d0565b81010312610ecd57519038611d08565b3d9150611d67565b5050600190565b5050600490565b50505060059056fea264697066735822122075af191ec883909304a993c33b1e59bb05969c1fa8349ae497a9dc37558ce3e864736f6c63430008130033",
  "linkReferences": {},
  "deployedLinkReferences": {}
}